:020000040800F2
:10000000F81400207D020008850200089F03000804
:10001000890200088B0200088D0200080000000021
:100020000000000000000000000000008F02000837
:100030009102000800000000EB020008C12D00083A
:10004000970200089702000897020008970200082C
:100050009702000897020008011500088F15000894
:10006000A9150008BD150008D11500089702000861
:1000700097020008970200089702000897020008FC
:1000800097020008970200089702000897020008EC
:1000900097020008970200089702000897020008DC
:1000A00097020008970200089702000897020008CC
:1000B00097020008970200089702000897020008BC
:1000C00097020008970200089702000897020008AC
:1000D00097020008812E0008970200089702000886
:1000E00015150008970200089702000897020008FB
:1000F000970200089702000897020008970200087C
:10010000970200089702000897020008970200086B
:10011000970200089702000897020008970200085B
:10012000970200089702000897020008970200084B
:10013000970200089702000897020008970200083B
:1001400000000000000000000000000000000000AF
:10015000970200089702000897020008970200081B
:10016000970200089702000897020008970200080B
:1001700097020008970200089702000800F002F8B2
:1001800000F065F80AA090E8000C82448344AAF1CC
:100190000107DA4501D100F05AF8AFF2090EBAE8CA
:1001A0000F0013F0010F18BFFB1A43F001031847AB
:1001B00008320100283201000A444FF0000C10F808
:1001C000013B13F0070408BF10F8014B1D1108BFD5
:1001D00010F8015B641E05D010F8016B641E01F875
:1001E000016BF9D113F0080F1EBF10F8014BAD1CC5
:1001F0000C1B09D16D1E58BF01F801CBFAD505E0E3
:1002000014F8016B01F8016B6D1EF9D59142D6D33C
:10021000704700000023002400250026103A28BF64
:1002200078C1FBD8520728BF30C148BF0B60704768
:10023000732900F04A84002070471FB510F088FC35
:1002400000F048FC1FBD10B500F0ADFC10BD00F083
:10025000C9FE1146FFF7F1FF01F08EF800F0F8FF3C
:1002600003B4FFF7F0FF03BC03F04CFF002804D0F9
:1002700090FAA0F0B0FA80F0401C7047094880471F
:1002800009480047FEE7FEE7FEE7FEE7FEE7FEE778
:10029000FEE7FEE7FEE7FEE704480549054A064B90
:1002A00070470000152E00087D010008F80E0020A0
:1002B000F8140020F8100020F8100020EFF3108050
:1002C00072B6704780F310887047434A1368012B59
:1002D00004D04FF001031360404A1060404A11609F
:1002E00040484FF0805101607047EFF3108272B6C2
:1002F0003948016851B34FF0000101603748016887
:1003000091B1EFF309811EF0100F08BF21ED108BA2
:1003100021E9F00F4FF000041EF0100F08BF012478
:1003200041F8044D006801602D490968096808C951
:10033000B1E8F00F002B18BFB1EC108B81F30988E6
:100340004EF0100E002B18BF2EF0100E82F3108806
:100350004EF0040E704722490860EFF3148222F039
:10036000040282F314881D494FF0000008601A4906
:100370004FF0010008601C484FF47F01D0F80020C6
:1003800041EA0201016017484FF0805101601748AF
:100390000068006880F3088861B662B670471EF096
:1003A000040F0CBFEFF30880EFF3098020E9F00F92
:1003B00040F804ED40F804ED1EF0040F0CBF80F38C
:1003C000088880F3098800B50CF050F85DF804EB5C
:1003D0004EF0040E70470000B0020020A80200207A
:1003E000AC02002004ED00E020ED00E008ED00E0AC
:1003F00070477047704710B54C1084EA530404D519
:100400004042C1F1000138BF491E1B4204D552428F
:10041000C3F1000338BF5B1E00F09DFA14F0804F5B
:1004200004D04042C1F1000138BF491E14F0004F12
:1004300004D05242C3F1000338BF5B1E10BD000060
:100440000FB41CB50C0007AA009001D02044401E38
:10045000074B7B4469460190069800F004FB002C92
:1004600003D06946002000F011FB1CBC5DF814FBB2
:10047000410600002DE9F0410E46044600202062AE
:100480002046E168884730B3252805D0D4E901210A
:100490009047206A401CF2E7E16820460027884721
:1004A000050018D0A5F14100192802D820354FF4D5
:1004B00000673246294620462760FFF7B9FE40B163
:1004C000012804D0F61D26F007060836D8E7361DA9
:1004D000D6E72846DAE7206ABDE8F08170B50C4619
:1004E0000546012A05D02878800600D5EA69002350
:1004F00002E0012305E05B1C934202D2E05C00288D
:10050000F9D1A869E618C01AA861286A18442862B7
:100510002846AFF3008004E0D5E9012114F8010B6F
:100520009047B442F8D32846AFF3008070BD08F07E
:100530004FBC30B505460B462A4613F8014B12F85E
:10054000010B08B1A042F8D01CB1002802D06D1CEC
:10055000F1E7284630BD40EA010310B59B070FD1F3
:10056000042A0DD310C808C9121F9C42F8D020BA23
:1005700019BA884201D9012010BD4FF0FF3010BDDB
:100580001AB1D30703D0521C07E0002010BD10F8A9
:10059000013B11F8014B1B1B07D110F8013B11F86F
:1005A000014B1B1B01D1921EF1D1184610BD40EA30
:1005B0000103024630B59B0710D14FF0013400E033
:1005C00008C208C91D1B9D4315EAC41FF8D013F0CB
:1005D000FF0102F8011B0DD01B0AF8E711F8013BDF
:1005E000002B02F8013B05D011F8013B002B02F86B
:1005F000013BF3D130BD0022CBB210F8011B994270
:1006000000D1421E0029F8D11046704710B5431C96
:1006100002E010F8011B71B18107FAD14FF00132ED
:1006200002C88C1A8C4314EAC211F9D0C01A0A0607
:1006300003D0C01E10BDC01A10BD0A0401D0801E18
:1006400010BD0902FCD0401E10BD40EA010370B588
:100650009B072ED14FF00136042A2AD308C810C9AF
:100660009D1B9D43121F15EAC61517D0D8B2E1B2E3
:10067000401A50EA056110D198B2A1B2401A50EA6E
:1006800005410AD123F07F4024F07F41401A50EA0F
:10069000052102D1180EA0EB146070BDA342DBD07F
:1006A00018BA21BA884201D9012070BD4FF0FF303D
:1006B00070BD0AB9002070BD10F8013B11F8014B64
:1006C00063B1A3420AD1521E08D010F8013B11F8C1
:1006D000014B1BB1A34201D1521EEDD1181B70BDBD
:1006E000421E12F8013F002BFBD111F8013B002BF9
:1006F00002F8013BF9D17047032A40F2308010F034
:10070000030C00F0158011F8013BBCF1020F6244AC
:1007100098BF11F801CB00F8013B38BF11F8013B3D
:10072000A2F1040298BF00F801CB38BF00F8013BEA
:1007300011F0030300F02580083AC0F0088051F85A
:10074000043B083A51F804CBA0E80810F5E7121D65
:100750005CBF51F8043B40F8043BAFF30080D20784
:1007600024BF11F8013B11F801CB48BF11F8012B50
:1007700024BF00F8013B00F801CB48BF00F8012B73
:10078000704710B5203AC0F00B80B1E81850203AFD
:10079000A0E81850B1E81850A0E81850BFF4F5AF21
:1007A0005FEA027C24BFB1E81850A0E8185044BFAB
:1007B00018C918C0BDE810405FEA827C24BF51F818
:1007C000043B40F8043B08BF7047D20728BF31F80C
:1007D000023B48BF11F8012B28BF20F8023B48BF5D
:1007E00000F8012B70474FF000020429C0F012807E
:1007F00010F0030C00F01B80CCF1040CBCF1020FD4
:1008000018BF00F8012BA8BF20F8022BA1EB0C01A8
:1008100000F00DB85FEAC17C24BF00F8012B00F89E
:10082000012B48BF00F8012B70474FF0000200B5C4
:10083000134694469646203922BFA0E80C50A0E803
:100840000C50B1F12001BFF4F7AF090728BFA0E8B1
:100850000C5048BF0CC05DF804EB890028BF40F87D
:10086000042B08BF704748BF20F8022B11F0804FBF
:1008700018BF00F8012B704710B5044610F0030FA5
:1008800008BF11F0030F40F015804FF0013E121F1A
:10089000C0F20E8051F8043BA3EB0E0C2CEA030CC3
:1008A0001CEACE1C08BF40F8043BF0D0A1F10401C3
:1008B00002F10402521E08DB11F8013B002B00F884
:1008C000013BF7D11146FFF78EFF204610BD000017
:1008D0004FF0013C50F8042B51F8043B9A4221D1CF
:1008E000A2EB0C03934313EACC1317D150F8042B5B
:1008F00051F8043B9A4215D1A2EB0C03934313EA3F
:10090000CC130BD150F8042B51F8043B9A4209D177
:10091000A2EB0C03934313EACC13DBD04FF000009F
:10092000704700BFD01A01BAB1FA81F101F0180185
:1009300022FA01F0CB40C1F12001DBB2C0B2C01AF3
:100940002CFA01F3D11A914311EAC311E6D1704791
:1009500070477047704753EA020C00F069802DE938
:10096000F04B4FF00006002B1FBFB3FA83F503FADC
:1009700005F424FA05F65E4012BF1643B2FA82F57A
:1009800002FA05F4C5F120051EBF22FA05FC44EA6F
:100990000C04203556EA044C4FEA144418BF641C7A
:1009A0004FF000084FF00009904271EB030C39D36F
:1009B000002919BFB1FA81F701FA07F6B0FA80F7FA
:1009C00000FA07F6C7F120071EBF20FA07FC46EA27
:1009D0000C062037B6FBF4FCA7EB0507103F07F029
:1009E0001F0BCBF120060CFA0BFB2CFA06F644BFCA
:1009F000B3460026202FA4BF5E464FF0000B5BEAF3
:100A0000060C08BF4FF0010B19EB0B09ABFB027C86
:100A100048EB0608C01B06FB02CC0BFB03CC71EBBA
:100A20000C01C1E70B46024641464846BDE8F08B43
:100A300013B54FF000004FF00001AFF30080BDE8A8
:100A40001C40704710B500F0E1F8006810BD10B50B
:100A5000044600F0DBF8046010BD000001694A1C88
:100A600002610878704700B58FB0CDE901310021EF
:100A7000059105497944CDE9031011466846FFF711
:100A8000F9FC0FB000BD0000E5FFFFFF0A6802F8A7
:100A9000010B0A607047D1E900239A4202D2531C2D
:100AA0000B601070704710B5436913B1AFF300804D
:100AB00001E0FFF713FD012010BD127800F12401C1
:100AC0000A7000224A700122EDE711684FF0FF32F0
:100AD000E9E7000010B542485421FFF7A6FE41485F
:100AE0005421FFF7A2FE40485421FFF79EFE3F49E4
:100AF0003B483C4A3F4B08603D490A603A4919600F
:100B0000531C0365481C1065012008653B48344AA6
:100B100039A1784400F0BEF920B9384878440A3841
:100B200000F054FA37482F4A35A1784400F0B2F962
:100B300020B9344878440A3800F048FA32482A4A42
:100B40002FA1784400F0A6F920B92F4878440A383C
:100B500000F03CFA40232248DC000021224600F04D
:100B600076F920B125487844543800F02FFA1D4812
:100B700022464023002100F06AF920B12148784440
:100B8000543800F023FA184822461023002100F0C0
:100B90005EF9002806D01C487844BDE8104056385D
:100BA00000F014BA10BD104870B5006D20F00104BB
:100BB0000B4800F0E5F90B4800F0E2F90A4800F0B4
:100BC000DFF909E0206D20F00105204600F0D8F99A
:100BD000204608F0A1FC2C46002CF3D170BD00008B
:100BE000980D0020EC0D0020400E00200C04002089
:100BF000100400201404002072000000C41801003A
:100C000077000000B2180100A118010000487047E9
:100C1000940E002070B50D4601461446D368506905
:100C20002A4603F0C1FA002807DA411C07D0E16820
:100C300020F0004041F48041E160281A70BD204658
:100C400000F072FA4FF0FF3070BDC1680022026000
:100C500021F4805141F0400111F4C06FC16001D016
:100C60008260704702694168891AC269891A816085
:100C700070472DE9F0470446C06840F48000E0600A
:100C8000010312D520F40020E060810606D4E26A58
:100C900061688A4200D80A46511A216040F4001067
:100CA000E06094F82500BDE8F08720F40010E060D3
:100CB000800602D5204600F08EFAE06842F28101FB
:100CC0004FF0FF390140012903D0204600F02CFAF3
:100CD000B6E02168002600290ADAC94340F48050B2
:100CE0002160C4E902606068411C61600078DAE755
:100CF00044F2400108420CD020F4A04040F04000F3
:100D00002660E06021696068401AE169401AA060CD
:100D100096E0216991B9C00310D4E06909F02DFF74
:100D20002061B0B1E06840F4006010F4407FE06002
:100D300002D140F48070E06020696060E068D4F81F
:100D400014A0C1061AD5C0030ED5204600F020FA23
:100D500014E004F1240020610120E061E06820F447
:100D6000407040F48060E6E721696068401AA1693C
:100D70000144504603F02FFA0028A6DBE068C003C8
:100D80002AD56168E06A884200D808462169451A78
:100D9000E069471B1BD02046D4F8188000F0F8F912
:100DA00008EB05015046C4F8188003F014FA002837
:100DB0008BDBE06840F40030E060000202D5A069FF
:100DC0002844A061E1692069C91B45180DE020464F
:100DD00000F0DEF9E769F5E725696168D4E90607FF
:100DE000491BE56208446560A061E06820F01000DE
:100DF00010F4C06FE06002D0204600F00DFAE06809
:100E000040F48050C4E90260000205D52069E06228
:100E100060606FF0010046E7224639462846FFF73A
:100E2000F9FE411C0CD02918E16258B1401E206027
:100E3000681C6060E06840F40030E060287832E7C9
:100E4000484630E765602046FFF7FFFEF8E770B5DB
:100E5000C468A50713D0650211D4B2F5807F09D00C
:100E6000B2F5007F06D0B2F5806F08D1012300F102
:100E7000240106E05D1E6FF07F46B54201D30120DC
:100E800070BD0161C361416024F470611143C160B0
:100E9000002070BD2DE9F0410C460746164610466D
:100EA00000F06EF82078611C61280AD0722802D008
:100EB00077283CD102E00125002405E00225042426
:100EC00002E0082448F2020511F8010B2B2806D095
:100ED000622809D011F8010C74280AD00BE045F003
:100EE000030544F00204EFE745F0040544F0010473
:100EF000EAE744F010043846214603F017F9411C94
:100F000015D00021316171604FF40071F560F1611D
:100F10007061200704D530460222002100F088F8D5
:100F2000306D40F0010030653046BDE8F0810020B2
:100F3000FBE72DE9F0410D460646104C206DC10738
:100F400004D0410804D020F00104F7E722460EE067
:100F5000542009F012FE07000ED0206D47F0010169
:100F60000843542120653846FFF75FFC3A4629467E
:100F70003046BDE8F0418DE70020D6E7980D00200F
:100F80002DE9F04704464FF000094FF0FF37C568E0
:100F9000D4E90486A80707D0204600F0F9F83046C7
:100FA00003F0AAF8002802DA3846BDE8F0872805E1
:100FB00002D5404608F0B0FA4C212046FFF735FC38
:100FC000206D20F0010020654846EEE710B500F0E6
:100FD0004DF9BDE8104000F044B9000000487047EA
:100FE000940E00207546FFF7F9FFAE4605006946EE
:100FF000534620F00700854618B020B5FFF74CF99E
:10100000BDE820404FF000064FF000074FF0000809
:101010004FF0000B21F00701AC46ACE8C009ACE88A
:10102000C009ACE8C009ACE8C0098D4670470000B3
:101030002DE9F041044616460D464769007B8007BE
:101040002ED0384603F06CF850BB3EB3012E02D0D0
:10105000022E25D104E0204600F054F905441DE09D
:10106000384603F050F8E168002841F01001E160D3
:1010700005DA204600F058F80120BDE8F081C903E8
:101080000BD56268E16A914200D81146A269114409
:101090002269891A814200DD08460544002D01DAE3
:1010A0000220EAE7E16A6068E268814206D29103C1
:1010B000E06203D522F4003141F01002A669002756
:1010C000AE4213DCE16A814201D90B4600E00346DF
:1010D00003EB060C2369ACEB030CAC4506DD814247
:1010E00001D98C4600E084469C4505D1A760276065
:1010F00042F02000A5620DE0AD1BE669AE1B814207
:10110000A66000D90846C01A281A206058196060E5
:1011100022F0200003490840E060002084F8487075
:10112000ABE70000BFCFD7FFC16821F4001141F049
:101130008001C16000218160016070472DE9F047A6
:10114000814614460E464FF0FF383248D56857693D
:10115000054209D03846A16903F03DF8002811DBAB
:101160002C48C0430540E5602B4632464946384688
:1011700003F039F8A16920F00042B21A11440028A6
:10118000A16103D02046FFF7CFFF4046BDE8F087BE
:1011900070B504460569C06A6168884200D808468F
:1011A000E16821F42011E160C90312D5A84208D0FA
:1011B0002246411B2846FFF7C1FF10B14FF0FF3018
:1011C00070BD0020E562C4E90150E06820F4803081
:1011D000E060002070BD10B50446C06820F020001B
:1011E000E060A16AA06988420DD02046FFF7D0FFD9
:1011F000E06820F4405040F01000E060A06AA06178
:101200002069E062606044F24001E0688843E06089
:1012100010BD00001000020070B5054640F2022625
:101220000A4C0FE094F85000C00708D0AC4206D03A
:10123000E06836EA000002D1204600F031F8206D67
:1012400020F00104002CEDD170BD0000980D0020AD
:1012500010B50446AFF300802046BDE81040FEF70D
:10126000FFBF002801D002F04DBF704710B5014606
:1012700002A000F068F8012010BD00005349475259
:10128000545245443A2052656469726563743A2049
:1012900063616E2774206F70656E3A200000000055
:1012A00070B50446C068810713D0800601D5A56AD1
:1012B00004E0A169606808442169451A2046FFF7E7
:1012C00067FF0022064629462046FFF7B1FE30465A
:1012D00070BD002070BD70B510B1BDE87040DFE793
:1012E0000025074C6E1E07E02046FFF7D9FF00B12E
:1012F0003546206D20F00104002CF5D1284670BD44
:10130000980D002010B50146C268900703D09006E2
:1013100007D5886A0AE0FFF779FC01210160881E81
:1013200010BD8B69486818440B69C01A91F84830A1
:101330001BB191F84910401A10BD1103FCD50028CB
:10134000FADD401E10BD70B505460C460A2000E0CF
:101350006D1C02F05FFF35B128780028F8D102E05B
:10136000641C02F057FF14B120780028F8D1BDE8C2
:1013700070400A2002F04EBF10B50EF0C8F90020F0
:1013800010BD00002DE9FC4700219F23EF220846F5
:1013900001F0D0F84FF4164420460BF0D9FB4D4E27
:1013A000F060E0B320460BF0D3FB3061002849D059
:1013B000FEF784FF484DDFF824814FF0000986F8DE
:1013C000009000214C4686F80190084601F082F812
:1013D0004046D0F834110129FBD0D0F8341100294F
:1013E000FBD0A146D8F83411404601292ED0032362
:1013F000A022F021F06800F0CDF9A0200090D6E9FD
:101400000301F0231A4600F042F978200090316978
:10141000A023F022084600F083FE306900E00CE0D3
:1014200000F0BAFC31695A20CDE90001A023F02276
:101430001946002000F085FEC1E7BDE8FC4728A062
:101440000BF00EBBF0680AF00FFFF6E786F800908D
:10145000D0F83811A9BBD0F834110129F8D030E008
:10146000D5F818010028FBD0D5F818010128FBD0C9
:10147000D5F818010028FBD01E4800687178337831
:10148000C1EB0112F1681C4C01EB0212D054012097
:101490002061870267617078C0EB001001EB0010DB
:1014A0003178405C0EF020FD144908600220606134
:1014B00020612761D5F818010128FBD03078401C45
:1014C0003070D8F838010028CAD17078401C70708C
:1014D00088E7000030010020000022420080214205
:1014E000676574206D656D6F7279204641494C4582
:1014F00044210A0008140140001001400C1801406A
:1015000010B50BF037FA012000F0B2F9BDE8104039
:101510000BF04EBA10B50BF02DFA4FF48064204654
:1015200000F066F810B1204600F0A2F94FF4006414
:10153000204600F05DF810B1204600F099F94FF414
:101540008054204600F054F810B1204600F090F985
:101550004FF40054204600F04BF810B1204600F044
:1015600087F94FF48044204600F042F810B120463D
:1015700000F07EF94FF40044204600F039F810B135
:10158000204600F075F9BDE810400BF011BA10B517
:101590000BF0F0F9022000F025F8022000F068F9C5
:1015A000BDE810400BF004BA10B50BF0E3F90420CD
:1015B00000F05EF9BDE810400BF0FAB910B50BF081
:1015C000D9F9082000F054F9BDE810400BF0F0B94B
:1015D00010B50BF0CFF9102000F04AF9BDE810402B
:1015E0000BF0E6B90149086070470000140401409F
:1015F000064A014600201268044B0A4014331B6857
:101600000B4202D0002A00D00120704700040140A4
:1016100030B51A4A8379016853B313688B4313605A
:10162000111D0B680468A3430B60017911440B681A
:10163000046823430B60114B083319680468A14305
:1016400019601C1D21680568A94321604179102992
:1016500005D011440A68006802430A6030BD196869
:10166000026811431960216800680143216030BDA0
:101670000079104402688A43026030BD00040140D2
:101680000021016001710C224271817170472DE9C6
:10169000FF4F07462DED048B85B0012516981646A1
:1016A000401E03906EE00C980124401E029065E0FD
:1016B0006B1C03FB0672A4F10109019212F80900E8
:1016C00073433919C0F1000A5A5C5300C3F1000E8C
:1016D000C2F1000C6B1E03FB06720092734312F8FA
:1016E00009B00AEB0E00595C6044584400EB41001D
:1016F00008440EF076FE41EC190B05FB067104F16F
:10170000010811F80920CBF1000C5200C2F10009C8
:10171000019A0AEB090011F8081012F80830009A33
:101720006044184412F8082000EB410010440EF009
:1017300058FE41EC180B53EC192B51EC190B0EF021
:10174000B7FE41EC190B53EC182B51EC180B0EF0B3
:10175000AFFE53EC192B0EF0DBFB41EC100B01F04C
:10176000E3FD01F00DFD51EC100B0EF00DFE0A9A99
:1017700005FB06F12244641C88540298844297DBDE
:1017800003986D1C85428EDB05B0BDEC048BBDE873
:10179000FF8F00002DE9FC5F1D46824603FB05F02C
:1017A00014460F4601900BF0D3F95FEA000903D00D
:1017B0000026601B009031E0BDE8FC5F1BA00BF031
:1017C0004FB90024A7EB050B23E0002114E0002013
:1017D0008A1902FB07A801FB05F309E000EB040CE2
:1017E00009EB000218F80CC0401C03F802C0C0B29C
:1017F000A842F3D3491CC9B2A942E8D3484601998B
:1018000000F0BEFA0AEB040206FB07F1641C8854E0
:10181000E4B2A345D9DC761C0098F6B2B042D0DC25
:101820004846BDE8FC5F0AF01FBD00004765742014
:1018300066696C746572206D656D6F7279204641C2
:10184000494C4544210A000010B58A0721F00304E1
:101850000649120F21440F238C6893409C438C60EF
:101860008B68904003438B6010BD00000000014076
:1018700010B503F001F800EB4004084800EB440009
:101880004088FFF7AFFE064800EB8400416800295E
:1018900003D08068BDE81040084710BDB8180108A3
:1018A0005C010020F0B5CC78002204F00F03E406C0
:1018B00001D58C7823430C784FF00F0C14F0FF0FF8
:1018C0004FF0010E1BD005680E880EFA02F4264078
:1018D000A64210D196000CFA06F725EA070703FA8C
:1018E00006F5CE783D43282E02D0482E02D002E0E5
:1018F000446100E00461521C082AE5D305600A88AF
:10190000FF2A1CD94468002202F108060EFA06F5E7
:101910000E882E40AE420ED196000CFA06F7BC435C
:1019200003FA06F7CE783C43282E00D14561CE78E5
:10193000482E00D10561521C082AE5D34460F0BD51
:1019400070B5B0F1004F63D96FF07F4303EAD01454
:1019500000F07F03180903F00F03850003FA05F573
:10196000062C14D2DFE804F00305080B0E11F44A2C
:101970000DE0F34A121D0AE0F14A083207E0F04A8E
:101980000C3204E0EE4A103201E0ED4A143270B13C
:10199000012810D002281DD003281FD0042821D0F0
:1019A000052823D0062825D0072827D02AE010684C
:1019B00020F00F0025E0012C03D0106820F0F0008B
:1019C0001FE01068042B02D920F0C00019E020F0BD
:1019D000300016E0106820F4706012E0106820F407
:1019E00070400EE0106820F470200AE0106820F4C7
:1019F000700006E0106820F0706002E0106820F0CF
:101A000070401060012902D110682843106070BD39
:101A1000CB4A4FF48025203AA8420FD040DCB0F5E5
:101A2000007F71D01EDC10286FD008DC01286DD03B
:101A3000022803D0042801D00828E8D198E03028F3
:101A400078D0402877D0C02876D0B0F5807FDED11E
:101A5000506820F4407050600129D8D1506840F49B
:101A600080704BE1B0F5804F67D00CDCB0F5407F63
:101A70007AD0B0F5006F78D0B0F5406F76D0B0F581
:101A8000805FC4D174E0B0F5C04F70D0B0F5004FA6
:101A90006ED0B0F5803F6BD0B0F5003FB7D167E0B6
:101AA000B0F1005F77D032DCB0F5000F74D015DCF8
:101AB000B0F5002F5CD0B0F5801F59D0B0F5001FF5
:101AC0006BD0B0F5800FA2D1506820F48000506038
:101AD00001299CD1506840F480000FE1B0F1807F73
:101AE00070D0B0F1007F6ED0B0F1806F6CD0B0F1EB
:101AF000805F8CD1506820F080505060012986D1E1
:101B0000506840F08050F9E073E047E039E08D4CD8
:101B1000031BA0421DD011DCB0F1804F73D0A0F1A7
:101B20008043203B15D0B3F5787F12D0864CE3423A
:101B30008DD10EE03CE048E051E086E0AB4277D04A
:101B4000B3F5402F75D0B3F5A01F73D0B3F5E01FE8
:101B500097D1D369C0F315008343D361012990D194
:101B6000D1690143D16170BD4EE057E063E076E09A
:101B70005368834353600129F5D151680143516093
:101B8000F1E75068714B184050600129EBD1506863
:101B900040F00100B2E094E09DE0A6E0506820F043
:101BA000300050600129DED1506840F01000A5E0FF
:101BB000506820F0300050600129D4D1506840F0C6
:101BC00030009BE055E05EE067E0506820F0C00028
:101BD00050600129C7D1506840F040008EE0506845
:101BE00020F0C00050600129BDD1506840F0C00015
:101BF00084E0506820F4407050600129B3D15068EF
:101C000040F400707AE052E0506820F44070506078
:101C10000129A8D1506840F440706FE0506820F46A
:101C20004060506001299ED1506840F4006065E03A
:101C300066E06FE078E0506820F440605060012971
:101C400091D1506840F4406058E0506820F4C040A2
:101C50005060012987D1506840F480404EE05068C0
:101C600020F4C040506001298AD1506840F4C0403F
:101C700044E0506820F0E0605060012986D150684F
:101C800040F080703AE0506820F0E0605060012938
:101C900089D1506840F0007030E0506820F0E0607A
:101CA0005060012989D1506840F0806026E050687A
:101CB00020F08040506001298CD1506840F0804075
:101CC0001CE0506820F00050506001298CD1506811
:101CD00040F0005012E0506820F4000050600129EC
:101CE0008CD1506840F4000008E0506820F40010E7
:101CF000506001298DD1506840F40010506032E7E7
:101D0000D06920F4C010D0610129F8D1D06940F425
:101D1000002012E0D06920F4C010D0610129EED17A
:101D2000D06940F4801008E0D06920F4C010D06180
:101D30000129E4D1D06940F4C010D06113E700005C
:101D400020000140000004402000FEFFFEFFFF7F56
:101D50000246002092680A4200D00120704741618B
:101D60007047016170474FF6FF7101800221817059
:101D70000421C17070470AB1016170474161704729
:101D800010B5002202E0845C521C23448A42FADB34
:101D9000B3FBF1F0C0B210BD2DE9F04F06462DEDBA
:101DA0000A8B4FF487448DB020460AF0D1FE5FEADB
:101DB000000A1DD020460AF0CBFE5FEA00091DD0C4
:101DC0002246002150460AF0FDFF224600214846E7
:101DD0000AF0F8FF00279FEDCEAB9FEDCFBB0025AB
:101DE000C7EB071B05EB0B10305CFF280BD0A8E0FE
:101DF00001200DB0BDEC0A8BBDE8F08F50460AF013
:101E000033FA0220F5E7142428460EF0EAFACDE969
:101E10000001B0EE4A9AF0EE6A9AB0EE4B8AF0EE0C
:101E20006B8A38460EF0DDFACDE9020120460EF04D
:101E3000D8FA804653EC192B04910EF039FB53EC81
:101E4000182B0EF019F941EC100B01F009FADDE93D
:101E5000000153EC102B0EF02BFB41EC1C0B0499F2
:101E600053EC192B41EC108B51EC100B0EF020FBB6
:101E700053EC182B0EF000F941EC100B01F01CF99B
:101E8000DDE9020153EC102B0EF012FB53EC1C2B7E
:101E90000EF03EF80EF048FA00EBD0709022C4EB42
:101EA000041302EB60000AEB8301641D0B5C5B1CF6
:101EB0000B54502CBADB642420460EF092FA804674
:101EC00053EC192B04910EF0F3FA53EC182B0EF08F
:101ED000D3F841EC100B01F0C3F9DDE9000153EC3C
:101EE000102B0EF0E5FA41EC1C0B049953EC192B66
:101EF00041EC108B51EC100B0EF0DAFA53EC182B6E
:101F00000EF0BAF841EC100B01F0D6F8DDE9020151
:101F100053EC102B0EF0CCFA53EC1C2B0DF0F8FF09
:101F20000EF002FA00EBD071902000EB6100C4EBE0
:101F3000041209EB8201641D0A5C521C0A54A02C95
:101F4000BADB6D1CF02DFFF64DAF7F1C602FFFF646
:101F500046AF00208346034614214FF490740C9042
:101F6000C1EB011501200AEB85052A5C9A4202DDCE
:101F7000134683460C91401CA042F6DB491D5029B4
:101F8000EEDB00208046034664210B90C1EB011577
:101F9000012009EB85052A5C9A4202DD1346804642
:101FA0000B91401CA042F6DB491DA029EEDB002767
:101FB0000024C7EB071504EB0510305CFF287DD12A
:101FC0000C980EF00EFACDE9000153EC1A2B0EF02E
:101FD0006FFA53EC1B2B0EF04FF841EC100B01F095
:101FE0003FF9B0EE408AF0EE608A20460EF0F9F933
:101FF000CDE9021053EC182B0EF05AFA41EC190BF4
:10200000DDE9000153EC1A2B0EF052FA53EC1B2BB6
:102010000EF032F841EC100B01F04EF8B0EE408AB1
:10202000F0EE608A38460EF0DCF9CDE9000153ECA1
:10203000182B0EF03DFA53EC192B0DF069FF0EF042
:1020400073F900EBD071902000EB6100584503D18B
:1020500006EB0511012008550B980EF0C2F9B0EE01
:102060004A9AF0EE6A9ACDE9040153EC192B0EF06E
:102070001FFAB0EE4BCAF0EE6BCA53EC1C2B0DF0FE
:10208000FBFF41EC100B01F0EBF8DDE9020140EC45
:10209000111B53EC102B51EC110B0EF009FA41EC13
:1020A000180BDDE9040153EC192B0EF001FA53EC87
:1020B0001C2B0DF0E1FF41EC100B00E018E000F0EC
:1020C000FBFFDDE9000153EC102B0EF0F1F953ECAE
:1020D000182B0DF01DFF0EF027F900EBD0719020AA
:1020E00000EB6100404503D106EB051101200855C6
:1020F000641CF02CFFF65FAF7F1C602FFFF658AF1B
:1021000050460AF0B1F848460AF0AEF8002070E6F2
:10211000F1D4C853FB210940000000000080664054
:10212000F0B50024FF2627465A43059D06E0035DCF
:10213000AB4201D30E5500E00F55641CA242F6DC01
:10214000F0BD2DE9F0431F461546CA19521E93B241
:102150004219521E92B2089E00F0ECF900244FF48E
:1021600078484FF6FF797D4307E0305D10B10128D4
:1021700007D0484600F00CFA641CA542F5DCBDE827
:10218000F0834046F6E7000038B50121512000F009
:10219000A1FB01214806FFF7D3FB40F22F44ADF825
:1021A000004010208DF8030001200C4D8DF8020036
:1021B00069462846FFF776FB21462846FFF7D1FD02
:1021C000074D4FF6FF74ADF8004069462846FFF70B
:1021D00069FB21462846FFF7C4FD38BD00100140C9
:1021E0000018014010B5FFF7CFFF00F063F9D320CE
:1021F00000F0DEF900F02EF900F02CF900F02AF9D9
:10220000924C4FF6FF7101EA0020A08000F022F905
:10221000A1880843A080CF2000F0CAF9002000F078
:10222000B7F9C12000F0B4F9302000F0B1F9ED2089
:1022300000F0BEF9642000F0ABF9032000F0A8F92B
:10224000122000F0A5F9812000F0A2F9E82000F0AA
:10225000AFF9852000F09CF9102000F099F97A2060
:1022600000F096F9CB2000F0A3F9392000F090F9A6
:102270002C2000F08DF9002000F08AF9342000F0C5
:1022800087F9022000F084F9F72000F091F920206E
:1022900000F07EF9EA2000F08BF9002000F078F9D8
:1022A000002000F075F9C02000F082F91B2000F03A
:1022B0006FF9C12000F07CF9012000F069F9C52018
:1022C00000F076F9302000F063F9302000F060F97A
:1022D000C72000F06DF9B72000F05AF9362000F061
:1022E00067F9482000F054F93A2000F061F95520D0
:1022F00000F04EF9B12000F05BF9002000F048F941
:102300001A2000F045F9B62000F052F90A2000F03A
:102310003FF9A22000F03CF9F22000F049F900203A
:1023200000F036F9262000F043F9012000F030F9E2
:10233000E02000F03DF90F2000F02AF92A2000F0FB
:1023400027F9282000F024F9082000F021F90E20B8
:1023500000F01EF9082000F01BF9542000F018F9D5
:10236000A92000F015F9432000F012F90A2000F02E
:102370000FF90F2000F00CF9002000F009F90020FF
:1023800000F006F9002000F003F9002000F000F949
:10239000E12000F00DF9002000F0FAF8152000F01F
:1023A000F7F8172000F0F4F8072000F0F1F81120FA
:1023B00000F0EEF8062000F0EBF82B2000F0E8F833
:1023C000562000F0E5F83C2000F0E2F8052000F08F
:1023D000DFF8102000F0DCF80F2000F0D9F83F20E3
:1023E00000F0D6F83F2000F0D3F80F2000F0D0F82E
:1023F0002B2000F0DDF8002000F0CAF8002000F0EB
:10240000C7F8012000F0C4F83F2000F0C1F82A20EE
:1024100000F0CEF8002000F0BBF8002000F0B8F883
:10242000002000F0B5F8EF2000F0B2F8112000F025
:10243000BFF878200CF000FB292000F0B9F800F07C
:1024400065F803490120C1F8940110BDC8090020B6
:10245000000022422DE9F047DFF850904FF088301D
:10246000C9F8000009F104052860104E00200C3660
:1024700030600F4C01202061870267614FF0040833
:10248000C4F8148002200AF02DFA281D0068C4F850
:10249000108080B227614FF03331C9F800102960F5
:1024A0004FF6FF713160BDE8F08700000018014071
:1024B0000010014070B5064C0825656164200CF0E1
:1024C000BBFA2561BDE8704032200CF0B5BA0000BF
:1024D0000010014070B50C4E05460C46B07A00F075
:1024E00067F8280A00F054F8E8B200F051F8307BA1
:1024F00000F05EF8200A00F04BF8E0B200F048F877
:10250000BDE8704000F064B8C809002008482C21DC
:10251000018100218171F02101804FF4A07141807F
:102520002A2141812B218181C921362000F056B812
:10253000C80900202DE9F041DFF8508007461C460D
:1025400015460E4698F80A0000F032F8380A00F0F6
:102550001FF8F8B200F01CF8280A00F019F8E8B2E9
:1025600000F016F898F80C0000F022F8300A00F09D
:102570000FF8F0B200F00CF8200A00F009F8E0B211
:1025800000F006F8BDE8F04100F022B8C8090020CC
:10259000054901220A610A154A61044B18600220AC
:1025A000486108610A617047001001400C18014041
:1025B000054901224A610A154A61044B186002204C
:1025C000486108610A617047001001400C18014021
:1025D0000148007AFFF7ECBFC809002010B50C468F
:1025E000FFF7E6FF2046BDE81040FFF7D1BF00002F
:1025F00030B50F23C27801780125F2B1144A126870
:1026000001F1E02102F4E062C2F5E062120AC2F1D7
:102610000404D3404278A24084781C401443220131
:1026200081F80024007800F01F018D4040098000EF
:1026300000F1E020C0F8005130BD01F01F008540DE
:102640004809800000F1E020C0F8805130BD000052
:102650000CED00E00907090E002806DA00F00F0073
:1026600000F1E02080F8141D704700F1E02080F8B0
:10267000001470472DE9F84300240121392000F0AF
:1026800029F94020ADF8000048258DF803500220BC
:102690005B4F8DF8020069463846FFF703F9402189
:1026A0003846FFF75EFB8020ADF8000010268DF85D
:1026B000036069463846FFF7F5F880213846FFF792
:1026C00050FBFF20ADF800008DF8035069464D48DF
:1026D000FFF7E8F87702DFF83081ADF800708DF889
:1026E000035069464046FFF7DDF839464046FFF79C
:1026F00038FBF702ADF800708DF80360694640467C
:10270000FFF7D0F839464046FFF72BFBB602ADF88D
:1027100000608DF8035069464046FFF7C3F8314624
:102720004046FFF71EFB39480026C0F89C61142084
:102730000CF082F9364DC5F8BC6114200CF07CF920
:102740000120C5F8BC0100F05FF90121FF2000F075
:1027500077FA8021122000F073FA64200CF06CF9F3
:102760001C2000F0D5F94FF6FF7707EA00261D2060
:1027700000F0CEF940EA0601A1F5FE40A23805D0EE
:1027800024A00AF06DF90120BDE8F8830A2000F0CA
:10279000BFF907EA00260B2000F0BAF940EA06016B
:1027A000A1F51850423804D01DA00AF059F90220B2
:1027B000EAE71E4E06EB4400417816F8140000F0DC
:1027C0003FFA641CA4B2B22CF4D34FF4FA700CF0AC
:1027D00033F900F05BF8A021F02000F029F808F0B0
:1027E0002CFE0020D5F834110129FBD0D5F8341186
:1027F0000029FBD0401C80B20A28F3D30020C3E795
:102800000010014000140140000C01400000224271
:10281000008021424D49443A25640D0A0000000021
:102820004849443A25640D0A00000000AF10010831
:1028300070B5820701D0012070BD8A0701D0022047
:1028400070BD84088D080021FF2000F0F9F90421F3
:10285000E02000F0F5F98921502000F0F1F9E1B213
:102860005A2000F0EDF9E9B25B2000F0E9F904210B
:10287000C4F3012001EA951101435C2000F0E0F966
:102880000021E02000F0DCF9002070BD10B500212F
:10289000FF2000F0D5F90121BDE81040DA2000F05A
:1028A000CFB90000044A0029D16901D0014300E0FA
:1028B0008143D1617047000000100240044A0029A2
:1028C000116901D0014300E08143116170470000AC
:1028D00000100240044A0029916901D0014300E040
:1028E000814391617047000000100240044A0029B2
:1028F000D16801D0014300E08143D16070470000FE
:102900000010024030B5334B5968334A11F00C01C6
:1029100003D0042901D0082901D0026027E05968BA
:102920002E4A11405A6811F0C04F02F4803405D18C
:10293000C1F383420F2A01D0022200E00122302598
:1029400005EA5165C1F383410D43511914B15A6829
:10295000920301D5224A00E01F4A514301605968A1
:10296000002904DB1F4902688A4200D901605968C6
:102970005A68C1F302111C4C120601D5615C00E0DB
:1029800000210268CA40426059685D68C1F30121B4
:102990006D0501D5615C00E0002122FA01F1816042
:1029A00059685D68C1F3C121AD0401D5615C00E0E7
:1029B0000021CA40C26059685B68C1F38131DB0005
:1029C00001D541F00401084B0833595CB2FBF1F129
:1029D000016130BD0010024000127A0000003C602E
:1029E00000093D0000A24A04FC030020054901281B
:1029F000486D03D020F030004865704740F030004B
:102A0000FAE700000010024038B501210820FFF766
:102A100061FF4FF48054ADF8004048208DF803006A
:102A20000220114D8DF8020069462846FEF73AFF54
:102A300021462846FFF795F9E410ADF80040102232
:102A40008DF8032069462846FEF72CFF21462846CC
:102A5000FFF787F9281D016821F4702101600168E2
:102A600041F44031016038BD000C014070B53220A6
:102A700009F038FF0A4C0120C4F8B001C4F8A401E1
:102A8000322004F5D27409F02DFF00252560322094
:102A900009F028FFE560BDE87040322009F022BF50
:102AA000008021422DE9F047174F0024386820F4B8
:102AB00070203860386840F400203860134E0825D4
:102AC0004FF00108A146322009F00CFFC6F8A4819E
:102AD0006006040ED6F8300108B1641CE4B232205E
:102AE00009F000FFC6F8A4916D1E15F0FF05EAD1AC
:102AF000386820F470203860386840F4403038601E
:102B00002046BDE8F0870000040C0140008021420F
:102B100010B5044600F022F8602000F04DF8642063
:102B200009F0E0FE204600F047F8642009F0DAFEE4
:102B300000F02AF8642009F0D5FE00F00FF86120BB
:102B400000F03AF8642009F0CDFEFFF7ABFF044631
:102B5000FFF78CFF00F018F8204610BD70B5094C47
:102B60000120C4F8B001C4F8A401322004F5D274E5
:102B700009F0B8FE0025E560322009F0B3FE2560BB
:102B800070BD00000080214270B50A4C0020C4F8DE
:102B9000B001322004F5D27409F0A4FE01252560AD
:102BA000322009F09FFEE560BDE87040322009F058
:102BB00099BE0000008021422DE9F04100241E4E04
:102BC0000546A0460127280602D5C6F8B07101E0E7
:102BD000C6F8B0816806050E322009F083FEC6F8FB
:102BE000A471322009F07EFEC6F8A481641CE4B210
:102BF000082CE8D3114C206820F470202060206855
:102C000040F400202060322009F06CFEC6F8A47168
:102C1000322009F067FED6F8300100B10120C6F875
:102C2000A481216821F470212160216841F44031A0
:102C30002160BDE8F081000000802142040C0140C9
:102C400070B50D4606460024FFF788FF6020FFF7A9
:102C5000B3FF00B10124642009F044FE3046FFF7C1
:102C6000ABFF00B10124642009F03CFE2846FFF7C9
:102C7000A3FF00B10124FFF787FF204670BD0029A4
:102C8000018802D041F4005101E021F4005101809B
:102C900070470029018802D041F0400101E021F095
:102CA0004001018070470246002012890A4200D08C
:102CB00001207047808970478181704730B5028854
:102CC0008B8902F441521B04838802D543F480733C
:102CD00001E023F4807383800B884C88CD882343E4
:102CE0008C882C4323430C8923434C8923438C89B0
:102CF000C4F30E042343CC89234313430380828B04
:102D000022F400628283098A018230BD1CB5002151
:102D1000284C00910191206840F4803020604FF4ED
:102D20004052206800F4003001900098401C009050
:102D3000019810B900989042F3D12068800337D5EC
:102D40000120019060686060606820F460506060FD
:102D5000606840F420506060606820F4E06060606B
:102D6000606840F48060606060681349084060609B
:102D70006068124908436060206840F080702060FD
:102D800020688001FCD50120FFF730FE606820F04C
:102D900003006060606840F0020060606068C0F33B
:102DA00081000228FAD1BDE81C400020FFF71EBEBA
:102DB00001911CBD00100240FFFFC01F000035A0A4
:102DC00010B509F0D7FD0CF029F8BDE8104009F066
:102DD000EFBD000070B50E484FF47A714FF0FF352B
:102DE0000068B0FBF1F1491EB1F1807F0AD24FF0CB
:102DF000E02461610F212846FFF72CFC0020A06130
:102E0000072020612846BDE870400021FFF722BC62
:102E100044010020144810B5016841F470010160BC
:102E20001248016841F0010101604168104A1140F7
:102E3000416001680F4A11400160016821F480215E
:102E4000016041680C4A11404160016B0B4A11401E
:102E500001634FF41F018160FFF758FF02494FF0F3
:102E600000608039086010BD88ED00E0001002406D
:102E70000C00FFE8FFFFF6FEFFFF001700FFFEFE5D
:102E800010B509F077FD03480CF0F2FEBDE81040E4
:102E900009F08EBD28020020C943018070470A0A4C
:102EA00001219140C943018070470029818902D0E6
:102EB00041F4005101E021F4005181817047024644
:102EC000002012880A4200D00120704770B501F03E
:102ED0001F0501260024C1F3421306FA05F2012B57
:102EE0000FD0022B0FD0838A4FEA112100881342A2
:102EF00006FA01F600EA060001D000B101242046DE
:102F000070BD8389F0E7038AEEE710B5C1F3421381
:102F100001F01F040121A140012B07D0022B07D093
:102F20001430002A026805D00A4304E00C30F8E7A8
:102F30001030F6E78A43026010BD000030B5044649
:102F4000008A85B00D464CF6FF710840E9880143C0
:102F50002182A0894EF6F3110840A9882A891143DD
:102F60006A8902431143A181A08A4FF6FF410840BC
:102F7000A9890143A1826846FFF7C4FC194884422D
:102F800001D1039800E00298A189090400EBC00177
:102F900001EB0010296801D5490000E08900B0FB71
:102FA000F1F06422B0FBF2F109010B096FF0180592
:102FB0006B4300EB8300A3891D044FF0320306D559
:102FC00003EBC000B0FBF2F000F0070005E003EBFC
:102FD0000010B0FBF2F000F00F000843208105B0B4
:102FE00030BD0000003801408088C0F30800704701
:102FF000174910B588420AD101218C032046FFF7FA
:1030000075FC2046BDE810400021FFF76FBC114958
:10301000884202D101214C0410E00F49884202D1BC
:1030200001218C040AE00D49884202D10121CC041F
:1030300004E00B4988420AD101210C052046FFF724
:103040003DFC2046BDE810400021FFF737BC10BD15
:10305000003801400044004000480040004C00405F
:1030600000500040C1F30801818070474FF41651B1
:10307000016000218180C18001810C224281818117
:10308000704703B401984100009850EAC12018BF6E
:1030900004204A0D18BF40F0010040F2FF72B2EB6D
:1030A000515F08BF40F00200012808BF052002B0B0
:1030B000704700000000000010B52F499FED2C1B49
:1030C0002DED020B84B0059820F000408842D8BF57
:1030D0009DED040B2DDD2949884209D1049840B9A2
:1030E0004FF00100FDF7B3FC00F066FD06B010BD27
:1030F00005DB9DED040B00F053FD06B010BD6846E6
:103100009DED040B00F050F910F0030004BF9DED9D
:10311000021B9DED000B0CD001280ED09DED021B73
:103120009DED000B022817D0012000F0A1FC06B095
:1031300010BD00F069FB06B010BD9DED021B9DEDBA
:10314000000B012000F094FC51EC100B0CF0D4FEAD
:1031500006B041EC100B10BD00F056FB51EC100B0B
:103160000CF0CAFE06B041EC100B10BD00000000D0
:103170000000000000000000FB21E93F0000F07F9C
:1031800010B52DED020B2DED088B84B09DED0C0BD1
:1031900051EC100B0DF0C0FA41EC180B9DED0C0B2F
:1031A00053EC182B51EC100B0DF0E8FB41EC190B14
:1031B0000D989FED290B10F0004F53EC102B51ECA4
:1031C000190B9FED21AB9FED22BB0ED00DF034F912
:1031D0000ED953EC1B2B51EC190B0DF067FA1CD2D6
:1031E00014E000BF41EC180B17E00DF025F906D2F2
:1031F00053EC1A2B51EC180B0DF0C0FBF2E753EC1B
:103200001B2B51EC190B0DF051FA06D853EC1A2B6D
:1032100051EC180B0CF07CFEE4E78DED028B9DED7C
:103220000C0B18EE901A10EE900A8DED000B61F366
:103230001E0003909DED020B04B0BDEC088B02B0A4
:1032400010BD000000000000000000000000F03F82
:10325000000000000000E03F000000000000E0BFB0
:1032600010B52F499FED2C1B2DED020B84B0059856
:1032700020F000408842DCBF00209DED040B32DDD1
:103280002849884209D1049840B94FF00100FDF760
:10329000DEFB00F091FC06B010BD05DB9DED040BDC
:1032A00000F07EFC06B010BD68469DED040B00F0FA
:1032B0007BF810F0030011D0012818D09DED021BFF
:1032C0009DED000B02281AD000F09EFA51EC100B75
:1032D0000CF012FE06B041EC100B10BD9DED021B70
:1032E0009DED000B012000F0C3FB06B010BD9DED6D
:1032F000021B9DED000B00F087FA06B010BD012007
:1033000000F0B6FB51EC100B0CF0F6FD06B041ECF2
:10331000100B10BD000000000000000000000000C5
:10332000FB21E93F0000F07F00B52DED048BB0EEEE
:10333000409AF0EE609A83B051EC190B0DF052FAFE
:1033400041EC180B18EE100A18EE901A8DED008B58
:10335000002818BF0120084320F00040C0F17F6022
:1033600000F1E040C00F14D019EE101A19EE900AC7
:103370008DED009B002918BF0121084320F000407B
:10338000C0F17F6000F1E040C00F04BF0120FDF7F5
:103390005EFBB0EE480A03B0F0EE680ABDEC048BA9
:1033A00000BD0000000000002DE9F14F04462DEDA6
:1033B000020B2DED088B8AB09FEDE70B80ED020B21
:1033C000139EE74826F0004585420ADC9DED120B6E
:1033D000002084ED000B0AB0BDEC088B03B0BDE803
:1033E000F08FE0489FEDE0AB9FEDE1BBA84247DDE9
:1033F000E14F9FEDE39B9FEDE48B9DED120B53ECB2
:103400001A2B51EC100B002E1CDD0DF0B7FA41EC1D
:10341000100BBD4208D053EC1B2B51EC100B0DF0E0
:10342000ADFAC4E900010BE053EC192B51EC100B81
:103430000DF0A4FA53EC182B0DF0A0FAC4E900012A
:103440000120C8E70CF064FD41EC100BBD4208D030
:1034500053EC1B2B51EC100B0CF05AFDC4E900018E
:103460000BE053EC192B51EC100B0CF051FD53EC0D
:10347000182B0CF04DFDC4E900014FF0FF30AAE716
:10348000C348A84279DB9DED120B51EC100B05F0FF
:10349000D9FA41EC180B9FEDC00B53EC102B0DF03B
:1034A00007F89FEDBF1B53EC112B0CF031FD0CF016
:1034B0003BFF07460CF095FF41EC190B53EC1A2B20
:1034C0000CF0F6FF53EC182B0DF080F941EC180BC3
:1034D00053EC1B2B51EC190B0CF0EAFFDFF8C8A2E0
:1034E00041EC100B4FEA15580125FA4453EC102B10
:1034F00051EC180B0DF042FA032DC4E900013DD048
:10350000C1F30A5005EB4511A8EB000011398142C7
:1035100034DA0AEB051BB0EE48AA9BED000BF0EE87
:1035200068AA53EC102B51EC190B0CF0C1FF41ECC5
:103530001B0B51EC1A0B53EC1B2B0DF01FFA41EC3B
:10354000180B51EC1A0B53EC182B0DF017FA53EC27
:103550001B2B0DF013FA9BED020B41EC1A0B53ECF5
:10356000102B51EC190B0CF0A3FF53EC1A2B0DF0A0
:1035700005FA41EC100B6D1CB8E70EE0002EA8BF59
:103580003846BFF628AF94ED000B51EC100B0CF051
:10359000B3FCC4E9000178421DE7C6F3130040F410
:1035A000801EC6F30A50A0F2F530471100F01F0547
:1035B000C5F12000DDF848B0089000200690079083
:1035C0000520EC467949002D07EB0002794408BF3D
:1035D00051F8221009D051F8223001EB8201AB40A2
:1035E0004A68089922FA01F11943A1FB0E26A1FBB2
:1035F0000B131A449A4234BF0123002303EB06083D
:103600000CEB8003D3E901A60E448E4234BF0121A6
:10361000002192448A4411B1924502D903E09245B7
:1036200001D2012100E00021C3E901A641444CF888
:103630002010011EA0F10100C4DC029800F100502E
:10364000850F0298DDE903678000DDF814800CF037
:10365000C8FE41EC1A0B30460CF0DAFE9FED541B0D
:1036600053EC112B0CF024FF41EC1B0B38460CF0F3
:10367000CFFE9FED511B53EC112B0CF019FF41ECC9
:10368000180B40460CF0C4FE9FED4D1B53EC112B64
:103690000CF00EFF41EC190B51EC180B53EC192BED
:1036A0000CF036FC53EC1B2B0CF032FC53EC1A2BB9
:1036B0000CF02EFCCDE90801002008909DED080BD0
:1036C00053EC1A2B51EC100B0DF058F953EC1B2B4B
:1036D0000DF054F953EC182B0DF050F953EC192B55
:1036E0000DF074F89FED381B53EC112B0CF0E0FE3D
:1036F0009FED370B41EC180B53EC102B9DED080B95
:1037000051EC100B0CF0D4FE53EC182B0CF000FC19
:103710009FED310B41EC180B53EC102B9DED080B7A
:1037200051EC100B0CF0C4FE53EC182B0CF0F0FB1A
:1037300041EC100B139810F0004F06D06D4251EC85
:10374000100B0CF0D9FB41EC100B284684ED000B5C
:1037500041E6000000000000000000000000000042
:10376000FB21E93F7CD9024000004054FB21F93F96
:103770003163621A61B4D03DFB21F93F00000000C3
:103780000000601A61B4D03D7370032E8A19A33B08
:10379000FB2139410000000083C8C96D305FE43F60
:1037A000000000000000E03FB2EF000000EF00006A
:1037B000000000000000103E000000000000103C6F
:1037C000000000000000103A182D4454FB21F93D80
:1037D0003326A611460B113C00000054FB21F93D95
:1037E00081070CD1642190FBF1F201FB120141B978
:1037F0004FF4C87190FBF1F201FB120008B10020F8
:10380000704701207047000010B52DED040B2DED21
:10381000088B82B0B0EE419AF0EE619A0B9820F0DE
:1038200000449FED4BABB4F1795F11DA9DED0A0BCB
:1038300051EC100B0CF078FD002801BFB0EE4A0AE5
:10384000F0EE6A0A02B0BDEC088B04BF04B010BDF4
:103850009DED0A0B53EC102B51EC100B0CF028FED5
:1038600041EC180B3C480621B0EE480AF0EE680A1D
:10387000784400F081F853EC182B51EC100B0CF04D
:1038800017FE9DED0A0B41EC1B0B53EC192B51EC71
:10389000100B0CF00DFE41EC190B53EC1B2B51ECF3
:1038A000180B0CF005FE53EC192B0DF067F89FED8B
:1038B0002C0B41EC190B53EC102B51EC180B0CF0AA
:1038C000F7FD41EC100B2848844210DA53EC192B19
:1038D00051EC100B0DF052F853EC1A2B0CF076FF54
:1038E00041EC100B02B0BDEC088B04B010BD1F48BA
:1038F000A042BCBF9FED1E1B8DED001B06DBA4F597
:1039000000100190002000909DED001B51EC100B69
:1039100053EC112B0DF032F89DED000B41EC180B20
:1039200053EC102B51EC1A0B0DF028F841EC1A0B4C
:1039300053EC192B51EC180B0DF020F853EC1A2B0B
:103940000CF044FF41EC100BCCE70000000000003D
:10395000000000000000F03FFCEB00000000000051
:10396000000000000000E03F3333D33F0000E93F98
:10397000000000000000D23F70B504462DED028B20
:103980004D1E00EBC500B0EE408AF0EE608A90ED6F
:10399000000B35F0060017D053EC182B51EC100B30
:1039A0000CF086FD41EC100B6D1E04EBC50090ED94
:1039B000001B51EC100B53EC112B0CF0A9FA41EC4D
:1039C000100B35F00600E7D1022D36D0042D1CD0A7
:1039D000062D1CBFBDEC028B70BD53EC182B51ECB7
:1039E000100B0CF065FD94ED0A1B53EC112B0CF041
:1039F0008FFA53EC182B0CF05BFD94ED081B53EC85
:103A0000112B0CF085FA41EC100B53EC182B51ECF8
:103A1000100B0CF04DFD94ED061B53EC112B0CF02C
:103A200077FA53EC182B0CF043FD94ED040B53EC98
:103A3000102B0CF06DFA41EC100B53EC182B51ECE1
:103A4000100B0CF035FD94ED021B53EC112B0CF018
:103A50005FFA53EC182B0CF02BFD94ED001B53EC8C
:103A6000112B0CF055FABDEC028B41EC100B70BD24
:103A700031B504462DED040B2DED0A8BB0EE41BAA5
:103A8000F0EE61BA0B989DED0A0B20F00040B0F10A
:103A9000795F0DDA51EC100BFFF7F3FA042808BF39
:103AA00000F09AF89DED0A0BBDEC0A8B05B030BD15
:103AB00053EC102B51EC100B0CF0FAFC41EC180BF2
:103AC0009DED0A0B53EC182B51EC100B0CF0F0FC95
:103AD00041EC190B2C48B0EE480AF0EE680A0521BB
:103AE0007844FFF749FF9FED2ACBB0EE40AAF0EEF5
:103AF00060AA9CB353EC1C2B51EC190B0CF0D8FCB6
:103B000041EC1C0B53EC1A2B51EC190B0CF0D0FCB4
:103B10009FED210B41EC190B53EC102B51EC1B0BBF
:103B20000CF0C6FC53EC192B0CF028FF53EC182BAF
:103B30000CF0BEFC53EC1B2B0CF020FF53EC1C2BA9
:103B40000CF01CFF9DED0A1B53EC112B0CF03EFEFC
:103B5000BDEC0A8B05B041EC100B30BDFFE753EC18
:103B60001A2B51EC180B0CF0A3FC53EC1C2B0CF093
:103B7000CFF953EC192B0CF09BFC9DED0A1B53EC79
:103B8000112B0CF0C5F9E3E784EA00000000000007
:103B9000495555555555C5BF000000000000E03F90
:103BA00010B553EC102B51EC100B0CF0B1F941ECAB
:103BB000100B10BD000000009FED050B10B553EC7D
:103BC000102B51EC100B0CF057FA41EC100B10BD00
:103BD00000000000000000009FED050B10B553EC45
:103BE000102B51EC100B0CF063FC41EC100B10BDD2
:103BF00000000000000000100020704710B50446CF
:103C000005484068FCF732FB0449401E51F830106B
:103C10002060A1F1140010BDF00000204806002033
:103C200010B504462F21FCF7E6FC08B1401C10BD7E
:103C3000204610BD03480168814201D00120704731
:103C400000207047000100202DE9F04F8BB0914615
:103C50008A4605004FF0000605D14FF49B722649B5
:103C600026A007F0ABFEB9F1000F07D140F23712E2
:103C7000214923A007F0A2FE00E0761CA85D2028C1
:103C800003D0092801D05645F7D37EB31E48B0466D
:103C90000027B61DDFF874B0046810E006221CA1EE
:103CA0002068FCF7D2FC48B9206842462946801DAE
:103CB000FCF7CBFC10B92068805DC0B10C34DBF898
:103CC00000008442EAD38FB128216846FCF7ADFD9D
:103CD0006A465146284607F0DDFA38B16946B847CA
:103CE000C9F8000000200BB0BDE8F08F01E0A76824
:103CF000E9E74FF0FF30F6E7CC230108636D64007D
:103D00007265747000000000E0030020E4030020EE
:103D10005F5F636D645F000070B51446050004D1F9
:103D20003722084908A007F049FE3CB1286D628897
:103D30002188036828469847002070BD4FF0FF3067
:103D400070BD00002920010870696E20213D2052BD
:103D5000545F4E554C4C000070B51E46144605008D
:103D600004D11822084909A007F028FE0CB1042E3E
:103D700001D0002070BD286D2188826828469047B8
:103D80006080304670BD00001420010870696E200C
:103D9000213D2052545F4E554C4C000070B51E46DC
:103DA0001446050004D12722084909A007F006FEA1
:103DB0000CB1042E01D0002070BD286D62882188CE
:103DC00044682846A047304670BD00001E20010808
:103DD00070696E20213D2052545F4E554C4C0000BE
:103DE00010B5040004D15322114912A007F0E6FDDA
:103DF000A06A0178232906D1E169814203D9E26AE8
:103E000002448A420AD221460FA008F029FE06F099
:103E100039FCFCF753FA0028FDD110BD2030814257
:103E2000FBD82146BDE810400EA008F019BE0000E6
:103E3000360F010874687265616420213D20525478
:103E40005F4E554C4C0000007468726561643A2501
:103E50007320737461636B206F766572666C6F7725
:103E60000A0000007761726E696E673A2025732040
:103E7000737461636B20697320636C6F7365207466
:103E80006F20656E64206F6620737461636B2061C0
:103E90006464726573732E0A000000002DE9FC4112
:103EA000194617460446DDE90832DDE90A65143093
:103EB000406000602762E262C4E9091323211846CA
:103EC00008F080FFD4E90A014218D4E90801154B33
:103ED000121F08F0E9FCE061202E04D3972212495A
:103EE00012A007F06BFD84F8366084F8356000207E
:103EF0006564A063A564206384F83400A067E0676C
:103F0000009023460190124A194604F14C000BF030
:103F1000A7F81048816809B1204688470020BDE80D
:103F2000FC81000019E80008840F01087072696FB5
:103F300072697479203C2052545F54485245414480
:103F40005F5052494F524954595F4D41580000004B
:103F5000E9EC00080801002010B5029C24F00104DF
:103F60004472C0E907120021C0E9093100EBC10227
:103F70001432491C526012600129F7DB10BD10B5E4
:103F8000002200EBC201521CF1E90534012A5C60F9
:103F9000D1E90034236049600960F2DB10BD000004
:103FA0002DE9F04715460E46070005D14FF4837200
:103FB0001D491E4807F002FDFC6DAA464FF000099E
:103FC00064BB4FF485721849194807F0F7FC25E0E7
:103FD000FCF774F90146E088A288904201D1A268FA
:103FE00082B1226812F80080401C80B2E080BA6D75
:103FF000C2F38F22904201D3A4F80690A068012852
:1040000004D005E00846FCF75DF909E0C4F8089023
:104010000846FCF757F906F8018B6D1E002DD7D125
:10402000AAEB0500BDE8F087FA20010850E000087F
:1040300028DE00080020704770B51D4616460400B3
:1040400004D1162209490AA007F0B8FCE06F20B994
:10405000172206490AA007F0B1FC2B463246E06F52
:10406000BDE8704000210AF061B900005E2201083D
:1040700062757320213D2052545F4E554C4C000018
:104080006275732D3E6F776E657220213D2052540C
:104090005F4E554C4C00000070B51E46154604009E
:1040A00004D1242209490AA007F088FCE06F20B956
:1040B000252206490AA007F081FC33462946E06F15
:1040C000BDE8704000220AF031B9000073220108F7
:1040D00062757320213D2052545F4E554C4C0000B8
:1040E0006275732D3E6F776E657220213D205254AC
:1040F0005F4E554C4C000000022801DC0020704748
:1041000000F006BDFEE700B591B0022803DA4FF0DB
:10411000FF3011B000BD694605F000FA0598F8E7D8
:10412000022801D8012070470020704770B50D4665
:10413000064600241B49FCF7CBFB002815D0194983
:104140003046891DFCF7C4FB70B1164930460D316D
:10415000FCF7BEFB50B1A8074FEA45700FD5002809
:1041600006DA40F2422413E0012070BD022070BD47
:10417000280702D540F242440AE0022408E0002861
:1041800002DA40F2412403E0280701D540F241441D
:1041900000222146304607F0F1F80028E7DA4FF018
:1041A000FF3070BDDA23010870B514460B4658B1D4
:1041B0004FF0FF3501280CD002280AD007F007FB8A
:1041C000002806DB201A70BD1146184605F01EFCBB
:1041D000F8E7284670BD022802DA4FF0FF3070473A
:1041E000002206F063BC70B514460B4601280AD0C5
:1041F000022808D04FF0FF3550B10BF0C1FD002868
:1042000006DB201A70BD1146184605F043FCF8E79E
:10421000284670BD08B58DF80000684608F020FCFF
:1042200008BD00007FB5C46C0D4620B93F222B4964
:104230002BA007F0C3FB25B9402228492DA007F089
:10424000BDFB24B9422225492EA007F0B7FB6068C8
:1042500000F048F96846FEF709FF6068FEF7C8FEFF
:104260002868009000200C21ADF80C00ADF80A1071
:10427000297901F00F01082901D0092902D0ADF8F0
:10428000040003E04FF48051ADF804102979C1F324
:10429000011109B1012902D0ADF8060003E04FF485
:1042A0000051ADF806102979C1F3811119B1012926
:1042B0000ED002290FD0ADF8080069466068FEF7FD
:1042C0003DFE01216068FEF7F0FD04B0002070BDE6
:1042D0004FF4C060EFE74FF48060ECE74C19010841
:1042E00073657269616C20213D2052545F4E554CBC
:1042F0004C00000063666720213D2052545F4E55FC
:104300004C4C000075736172745F696E7374616EFA
:10431000636520213D2052545F4E554C4C000000F7
:10432000F8B50D46040004D18022174917A007F004
:1043300045FBE46C24B98222134919A007F03EFB27
:10434000207A8DF8000002208DF8010001208DF800
:10435000020040F22556102D0AD0112D12D1002056
:104360008DF803006846FEF743F90022606806E016
:104370008DF803006846FEF73BF96068012231467C
:10438000FEF7C3FD0020F8BD5B1901087365726973
:10439000616C20213D2052545F4E554C4C00000072
:1043A000757361727420213D2052545F4E554C4C00
:1043B0000000000070B5040004D1A9220B490CA034
:1043C00007F0FCFAE46C24B9AB2208490DA007F011
:1043D000F5FA4FF0FF3520216068FEF770FD18B147
:1043E0006068FEF701FEC5B2284670BD721901086B
:1043F00073657269616C20213D2052545F4E554CAB
:104400004C000000757361727420213D2052545F8E
:104410004E554C4C000000002DE9F8430446684618
:10442000FDF7A1FC02208DF802002A480426102581
:1044300018274FF48058844223D101214046FEF7CB
:1044400049FA01210420FEF745FADFF88C908DF837
:104450000350ADF8005069464846FDF723FA8DF841
:104460000370A020ADF8000069464846FDF71AFA2F
:104470008DF803604020ADF8000069464846FDF71E
:1044800011FA1648844223D1041401212046FEF774
:1044900009FA01210820FEF71DFA8DF80350104D8E
:1044A000ADF8008069462846FDF7FCF98DF80370E9
:1044B0004FF42040ADF8000069462846FDF7F2F9B8
:1044C0008DF80360ADF8004069462846FDF7EAF92B
:1044D000BDE8F8830030014000080140003800408A
:1044E000000C014038B504466846FDF73CFC02204C
:1044F0008DF80200104884421CD101218803FEF788
:10450000E9F901210420FEF7E5F918208DF80300F0
:1045100060150A4CADF8000069462046FDF7C2F967
:1045200004218DF803100902ADF8001069462046F9
:10453000FDF7B8F938BD000000380140000801401F
:104540002DE9F0411F4616460D46C8B2DDF8188029
:1045500005F06CF930B1806800F08EF9040001D4E8
:10456000102C02D30620BDE8F081FBF7A7FE014620
:1045700004EB4400134C34F92030AB4212D104EB6D
:104580008002D2F804C0BC450CD1B2F802C0B445D8
:1045900008D1D2F808C0C44504D10846FBF792FE02
:1045A0000020E0E75B1C04D00846FBF78BFE0720E9
:1045B000D9E724F8205004EB800047604680C0F81B
:1045C0000880EAE75C01002070B54FF0FF35C8B203
:1045D00005F02CF930B1806800F04EF9040001D4E8
:1045E000102C01D3062070BDFBF768FE01460A4B74
:1045F00004EB440033F92020521C07D023F820504C
:1046000003EB800000224260428082600846FBF794
:1046100059FE002070BD00005C0100202DE9FF5F05
:104620001546C8B205F002F9040041D0DFF8489100
:104630000026DFF848B1012D05D0002D60D0B01F55
:1046400004B0BDE8F09FA06800F016F905007ED424
:10465000102D7CD2FBF732FEDFF820A105EB4507D9
:104660000AF1040A80463AF92700401C1DD009EBE4
:1046700047056846FDF777FB02A8FDF701F8288893
:10468000ADF80000029002218DF80C604FF0010996
:104690000AEB87008DF802108DF80E90408840B12B
:1046A000012808D0022809D128E04046FBF70AFE7D
:1046B0004DE0082000E00C208DF80D006946606890
:1046C000FDF7F0F8217C207BFDF7BEF802A8FCF78F
:1046D0009FFF28798DF804008DF8079005208DF84C
:1046E00005008DF8066001A8FDF782FF2988DBF838
:1046F000002040461143CBF8001039E01020DBE7E2
:10470000806800F0B9F8002801DB102801D3344696
:1047100003E000EB400109EB4104C4B1FBF7CEFD1F
:104720002288DBF8001005469143CBF800108DF885
:10473000076005208DF805008DF806602088A0F13F
:104740002002B2F5F07F04D801F4787008E006206A
:1047500076E7A0F58060B0F5F84F02D801F47C4010
:1047600010B920798DF8040001A8FDF741FF284613
:10477000FBF7A8FD002063E7B818010858010020E6
:1047800038B51446C8B205F051F8050022D0684685
:10479000FDF7E9FA2889ADF8000010208DF8030034
:1047A00002218DF802107CB1012C06D0022C06D01B
:1047B000032C06D0042C06D008E0042004E0482096
:1047C00002E0282000E014208DF8030069466868A4
:1047D000FDF768F838BD10B50024C8B205F026F81A
:1047E00030B101894068BDE8104089B2FDF7B0BA28
:1047F000204610BD10B51446C8B205F017F80028C1
:1048000007D00189E2B24068BDE8104089B2FDF7E7
:10481000B2BA10BD70B50D46040004D19B220B49FD
:104820000BA007F0CBF8E46C24B99D2207490DA03A
:1048300007F0C4F829466068FEF714FC8021606820
:10484000FEF73DFB0028F9D0012070BD6819010872
:1048500073657269616C20213D2052545F4E554C46
:104860004C000000757361727420213D2052545F2A
:104870004E554C4C0000000002460020012303FA74
:1048800000F1914204D0401C2028F8DB4FF0FF30AB
:104890007047000010B51BA008F0E2F81C4C21780E
:1048A0001CA008F0DDF82078C00702D01FA008F097
:1048B000D7F82078800702D51FA008F0D1F820781B
:1048C000400702D51FA008F0CBF82078000702D5DA
:1048D00020A008F0C5F82078C00602D520A008F076
:1048E000BFF82078000607D509480F300168BDE8F9
:1048F00010401DA008F0B4B8BDE810401EA008F09C
:10490000AFB80000627573206661756C743A0A0076
:1049100029ED00E05343425F434653525F42465302
:10492000523A307825303258200000004942555321
:104930004552522000000000505245434953455211
:1049400052200000494D5052454349534552522090
:1049500000000000554E53544B45525220000000B9
:1049600053544B45525220005343422D3E42464140
:10497000523A253038580A000A00000010B50446A3
:10498000014696B000220F4801F026FE002805DA05
:1049900021460DA008F064F816B010BD54216846F9
:1049A000FBF743FF50226946064801F075FE20B12F
:1049B000694609A008F054F8F0E7024801F0D6FD76
:1049C000EAE70000240B00204F70656E202573205D
:1049D0006661696C65640A00257300002DE9F04189
:1049E000040023D0FBF712FE6FF01A074FF4807615
:1049F0007D11B04221D82146002002F099F904002F
:104A00001BD002F00DF8204606F0DEFCC8B100F025
:104A10009BF8324621460E48FBF72EFF204607F052
:104A200023FC02F0A7FA0020BDE8F08101F0F8FFB6
:104A3000074908A008F014F8F3E7384609F080FBAE
:104A400004E0204607F010FC02F094FA2846EBE759
:104A5000C802002025730A0010B504460020E0704B
:104A6000401E6063204606F0D9F908B1042010BD4D
:104A700004F2362004F0BEFFA0F52A41553901D0DA
:104A8000032010BD94F83800E92805D0EB2814D194
:104A900094F83A00902810D104F16E0004F09FFFC2
:104AA0000749B1EB002F06D004F18A0004F097FF0C
:104AB0000449884201D1002010BD022010BD000031
:104AC000004641544641543300E0401C02780AB18C
:104AD0008A42FAD1D0B2704710B502A007F0C0FFE9
:104AE000002010BD1B5B324A1B5B48000368826AD2
:104AF000480A5989B0FBF1F0121D02CA19B1884267
:104B000003D3401AF8E70020704711680844704743
:104B100070B503F0DBFF04004FF0FF350CD001F05F
:104B200025FD0646204604F097F8002E07DA3046A9
:104B300009F006FB284670BD6FF00F00F8E720462D
:104B400004F08AF8002070BD2DE9F04106460068A7
:104B500003F0BCFF04004FF0FF3713D001F006FD57
:104B60000546204604F078F8204604F075F83046F3
:104B700007F07AFB002D08DA284609F0E1FA3846FA
:104B8000BDE8F0816FF00F00F7E70020F8E7C26999
:104B9000891E921E8A4201D800207047026B40890C
:104BA00001FB00207047000070B50E460546012845
:104BB00001D001240BE008A007F052FF0CA007F081
:104BC0004FFF06E056F82400FFF7D8FE641CAC4205
:104BD000F8DB002070BD000055736167653A206303
:104BE0006174205B46494C455D2E2E2E0A00000064
:104BF000436F6E636174656E6174652046494C4510
:104C00002873290A0000000010B50C46012802D0C4
:104C1000022803D00AE0064906A005E06068FFF715
:104C2000DDFE18B104A0616807F01AFF002010BD76
:104C3000C802002025730A004E6F20737563682038
:104C40006469726563746F72793A2025730A000093
:104C500010B5032806D007A007F002FF0BA007F04D
:104C6000FFFE04E0D1E90102114600F0E3FA002062
:104C700010BD000055736167653A20637020534F83
:104C80005552434520444553540A0000436F707900
:104C900020534F5552434520746F20444553542EA2
:104CA0000A00000010B50C46022801D00AA00AE054
:104CB0000AA16068FBF70CFE48B10AA16068FBF727
:104CC00007FE20B1606800F0A3FD002010BD06A023
:104CD00007F0C6FEF9E700002F0000002D2D6865E3
:104CE0006C7000002D6800006466205B7061746861
:104CF0005D0A000070B50C46022806D0032807D0D4
:104D000010A007F0ADFE002070BD496816A015E0A8
:104D1000002240F24241A06806F030FB05000BD4AF
:104D20006068FBF773FC0246284661680BF028F8C0
:104D30002846FFF7EDFEE6E70CA0A16807F090FE1D
:104D4000E1E7000055736167653A206563686F208D
:104D500022737472696E6722205B66696C656E618E
:104D60006D655D0A0000000025730A006F70656EB6
:104D70002066696C653A2573206661696C656421FB
:104D80000A00000010B505F073F9002010BD000006
:104D900010B5012804D0486805F0FCFD002010BDC6
:104DA0000048F9E7C802002010B5012805D048687E
:104DB000002105F05FFF002010BD03A007F050FEAA
:104DC0000AA007F04DFEF6E755736167653A206D5E
:104DD0006B646972205B4F5054494F4E5D204449CB
:104DE000524543544F52590A000000004372656116
:104DF000746520746865204449524543544F5259A4
:104E00002C206966207468657920646F206E6F7449
:104E100020616C72656164792065786973742E0A0B
:104E20000000000010B50C460DA2022805D0042891
:104E300006D00CA007F014FE10E04968104606E00A
:104E400010A16068FBF744FD40B9D4E9020101F00C
:104E500001FE010002D00CA007F002FE002010BDF0
:104E6000656C6D0055736167653A206D6B667320E4
:104E70005B2D7420747970655D2064657669636567
:104E80000A0000002D7400006D6B66732066616976
:104E90006C65642C20726573756C743D25640A0022
:104EA00038B50C46032806D028A007F0D9FD2DA060
:104EB00007F0D6FD47E0D4E9011238A007F0D0FD95
:104EC00000224FF48031A06806F058FA002822DB57
:104ED000FFF71EFE4FF4807007F03AFE050006D083
:104EE000606809F0A8FA01466068014409E02EA054
:104EF00007F0B6FD6FF0040038BD0A782F2A02D003
:104F0000491E8842F9D100912BA2FF212846A368AF
:104F100009F07EF90CE000221146A06806F02EFA96
:104F2000002804DBFFF7F4FDA0680AF020FEA56866
:104F30006068294606F0DAFC2DB1A068A84202D0CC
:104F4000284607F091F9002038BD000055736167CD
:104F5000653A206D7620534F5552434520444553C2
:104F6000540A000052656E616D6520534F555243DF
:104F70004520746F20444553542C206F72206D6F70
:104F8000766520534F5552434528732920746F206E
:104F90004449524543544F52592E0A002573203D2F
:104FA0003E2025730A0000006F7574206F66206D27
:104FB000656D6F72790A000025732F25730000005C
:104FC00010B505F05FFB002010BD000010B50349CF
:104FD00003A007F045FD002010BD0000C80200201E
:104FE00025730A0070B50E460546012801D001243C
:104FF0000BE008A007F034FD0BA007F031FD06E040
:1050000056F824000AF0B3FD641CAC42F8DB002023
:1050100070BD000055736167653A20726D20464986
:105020004C452E2E2E0A000052656D6F76652028A5
:10503000756E6C696E6B29207468652046494C4515
:105040002873292E0A0000002DE9F05F814688466A
:1050500001F11A0004F0CEFC88BB98F8000001278B
:1050600000F03F00401E00EB8001DFF85CA001EB88
:10507000C00400254FF6FF7B1AF8051001EB08006D
:1050800004F0B8FC06466FB1FF2C18D203F060FEA6
:10509000074639F81400641C03F05AFE87420ED10B
:1050A000374601E05E450AD16D1C0D2DE4D398F81A
:1050B0000000400606D52FB139F8140010B10020C9
:1050C000BDE8F09F0120FBE73C1C0108F0B50E464F
:1050D000016D8BB0CD6C20B95922484948A006F02B
:1050E0006DFC26B95A2245494AA006F067FC28689B
:1050F0000068FFF791F970780027082802D8ADF80A
:10510000047005E010280ED84FF40060ADF80400DC
:1051100005A87468FDF7F6FB2868454900688842D1
:1051200004D1089803E008200BB0F0BD0798B4EB59
:10513000500F02D3ADF80C7020E0B4EB900F01D308
:10514000082019E0B4EBD00F01D3102014E0B4EB29
:10515000101F01D318200FE0B4EB501F01D3202003
:105160000AE0B4EB901F01D3282005E0B4EBD01F78
:1051700001D3302000E03820ADF80C00307810F07A
:10518000030008D00121012808D0022202280AD0F9
:1051900003280FD10AE0ADF8087001E0ADF808105F
:1051A000ADF8067006E0ADF8087001E0ADF8081043
:1051B000ADF806203078400702D5ADF80E7002E059
:1051C0008020ADF80E00ADF800704FF48270ADF89D
:1051D00002004FF40070ADF80A00286869460068C4
:1051E000FDF76CFD286801210068FDF752FD286875
:1051F00000210068FDF743FD002095E7B419010880
:1052000064657669636520213D2052545F4E554C9C
:105210004C000000636F6E66696775726174696F38
:105220006E20213D2052545F4E554C4C0000000032
:1052300000300140F0B591B00E460546694601F0D8
:1052400083FA002805DA294631A007F009FC11B0DD
:10525000F0BDBDF806000427B7EB103F01D10124D3
:1052600000E002246946304601F06EFA002809DBAE
:10527000BDF80600B7EB103F02D144F0040401E092
:1052800044F00804E00703D0200701D526A02FE052
:10529000A0074FEA447014D500280DDA2846FEF71F
:1052A000BFFC0146304601F043FD04001FD001461B
:1052B000284600F0E7F816E03146284600F0E2F80C
:1052C000C5E7002817DA2846FEF7AAFC0146304653
:1052D00001F02EFD04000AD0002105F0CBFC214690
:1052E000284600F03FF8204606F0BEFFAFE719A0C1
:1052F00007F0B6FBABE714F00C0F03D100213046EA
:1053000005F0B8FC3146284600F02CF89FE7000075
:10531000636F7079206661696C65642C20626164DA
:105320002025730A000000006370206661696C64C8
:105330002C2063702064697220746F2066696C652C
:10534000206973206E6F74207065726D6974746566
:1053500064210A006F7574206F66206D656D6F7231
:10536000790A00002DE9F0438846DBB0814601460A
:105370004FF4803251A801F02FF9002806DA49468F
:1053800030A007F06DFB5BB0BDE8F0834FF482778F
:105390006C4639466846FBF748FA3A46694651A8D2
:1053A00001F0FAF800282FDD2AA1201DFBF790FA62
:1053B0000028EED028A1201DFBF78AFA0028E8D0AB
:1053C000211D484601F0B4FC060013D0211D4046C3
:1053D00001F0AEFC050011D0402141A8FBF725FAF1
:1053E00041A9304601F0B0F990B1211D1BA007F092
:1053F00037FBCEE71FA007F033FB05E01DA007F049
:105400002FFB304606F030FF51A801F0AFF8BAE7A5
:10541000BDF80A010421B1EB103F08D10021284654
:1054200005F028FC29463046FFF79CFF03E029469B
:10543000304600F027F8304606F016FF284606F002
:1054400013FFA6E76F70656E202573206661696C97
:1054500065640A002E2E00002E0000006F70656E3D
:105460002066696C653A202573206661696C656405
:105470000A0000006F7574206F66206D656D6F7295
:1054800079210A00F0B504464FF4805689B00F46E2
:10549000304607F05DFB05000CD00022214668462F
:1054A00001F09AF800280ADA284606F0DDFE2146C7
:1054B0001AA013E01DA007F0D3FA09B0F0BD4122F5
:1054C00039461E4801F088F800280ADA284606F016
:1054D000CBFE684601F04AF8394619A007F0C0FA39
:1054E000EBE732462946684601F0D6F8041E0ADD8D
:1054F00002462946114801F0FFF90146A042F0D0CA
:1055000014A007F0ADFA684601F030F80B4801F03E
:105510002DF8284606F0A8FECFE70000526561642A
:10552000202573206661696C65640A006F757420BC
:105530006F66206D656D6F72790A0000240B002084
:105540005772697465202573206661696C65640A09
:105550000000000057726974652066696C652064FC
:10556000617461206661696C65642C206572726E7D
:105570006F3D25640A0000002DE9F04105680F0029
:10558000804606D004F038F8022809D20120BDE890
:10559000F0816E6916B1E869B04207D8012605E0CE
:1055A000411CF4D0E9698142F1D83E463446E869AD
:1055B000641CA04202D80224022E0AD3214640468F
:1055C00004F01AF838B10128E1D0411CDFD0B44210
:1055D000EDD10020DBE74FF0FF363246214628466A
:1055E00006F080F830B957B122463946284606F011
:1055F00079F820B101280FD001242046C7E76C615B
:10560000D5E90601891E884201D2401EA861287989
:1056100040F001002871F0E73446EEE72DE9F35F32
:105620000E6800980024884600682546D0F80C9043
:10563000705D6D1C202818D32F2811D05C280FD046
:10564000FF2C36D2012103F03BFB070031D0802F25
:1056500012D2014664A0FFF737FA50BB0CE06D1C74
:10566000715D2F29FBD05C29F9D07219C8F8002090
:10567000202805D204260EE029F81470641CD7E710
:10568000002608E009EB440030F8020C202801D085
:105690002E2802D1641E002CF4D1002129F8141008
:1056A0003CB100980B222021203005F0DDFA0027C4
:1056B00003E00620BDE8FC9F7F1C39F81700202876
:1056C000FAD02E28F8D01FB146F0030600E0641E81
:1056D0002CB109EB440030F8020C2E28F7D14FF022
:1056E0000008C2464FF0080B39F817507F1C05B36D
:1056F000202D03D02E2D04D1A74202D046F0030660
:10570000F2E7DA4501D2A74219D1BBF10B0F0ED057
:10571000A74201D046F003060BD84FEA886027461F
:105720004FF0080A4FF00B0B4FEA1068DCE746F029
:105730000306009890F82000E5282ED031E0802D57
:105740000CD30021284603F0BBFA050003D02948FA
:10575000284410F8805C46F0020625B1294626A0B0
:10576000FFF7B2F918B15F2546F003060EE0A5F188
:105770004100192802D848F0020807E0A5F16100AD
:10578000192803D8203D48F00108ADB200985044D4
:105790000AF1010A80F82050A6E70098052180F858
:1057A0002010BBF1080F03D14FEA88604FEA106860
:1057B000C8F38100032803D06FEA0801890701D1EB
:1057C00046F00206B10709D408F00301012901D10E
:1057D00046F01006012801D146F00806009880F82E
:1057E0002B60002066E70000222A3A3C3E3F7C7F87
:1057F00000000000BC1B01082B2C3B3D5B5D000042
:1058000010B5024801F02AFB002010BD481A01081B
:105810002DE9F043254989B005AD0EC985E80E0094
:1058200000273C4602A901F07DFB30B120A007F023
:1058300017F9781E09B0BDE8F083049902984FF477
:105840008065A0FB01012A460023FAF7D4FDA94692
:105850004FF48062821A71F1000219DB4F464A460A
:105860000023FAF7C8FD05460A20A2FB00C803FB87
:1058700000800E46002102FB01013A4600236046EB
:10588000FAF7B9FD0746641C28463146022CDFDBD7
:10589000029A0499CDE9001205A93A4651F824303C
:1058A000014608A007F0DCF80020C3E7181A010839
:1058B0006466735F737461746673206661696C6596
:1058C000642E0A006469736B20667265653A202550
:1058D000642E2564202573205B20256420626C6F74
:1058E000636B2C2025642062797465732070657267
:1058F00020626C6F636B205D0A00000070B50400CD
:1059000004D15C22124913A006F058F860880228DE
:1059100002D0256A5DB10FE0246A24B963220C49E4
:1059200010A006F04BF8204606F09EFC0DE06C221D
:10593000074912A006F042F8284606F0A9F910B16E
:105940006FF00B0070BD00202062002070BD0000D1
:10595000AB1A010866696C6520213D2052545F4EE8
:10596000554C4C00726F6F745F646972656E742081
:10597000213D2052545F4E554C4C00006465765FCB
:10598000696420213D2052545F4E554C4C0000006C
:105990002DE9F047056A14460F462DB940F2091269
:1059A00019491AA006F00AF84FF48270B4FBF0F619
:1059B00036B1002480464FF001094FF0080A14E088
:1059C0006FF01C00BDE8F0872968082251F820100C
:1059D00004EB841007EB800000F8019B00F801AB9A
:1059E00020F8028B08F03FFD641CB44204D2A88862
:1059F000E98820448842E7D3A8882044A88004EBA3
:105A000084108000DEE70000D21A0108726F6F7404
:105A10005F646972656E7420213D2052545F4E555B
:105A20004C4C000070B515460E46040004D12522EA
:105A3000084909A005F0C2FF246A24B929220549B2
:105A400009A005F0BBFF2A4631462046BDE870405C
:105A500006F074B9701A010866696C6520213D2052
:105A600052545F4E554C4C006465765F696420214A
:105A70003D2052545F4E554C4C00000000207047B2
:105A80002DE9F047054640684FF0000901782F29BD
:105A900036D1417899BB6969C90331D5002606F032
:105AA000B9FB092007F024FD070004D18E22274905
:105AB00027A005F083FF07F10408786801E000687B
:105AC000761C4045FBD1082000EB860007F040F82B
:105AD000040011D004F108002060A4F80490E680CE
