:020000040800F2
:10000000F01400207D020008850200089F0300080C
:10001000890200088B0200088D0200080000000021
:100020000000000000000000000000008F02000837
:100030009102000800000000EB02000805270008FC
:10004000970200089702000897020008970200082C
:10005000970200089702000825140008B31400084E
:10006000CD140008E1140008F514000897020008F8
:1000700097020008970200089702000897020008FC
:1000800097020008970200089702000897020008EC
:1000900097020008970200089702000897020008DC
:1000A00097020008970200089702000897020008CC
:1000B00097020008970200089702000897020008BC
:1000C00097020008970200089702000897020008AC
:1000D00097020008C5270008970200089702000849
:1000E00039140008970200089702000897020008D8
:1000F000970200089702000897020008970200087C
:10010000970200089702000897020008970200086B
:10011000970200089702000897020008970200085B
:10012000970200089702000897020008970200084B
:10013000970200089702000897020008970200083B
:1001400000000000000000000000000000000000AF
:10015000970200089702000897020008970200081B
:10016000970200089702000897020008970200080B
:1001700097020008970200089702000800F002F8B2
:1001800000F065F80AA090E8000C82448344AAF1CC
:100190000107DA4501D100F05AF8AFF2090EBAE8CA
:1001A0000F0013F0010F18BFFB1A43F001031847AB
:1001B00078120100981201000A444FF0000C10F868
:1001C000013B13F0070408BF10F8014B1D1108BFD5
:1001D00010F8015B641E05D010F8016B641E01F875
:1001E000016BF9D113F0080F1EBF10F8014BAD1CC5
:1001F0000C1B09D16D1E58BF01F801CBFAD505E0E3
:1002000014F8016B01F8016B6D1EF9D59142D6D33C
:10021000704700000023002400250026103A28BF64
:1002200078C1FBD8520728BF30C148BF0B60704768
:10023000732900F03E84002070471FB50EF052FD78
:1002400000F03CFC1FBD10B500F0A1FC10BD00F09B
:10025000B4FE1146FFF7F1FF01F080F800F0E2FF75
:1002600003B4FFF7F0FF03BC02F046FE002804D001
:1002700090FAA0F0B0FA80F0401C7047094880471F
:1002800009480047FEE7FEE7FEE7FEE7FEE7FEE778
:10029000FEE7FEE7FEE7FEE704480549054A064B90
:1002A00070470000592700087D010008F00E00206B
:1002B000F0140020F0100020F0100020EFF3108068
:1002C00072B6704780F310887047434A1368012B59
:1002D00004D04FF001031360404A1060404A11609F
:1002E00040484FF0805101607047EFF3108272B6C2
:1002F0003948016851B34FF0000101603748016887
:1003000091B1EFF309811EF0100F08BF21ED108BA2
:1003100021E9F00F4FF000041EF0100F08BF012478
:1003200041F8044D006801602D490968096808C951
:10033000B1E8F00F002B18BFB1EC108B81F30988E6
:100340004EF0100E002B18BF2EF0100E82F3108806
:100350004EF0040E704722490860EFF3148222F039
:10036000040282F314881D494FF0000008601A4906
:100370004FF0010008601C484FF47F01D0F80020C6
:1003800041EA0201016017484FF0805101601748AF
:100390000068006880F3088861B662B670471EF096
:1003A000040F0CBFEFF30880EFF3098020E9F00F92
:1003B00040F804ED40F804ED1EF0040F0CBF80F38C
:1003C000088880F3098800B50AF03EFF5DF804EB69
:1003D0004EF0040E70470000A8020020A00200208A
:1003E000A402002004ED00E020ED00E008ED00E0B4
:1003F00070477047704710B54C1084EA530404D519
:100400004042C1F1000138BF491E1B4204D552428F
:10041000C3F1000338BF5B1E00F09DFA14F0804F5B
:1004200004D04042C1F1000138BF491E14F0004F12
:1004300004D05242C3F1000338BF5B1E10BD000060
:100440000FB41CB50C0007AA009001D02044401E38
:10045000074B7B4469460190069800F0F8FA002C9F
:1004600003D06946002000F005FB1CBC5DF814FBBE
:10047000290600002DE9F0410E46044600202062C6
:100480002046E168884730B3252805D0D4E901210A
:100490009047206A401CF2E7E16820460027884721
:1004A000050018D0A5F14100192802D820354FF4D5
:1004B00000673246294620462760FFF7B9FE40B163
:1004C000012804D0F61D26F007060836D8E7361DA9
:1004D000D6E72846DAE7206ABDE8F08170B50C4619
:1004E0000546012A05D02878800600D5EA69002350
:1004F00002E0012305E05B1C934202D2E05C00288D
:10050000F9D1A869E618C01AA861286A18442862B7
:100510002846AFF3008004E0D5E9012114F8010B6F
:100520009047B442F8D32846AFF3008070BD07F07F
:100530003DBB30B505460B462A4613F8014B12F871
:10054000010B08B1A042F8D01CB1002802D06D1CEC
:10055000F1E7284630BD40EA010310B59B070FD1F3
:10056000042A0DD310C808C9121F9C42F8D020BA23
:1005700019BA884201D9012010BD4FF0FF3010BDDB
:100580001AB1D30703D0521C07E0002010BD10F8A9
:10059000013B11F8014B1B1B07D110F8013B11F86F
:1005A000014B1B1B01D1921EF1D1184610BD40EA30
:1005B0000103024630B59B0710D14FF0013400E033
:1005C00008C208C91D1B9D4315EAC41FF8D013F0CB
:1005D000FF0102F8011B0DD01B0AF8E711F8013BDF
:1005E000002B02F8013B05D011F8013B002B02F86B
:1005F000013BF3D130BD0022CBB210F8011B994270
:1006000000D1421E0029F8D11046704710B5431C96
:1006100002E010F8011B71B18107FAD14FF00132ED
:1006200002C88C1A8C4314EAC211F9D0C01A0A0607
:1006300003D0C01E10BDC01A10BD0A0401D0801E18
:1006400010BD0902FCD0401E10BD40EA010370B588
:100650009B072ED14FF00136042A2AD308C810C9AF
:100660009D1B9D43121F15EAC61517D0D8B2E1B2E3
:10067000401A50EA056110D198B2A1B2401A50EA6E
:1006800005410AD123F07F4024F07F41401A50EA0F
:10069000052102D1180EA0EB146070BDA342DBD07F
:1006A00018BA21BA884201D9012070BD4FF0FF303D
:1006B00070BD0AB9002070BD10F8013B11F8014B64
:1006C00063B1A3420AD1521E08D010F8013B11F8C1
:1006D000014B1BB1A34201D1521EEDD1181B70BDBD
:1006E000421E12F8013F002BFBD111F8013B002BF9
:1006F00002F8013BF9D17047032A40F2308010F034
:10070000030C00F0158011F8013BBCF1020F6244AC
:1007100098BF11F801CB00F8013B38BF11F8013B3D
:10072000A2F1040298BF00F801CB38BF00F8013BEA
:1007300011F0030300F02580083AC0F0088051F85A
:10074000043B083A51F804CBA0E80810F5E7121D65
:100750005CBF51F8043B40F8043BAFF30080D20784
:1007600024BF11F8013B11F801CB48BF11F8012B50
:1007700024BF00F8013B00F801CB48BF00F8012B73
:10078000704710B5203AC0F00B80B1E81850203AFD
:10079000A0E81850B1E81850A0E81850BFF4F5AF21
:1007A0005FEA027C24BFB1E81850A0E8185044BFAB
:1007B00018C918C0BDE810405FEA827C24BF51F818
:1007C000043B40F8043B08BF7047D20728BF31F80C
:1007D000023B48BF11F8012B28BF20F8023B48BF5D
:1007E00000F8012B70474FF000020429C0F012807E
:1007F00010F0030C00F01B80CCF1040CBCF1020FD4
:1008000018BF00F8012BA8BF20F8022BA1EB0C01A8
:1008100000F00DB85FEAC17C24BF00F8012B00F89E
:10082000012B48BF00F8012B70474FF0000200B5C4
:10083000134694469646203922BFA0E80C50A0E803
:100840000C50B1F12001BFF4F7AF090728BFA0E8B1
:100850000C5048BF0CC05DF804EB890028BF40F87D
:10086000042B08BF704748BF20F8022B11F0804FBF
:1008700018BF00F8012B704710B5044610F0030FA5
:1008800008BF11F0030F40F015804FF0013E121F1A
:10089000C0F20E8051F8043BA3EB0E0C2CEA030CC3
:1008A0001CEACE1C08BF40F8043BF0D0A1F10401C3
:1008B00002F10402521E08DB11F8013B002B00F884
:1008C000013BF7D11146FFF78EFF204610BD000017
:1008D0004FF0013C50F8042B51F8043B9A4221D1CF
:1008E000A2EB0C03934313EACC1317D150F8042B5B
:1008F00051F8043B9A4215D1A2EB0C03934313EA3F
:10090000CC130BD150F8042B51F8043B9A4209D177
:10091000A2EB0C03934313EACC13DBD04FF000009F
:10092000704700BFD01A01BAB1FA81F101F0180185
:1009300022FA01F0CB40C1F12001DBB2C0B2C01AF3
:100940002CFA01F3D11A914311EAC311E6D1704791
:1009500070477047704753EA020C00F069802DE938
:10096000F04B4FF00006002B1FBFB3FA83F503FADC
:1009700005F424FA05F65E4012BF1643B2FA82F57A
:1009800002FA05F4C5F120051EBF22FA05FC44EA6F
:100990000C04203556EA044C4FEA144418BF641C7A
:1009A0004FF000084FF00009904271EB030C39D36F
:1009B000002919BFB1FA81F701FA07F6B0FA80F7FA
:1009C00000FA07F6C7F120071EBF20FA07FC46EA27
:1009D0000C062037B6FBF4FCA7EB0507103F07F029
:1009E0001F0BCBF120060CFA0BFB2CFA06F644BFCA
:1009F000B3460026202FA4BF5E464FF0000B5BEAF3
:100A0000060C08BF4FF0010B19EB0B09ABFB027C86
:100A100048EB0608C01B06FB02CC0BFB03CC71EBBA
:100A20000C01C1E70B46024641464846BDE8F08B43
:100A300013B54FF000004FF00001AFF30080BDE8A8
:100A40001C40704701694A1C02610878704700B574
:100A50008FB0CDE901310021059105497944CDE9F7
:100A6000031011466846FFF705FD0FB000BD0000FA
:100A7000E5FFFFFF0A6802F8010B0A607047D1E941
:100A800000239A4202D2531C0B601070704710B5BD
:100A9000436913B1AFF3008001E0FFF71FFD0120B0
:100AA00010BD127800F124010A7000224A70012260
:100AB000EDE711684FF0FF32E9E7000010B542485A
:100AC0005421FFF7B2FE41485421FFF7AEFE4048E3
:100AD0005421FFF7AAFE3F493B483C4A3F4B086080
:100AE0003D490A603A491960531C0365481C10656A
:100AF000012008653B48344A39A1784400F0BAF92E
:100B000020B9384878440A3800F050FA37482F4A5C
:100B100035A1784400F0AEF920B9344878440A3859
:100B200000F044FA32482A4A2FA1784400F0A2F992
:100B300020B92F4878440A3800F038FA4023224878
:100B4000DC000021224600F072F920B125487844EB
:100B5000543800F02BFA1D4822464023002100F0B3
:100B600066F920B121487844543800F01FFA18483B
:100B700022461023002100F05AF9002806D01C4814
:100B80007844BDE81040563800F010BA10BD104847
:100B900070B5006D20F001040B4800F0E1F90B483E
:100BA00000F0DEF90A4800F0DBF909E0206D20F0E2
:100BB0000105204600F0D4F9204607F09BFB2C46A7
:100BC000002CF3D170BD0000900D0020E40D00203A
:100BD000380E002004040020080400200C0400202B
:100BE0007200000070FA0000770000005EFA00005A
:100BF0004DFA000070B50D4601461446D3685069A1
:100C00002A4602F0CBF9002807DA411C07D0E16838
:100C100020F0004041F48041E160281A70BD204678
:100C200000F06CFA4FF0FF3070BDC1680022026026
:100C300021F4805141F0400111F4C06FC16001D036
:100C40008260704702694168891AC269891A8160A5
:100C500070472DE9F0470446C06840F48000E0602A
:100C6000010312D520F40020E060810606D4E26A78
:100C700061688A4200D80A46511A216040F4001087
:100C8000E06094F82500BDE8F08720F40010E060F3
:100C9000800602D5204600F088FAE06842F2810121
:100CA0004FF0FF390140012903D0204600F026FA19
:100CB000B6E02168002600290ADAC94340F48050D2
:100CC0002160C4E902606068411C61600078DAE775
:100CD00044F2400108420CD020F4A04040F0400013
:100CE0002660E06021696068401AE169401AA060EE
:100CF00096E0216991B9C00310D4E06908F02BFE99
:100D00002061B0B1E06840F4006010F4407FE06022
:100D100002D140F48070E06020696060E068D4F83F
:100D200014A0C1061AD5C0030ED5204600F01AFA49
:100D300014E004F1240020610120E061E06820F467
:100D4000407040F48060E6E721696068401AA1695C
:100D50000144504602F039F90028A6DBE068C003E0
:100D60002AD56168E06A884200D808462169451A98
:100D7000E069471B1BD02046D4F8188000F0F2F938
:100D800008EB05015046C4F8188002F01EF900284F
:100D90008BDBE06840F40030E060000202D5A0691F
:100DA0002844A061E1692069C91B45180DE020466F
:100DB00000F0D8F9E769F5E725696168D4E9060725
:100DC000491BE56208446560A061E06820F01000FE
:100DD00010F4C06FE06002D0204600F007FAE0682F
:100DE00040F48050C4E90260000205D52069E06249
:100DF00060606FF0010046E7224639462846FFF75B
:100E0000F9FE411C0CD02918E16258B1401E206047
:100E1000681C6060E06840F40030E060287832E7E9
:100E2000484630E765602046FFF7FFFEF8E770B5FB
:100E3000C468A50713D0650211D4B2F5807F09D02C
:100E4000B2F5007F06D0B2F5806F08D1012300F122
:100E5000240106E05D1E6FF07F46B54201D30120FC
:100E600070BD0161C361416024F470611143C160D0
:100E7000002070BD2DE9F0410C460746164610468D
:100E800000F06EF82078611C61280AD0722802D028
:100E900077283CD102E00125002405E00225042446
:100EA00002E0082448F2020511F8010B2B2806D0B5
:100EB000622809D011F8010C74280AD00BE045F023
:100EC000030544F00204EFE745F0040544F0010493
:100ED000EAE744F010043846214602F021F8411CAC
:100EE00015D00021316171604FF40071F560F1613E
:100EF0007061200704D530460222002100F082F8FC
:100F0000306D40F0010030653046BDE8F0810020D2
:100F1000FBE72DE9F0410D460646104C206DC10758
:100F200004D0410804D020F00104F7E722460EE087
:100F3000542008F010FD07000ED0206D47F001018D
:100F40000843542120653846FFF76FFC3A4629468E
:100F50003046BDE8F0418DE70020D6E7900D002037
:100F60002DE9F04704464FF000094FF0FF37C56800
:100F7000D4E90486A80707D0204600F0F3F83046ED
:100F800001F0B4FF002802DA3846BDE8F0872805F2
:100F900002D5404607F0AEF94C212046FFF745FC4C
:100FA000206D20F0010020654846EEE710B500F006
:100FB00047F9BDE8104000F03EB9754600F05AF917
:100FC000AE4605006946534620F00700854618B036
:100FD00020B5FFF761F9BDE820404FF000064FF063
:100FE00000074FF000084FF0000B21F00701AC465E
:100FF000ACE8C009ACE8C009ACE8C009ACE8C0097D
:101000008D4670472DE9F041044616460D46476966
:10101000007B80072ED0384601F07CFF50BB3EB3EA
:10102000012E02D0022E25D104E0204600F058F90E
:1010300005441DE0384601F060FFE168002841F0FA
:101040001001E16005DA204600F058F80120BDE803
:10105000F081C9030BD56268E16A914200D811465C
:10106000A26911442269891A814200DD08460544BB
:10107000002D01DA0220EAE7E16A6068E268814255
:1010800006D29103E06203D522F4003141F0100250
:10109000A6690027AE4213DCE16A814201D90B4602
:1010A00000E0034603EB060C2369ACEB030CAC45F4
:1010B00006DD814201D98C4600E084469C4505D17D
:1010C000A760276042F02000A5620DE0AD1BE66935
:1010D000AE1B8142A66000D90846C01A281A2060BB
:1010E0005819606022F0200003490840E0600020A9
:1010F00084F84870ABE70000BFCFD7FFC16821F488
:10110000001141F08001C1600021816001607047E1
:101110002DE9F047814614460E464FF0FF3832481D
:10112000D5685769054209D03846A16901F04DFFDD
:10113000002811DB2C48C0430540E5602B463246B1
:101140004946384601F049FFA16920F00042B21A31
:1011500011440028A16103D02046FFF7CFFF40468D
:10116000BDE8F08770B504460569C06A61688842C9
:1011700000D80846E16821F42011E160C90312D5C6
:10118000A84208D02246411B2846FFF7C1FF10B1F4
:101190004FF0FF3070BD0020E562C4E90150E06807
:1011A00020F48030E060002070BD10B50446C068B7
:1011B00020F02000E060A16AA06988420DD020469E
:1011C000FFF7D0FFE06820F4405040F01000E060EE
:1011D000A06AA0612069E062606044F24001E068BA
:1011E0008843E06010BD00001000020070B50546A5
:1011F00040F202260A4C0FE094F85000C00708D0D5
:10120000AC4206D0E06836EA000002D1204600F089
:1012100035F8206D20F00104002CEDD170BD0000E8
:10122000900D002010B50446AFF300802046BDE8C5
:101230001040FFF715B8002801D001F05DBE7047DF
:1012400010B5014602A000F06CF8012010BD0000AE
:1012500053494752545245443A2052656469726575
:1012600063743A2063616E2774206F70656E3A2054
:1012700000000000004870478C0E002070B5044646
:10128000C068810713D0800601D5A56A04E0A16972
:10129000606808442169451A2046FFF763FF002271
:1012A000064629462046FFF7ADFE304670BD0020B9
:1012B00070BD70B510B1BDE87040DFE70025074C88
:1012C0006E1E07E02046FFF7D9FF00B13546206DBE
:1012D00020F00104002CF5D1284670BD900D0020AF
:1012E00010B50146C268900703D0900607D5886AFA
:1012F0000AE000F02FF801210160881E10BD8B6903
:10130000486818440B69C01A91F848301BB191F82D
:101310004910401A10BD1103FCD50028FADD401E0B
:1013200010BD70B505460C460A2000E06D1C01F0AA
:101330006BFE35B128780028F8D102E0641C01F07A
:1013400063FE14B120780028F8D1BDE870400A206F
:1013500001F05ABE004870478C0E002010B50DF009
:10136000C4F8002010BD000000249F23EF22214676
:10137000204600F091FD254ED6F834010128FBD01F
:10138000D6F834010028FBD0641C0A2CF4D3FEF7F5
:1013900095FF1F4F1F4C204D0021084600F04CFDCB
:1013A0002EE0D5F818010028FBD03868C1B22180A2
:1013B000D5F818010128FBD0D5F818010028FBD07A
:1013C0003868C0B241EA002020800DF07BFC20800C
:1013D00001463C200DF07EFC1049208001220A616C
:1013E0000A154A610E4B18600220486108610A61C3
:1013F000D5F818010128FBD0D6F838010028D0D143
:10140000D6F834010128C7D1F6E700000080214258
:101410000814014030010020000022420010014069
:101420000C18014010B50AF093F9012000F0D6F82D
:10143000BDE810400AF0AAB910B50AF089F94FF4D6
:101440008064204600F066F810B1204600F0C6F82F
:101450004FF40064204600F05DF810B1204600F023
:10146000BDF84FF48054204600F054F810B12046E7
:1014700000F0B4F84FF40054204600F04BF810B1DF
:10148000204600F0ABF84FF48044204600F042F8CC
:1014900010B1204600F0A2F84FF40044204600F0BE
:1014A00039F810B1204600F099F8BDE810400AF074
:1014B0006DB910B50AF04CF9022000F025F80220B1
:1014C00000F08CF8BDE810400AF060B910B50AF0E1
:1014D0003FF9042000F082F8BDE810400AF056B948
:1014E00010B50AF035F9082000F078F8BDE8104092
:1014F0000AF04CB910B50AF02BF9102000F06EF884
:10150000BDE810400AF042B9014908607047000088
:1015100014040140064A014600201268044B0A40A8
:1015200014331B680B4202D0002A00D00120704700
:101530000004014030B51A4A8379016853B3136837
:101540008B431360111D0B680468A3430B60017982
:1015500011440B68046823430B60114B083319686E
:101560000468A14319601C1D21680568A943216016
:101570004179102905D011440A68006802430A60C5
:1015800030BD196802681143196021680068014381
:10159000216030BD0079104402688A43026030BD8A
:1015A000000401400021016001710C22427181712F
:1015B0007047000010B58A0721F003040649120F96
:1015C00021440F238C6893409C438C608B6890402F
:1015D00003438B6010BD00000000014010B502F015
:1015E00045F800EB4004084800EB44004088FFF752
:1015F0008BFF064800EB84004168002903D0806817
:10160000BDE81040084710BD4CFA00085401002006
:10161000F0B5CC78002204F00F03E40601D58C78F5
:1016200023430C784FF00F0C14F0FF0F4FF0010E16
:101630001BD005680E880EFA02F42640A64210D18F
:1016400096000CFA06F725EA070703FA06F5CE78A6
:101650003D43282E02D0482E02D002E0446100E033
:101660000461521C082AE5D305600A88FF2A1CD9A8
:101670004468002202F108060EFA06F50E882E4094
:10168000AE420ED196000CFA06F7BC4303FA06F7F9
:10169000CE783C43282E00D14561CE78482E00D12B
:1016A0000561521C082AE5D34460F0BD70B5B0F165
:1016B000004F63D96FF07F4303EAD01400F07F033B
:1016C000180903F00F03850003FA05F5062C14D260
:1016D000DFE804F00305080B0E11F44A0DE0F34AAD
:1016E000121D0AE0F14A083207E0F04A0C3204E029
:1016F000EE4A103201E0ED4A143270B1012810D0E8
:1017000002281DD003281FD0042821D0052823D06B
:10171000062825D0072827D02AE0106820F00F00DF
:1017200025E0012C03D0106820F0F0001FE01068C5
:10173000042B02D920F0C00019E020F0300016E0A0
:10174000106820F4706012E0106820F470400EE021
:10175000106820F470200AE0106820F4700006E0A1
:10176000106820F0706002E0106820F07040106097
:10177000012902D110682843106070BDCB4A4FF494
:101780008025203AA8420FD040DCB0F5007F71D010
:101790001EDC10286FD008DC01286DD0022803D091
:1017A000042801D00828E8D198E0302878D04028D3
:1017B00077D0C02876D0B0F5807FDED1506820F495
:1017C000407050600129D8D1506840F480704BE1DE
:1017D000B0F5804F67D00CDCB0F5407F7AD0B0F523
:1017E000006F78D0B0F5406F76D0B0F5805FC4D18F
:1017F00074E0B0F5C04F70D0B0F5004F6ED0B0F5CA
:10180000803F6BD0B0F5003FB7D167E0B0F1005F2B
:1018100077D032DCB0F5000F74D015DCB0F5002FB6
:101820005CD0B0F5801F59D0B0F5001F6BD0B0F57B
:10183000800FA2D1506820F48000506001299CD113
:10184000506840F480000FE1B0F1807F70D0B0F1BB
:10185000007F6ED0B0F1806F6CD0B0F1805F8CD122
:10186000506820F080505060012986D1506840F0C7
:101870008050F9E073E047E039E08D4C031BA04253
:101880001DD011DCB0F1804F73D0A0F18043203B1C
:1018900015D0B3F5787F12D0864CE3428DD10EE09F
:1018A0003CE048E051E086E0AB4277D0B3F5402F12
:1018B00075D0B3F5A01F73D0B3F5E01F97D1D369EE
:1018C000C0F315008343D361012990D1D16901434D
:1018D000D16170BD4EE057E063E076E0536883432A
:1018E00053600129F5D1516801435160F1E7506817
:1018F000714B184050600129EBD1506840F0010055
:10190000B2E094E09DE0A6E0506820F03000506026
:101910000129DED1506840F01000A5E0506820F0A9
:10192000300050600129D4D1506840F030009BE075
:1019300055E05EE067E0506820F0C000506001298B
:10194000C7D1506840F040008EE0506820F0C000E1
:1019500050600129BDD1506840F0C00084E050685B
:1019600020F4407050600129B3D1506840F40070F9
:101970007AE052E0506820F4407050600129A8D10C
:10198000506840F440706FE0506820F44060506050
:1019900001299ED1506840F4006065E066E06FE088
:1019A00078E0506820F440605060012991D150687F
:1019B00040F4406058E0506820F4C0405060012975
:1019C00087D1506840F480404EE0506820F4C04019
:1019D000506001298AD1506840F4C04044E050680A
:1019E00020F0E0605060012986D1506840F080709E
:1019F0003AE0506820F0E0605060012989D15068D9
:101A000040F0007030E0506820F0E0605060012944
:101A100089D1506840F0806026E0506820F0804016
:101A2000506001298CD1506840F080401CE0506823
:101A300020F00050506001298CD1506840F00050D7
:101A400012E0506820F40000506001298CD15068E9
:101A500040F4000008E0506820F4001050600129B4
:101A60008DD1506840F40010506032E7D06920F406
:101A7000C010D0610129F8D1D06940F4002012E0F3
:101A8000D06920F4C010D0610129EED1D06940F4B2
:101A9000801008E0D06920F4C010D0610129E4D1A1
:101AA000D06940F4C010D06113E70000200001406D
:101AB000000004402000FEFFFEFFFF7F02460020E2
:101AC00092680A4200D0012070474161704701616D
:101AD00070474FF6FF710180022181700421C170AF
:101AE00070470AB1016170474161704738B5012103
:101AF000512000F091FB01214806FFF7D7FD40F28D
:101B00002F44ADF8004010208DF8030001200C4D4B
:101B10008DF8020069462846FFF77AFD21462846DF
:101B2000FFF7D5FF074D4FF6FF74ADF8004069464B
:101B30002846FFF76DFD21462846FFF7C8FF38BD50
:101B4000001001400018014010B5FFF7CFFF00F072
:101B500063F9D32000F0DEF900F02EF900F02CF943
:101B600000F02AF9924C4FF6FF7101EA0020A080A4
:101B700000F022F9A1880843A080CF2000F0CAF924
:101B8000002000F0B7F9C12000F0B4F9302000F0D7
:101B9000B1F9ED2000F0BEF9642000F0ABF90320AC
:101BA00000F0A8F9122000F0A5F9812000F0A2F9B8
:101BB000E82000F0AFF9852000F09CF9102000F03B
:101BC00099F97A2000F096F9CB2000F0A3F939209A
:101BD00000F090F92C2000F08DF9002000F08AF937
:101BE000342000F087F9022000F084F9F72000F09B
:101BF00091F9202000F07EF9EA2000F08BF9002016
:101C000000F078F9002000F075F9C02000F082F9AA
:101C10001B2000F06FF9C12000F07CF9012000F0DA
:101C200069F9C52000F076F9302000F063F9302022
:101C300000F060F9C72000F06DF9B72000F05AF904
:101C4000362000F067F9482000F054F93A2000F0FF
:101C500061F9552000F04EF9B12000F05BF9002049
:101C600000F048F91A2000F045F9B62000F052F9CA
:101C70000A2000F03FF9A22000F03CF9F22000F029
:101C800049F9002000F036F9262000F043F9012040
:101C900000F030F9E02000F03DF90F2000F02AF9C3
:101CA0002A2000F027F9282000F024F9082000F06D
:101CB00021F90E2000F01EF9082000F01BF9542035
:101CC00000F018F9A92000F015F9432000F012F9EE
:101CD0000A2000F00FF90F2000F00CF9002000F0AE
:101CE00009F9002000F006F9002000F003F90020B7
:101CF00000F000F9E12000F00DF9002000F0FAF802
:101D0000152000F0F7F8172000F0F4F8072000F095
:101D1000F1F8112000F0EEF8062000F0EBF82B208F
:101D200000F0E8F8562000F0E5F83C2000F0E2F87A
:101D3000052000F0DFF8102000F0DCF80F2000F0A4
:101D4000D9F83F2000F0D6F83F2000F0D3F80F205C
:101D500000F0D0F82B2000F0DDF8002000F0CAF8E9
:101D6000002000F0C7F8012000F0C4F83F2000F088
:101D7000C1F82A2000F0CEF8002000F0BBF80020C7
:101D800000F0B8F8002000F0B5F8EF2000F0B2F84D
:101D9000112000F0BFF878200BF03CFD292000F066
:101DA000B9F800F065F803490120C1F8940110BDAD
:101DB000C0090020000022422DE9F047DFF85090D2
:101DC0004FF08830C9F8000009F104052860104E72
:101DD00000200C3630600F4C0120206187026761C3
:101DE0004FF00408C4F81480022009F069FC281D93
:101DF0000068C4F8108080B227614FF03331C9F811
:101E0000001029604FF6FF713160BDE8F0870000D7
:101E1000001801400010014070B5064C08256561AE
:101E200064200BF0F7FC2561BDE8704032200BF018
:101E3000F1BC00000010014070B50C4E05460C4688
:101E4000B07A00F067F8280A00F054F8E8B200F021
:101E500051F8307B00F05EF8200A00F04BF8E0B259
:101E600000F048F8BDE8704000F064B8C0090020F8
:101E700008482C21018100218171F02101804FF45B
:101E8000A07141802A2141812B218181C9213620E5
:101E900000F056B8C00900202DE9F041DFF850806D
:101EA00007461C4615460E4698F80A0000F032F820
:101EB000380A00F01FF8F8B200F01CF8280A00F009
:101EC00019F8E8B200F016F898F80C0000F022F8C3
:101ED000300A00F00FF8F0B200F00CF8200A00F021
:101EE00009F8E0B200F006F8BDE8F04100F022B8D1
:101EF000C0090020054901220A610A154A61044B04
:101F000018600220486108610A61704700100140B2
:101F10000C180140054901224A610A154A61044B27
:101F200018600220486108610A6170470010014092
:101F30000C1801400148007AFFF7ECBFC0090020EF
:101F400010B50C46FFF7E6FF2046BDE81040FFF74E
:101F5000D1BF000030B50F23C27801780125F2B15E
:101F6000144A126801F1E02102F4E062C2F5E06275
:101F7000120AC2F10404D3404278A24084781C4083
:101F80001443220181F80024007800F01F018D40E5
:101F90004009800000F1E020C0F8005130BD01F0A0
:101FA0001F0085404809800000F1E020C0F8805102
:101FB00030BD00000CED00E00907090E002806DA2C
:101FC00000F00F0000F1E02080F8141D704700F1D0
:101FD000E02080F8001470472DE9F8430024012127
:101FE000392000F019F94020ADF8000048258DF89F
:101FF00003500220554F8DF8020069463846FFF71E
:1020000007FB40213846FFF762FD8020ADF8000055
:1020100010268DF8036069463846FFF7F9FA8021EB
:102020003846FFF754FDFF20ADF800008DF803504F
:1020300069464748FFF7ECFA7702DFF81881ADF8F8
:1020400000708DF8035069464046FFF7E1FA3946C3
:102050004046FFF73CFDF702ADF800708DF80360D5
:1020600069464046FFF7D4FA39464046FFF72FFD50
:10207000B602ADF800608DF8035069464046FFF7A0
:10208000C7FA31464046FFF722FD33480025C0F825
:102090009C5114200BF0BEFB304EC6F8BC511420EE
:1020A00006F5DE760BF0B6FB0120306000F04EF94D
:1020B0000121FF2000F066FA8021122000F062FA70
:1020C00064200BF0A7FB1C2000F0C4F94FF6FF754D
:1020D00005EA00261D2000F0BDF940EA0601A1F541
:1020E000FE40A23805D01EA009F0A8FB0120BDE8E3
:1020F000F8830A2000F0AEF905EA00250B2000F075
:10210000A9F940EA0501A1F51850423804D017A0FA
:1021100009F094FB0220EAE7174D05EB44004178F3
:1021200015F8140000F02EFA641CA4B2B22CF4D3FB
:102130004FF4FA700BF06EFB00F04AF8A021F0208B
:1021400000F01CF808F067F80020D0E7001001400C
:1021500000140140000C0140000022420080214296
:102160004D49443A25640D0A000000004849443AAC
:1021700025640D0A0000000043F2000870B58207D4
:1021800001D0012070BD8A0701D0022070BD8408F3
:102190008D080021FF2000F0F5F90421E02000F077
:1021A000F1F9E1B25A2000F0EDF9E9B25B2000F05C
:1021B000E9F90421C4F3012001EA951101435C20EF
:1021C00000F0E0F90021E02000F0DCF9002070BD13
:1021D00010B50021FF2000F0D5F90121BDE8104025
:1021E000DA2000F0CFB90000044A0029D16901D0FB
:1021F000014300E08143D1617047000000100240BC
:10220000044A0029116901D0014300E081431161B2
:102210007047000000100240044A0029916901D073
:10222000014300E0814391617047000000100240CB
:10223000044A0029D16801D0014300E08143D16004
:10224000704700000010024030B5334B5968334AE4
:1022500011F00C0103D0042901D0082901D002603B
:1022600027E059682E4A11405A6811F0C04F02F415
:10227000803405D1C1F383420F2A01D0022200E04D
:102280000122302505EA5165C1F383410D435119FF
:1022900014B15A68920301D5224A00E01F4A514303
:1022A00001605968002904DB1F4902688A4200D98D
:1022B000016059685A68C1F302111C4C120601D51D
:1022C000615C00E000210268CA40426059685D68B4
:1022D000C1F301216D0501D5615C00E0002122FA06
:1022E00001F1816059685D68C1F3C121AD0401D578
:1022F000615C00E00021CA40C26059685B68C1F3BC
:102300008131DB0001D541F00401084B0833595CF1
:10231000B2FBF1F1016130BD0010024000127A0001
:1023200000003C6000093D0000A24A04F4030020C4
:1023300005490128486D03D020F0300048657047FA
:1023400040F03000FAE700000010024038B50121EB
:102350000820FFF761FF4FF48054ADF8004048209B
:102360008DF803000220114D8DF8020069462846C1
:10237000FFF74EF921462846FFF7A9FBE410ADF818
:10238000004010228DF8032069462846FFF740F9E7
:1023900021462846FFF79BFB281D016821F4702188
:1023A0000160016841F44031016038BD000C01401A
:1023B00070B5322009F084F90A4C0120C4F8B0014C
:1023C000C4F8A401322004F5D27409F079F900258B
:1023D0002560322009F074F9E560BDE870403220D4
:1023E00009F06EB9008021422DE9F047174F002413
:1023F000386820F470203860386840F40020386075
:10240000134E08254FF00108A146322009F058F973
:10241000C6F8A4816006040ED6F8300108B1641C29
:10242000E4B2322009F04CF9C6F8A4916D1E15F003
:10243000FF05EAD1386820F470203860386840F42D
:10244000403038602046BDE8F0870000040C0140B1
:102450000080214210B5044600F022F8602000F010
:102460004DF8642009F02CF9204600F047F864206C
:1024700009F026F900F02AF8642009F021F900F0AB
:102480000FF8612000F03AF8642009F019F9FFF71D
:10249000ABFF0446FFF78CFF00F018F8204610BD94
:1024A00070B5094C0120C4F8B001C4F8A401322071
:1024B00004F5D27409F004F90025E560322009F032
:1024C000FFF8256070BD00000080214270B50A4C05
:1024D0000020C4F8B001322004F5D27409F0F0F8FD
:1024E00001252560322009F0EBF8E560BDE8704079
:1024F000322009F0E5B80000008021422DE9F041CA
:1025000000241E4E0546A0460127280602D5C6F81F
:10251000B07101E0C6F8B0816806050E322009F0FE
:10252000CFF8C6F8A471322009F0CAF8C6F8A48121
:10253000641CE4B2082CE8D3114C206820F470200D
:102540002060206840F400202060322009F0B8F8B4
:10255000C6F8A471322009F0B3F8D6F8300100B102
:102560000120C6F8A481216821F47021216021682E
:1025700041F440312160BDE8F0810000008021423B
:10258000040C014070B50D4606460024FFF788FF95
:102590006020FFF7B3FF00B10124642009F090F838
:1025A0003046FFF7ABFF00B10124642009F088F842
:1025B0002846FFF7A3FF00B10124FFF787FF20465D
:1025C00070BD0029018802D041F4005101E021F4DE
:1025D0000051018070470029018802D041F040017C
:1025E00001E021F04001018070470246002012897D
:1025F0000A4200D00120704780897047818170476E
:1026000030B502888B8902F441521B04838802D5BD
:1026100043F4807301E023F4807383800B884C883B
:10262000CD8823438C882C4323430C8923434C8936
:1026300023438C89C4F30E042343CC8923431343DF
:102640000380828B22F400628283098A018230BD7A
:102650001CB50021284C00910191206840F4803085
:1026600020604FF44052206800F400300190009840
:10267000401C0090019810B900989042F3D1206856
:10268000800337D50120019060686060606820F4A5
:1026900060506060606840F420506060606820F4C2
:1026A000E0606060606840F480606060606813496A
:1026B000084060606068124908436060206840F02C
:1026C0008070206020688001FCD50120FFF730FE7B
:1026D000606820F003006060606840F002006060A5
:1026E0006068C0F381000228FAD1BDE81C400020D8
:1026F000FFF71EBE01911CBD00100240FFFFC01F6E
:10270000000035A010B509F023F80BF075FABDE80C
:10271000104009F03BB8000070B50E484FF47A71D4
:102720004FF0FF350068B0FBF1F1491EB1F1807F39
:102730000AD24FF0E02461610F212846FFF73CFCEC
:102740000020A061072020612846BDE870400021DC
:10275000FFF732BC3C010020144810B5016841F479
:10276000700101601248016841F001010160416897
:10277000104A1140416001680F4A11400160016830
:1027800021F48021016041680C4A11404160016BD5
:102790000B4A114001634FF41F018160FFF758FF9E
:1027A00002494FF000608039086010BD88ED00E0FC
:1027B000001002400C00FFE8FFFFF6FEFFFF0017CD
:1027C00000FFFEFE10B508F0C3FF03480CF03EF911
:1027D000BDE8104008F0DABF20020020C9430180A4
:1027E00070470A0A01219140C943018070470029BE
:1027F000818902D041F4005101E021F4005181812E
:1028000070470246002012880A4200D0012070471B
:1028100070B501F01F0501260024C1F3421306FA2A
:1028200005F2012B0FD0022B0FD0838A4FEA112122
:102830000088134206FA01F600EA060001D000B152
:102840000124204670BD8389F0E7038AEEE710B5C6
:10285000C1F3421301F01F040121A140012B07D055
:10286000022B07D01430002A026805D00A4304E086
:102870000C30F8E71030F6E78A43026010BD000024
:1028800030B50446008A85B00D464CF6FF7108400D
:10289000E98801432182A0894EF6F3110840A988F6
:1028A0002A8911436A8902431143A181A08A4FF604
:1028B000FF410840A9890143A1826846FFF7C4FC93
:1028C0001948844201D1039800E00298A1890904C3
:1028D00000EBC00101EB0010296801D5490000E0C0
:1028E0008900B0FBF1F06422B0FBF2F109010B09A1
:1028F0006FF018056B4300EB8300A3891D044FF0B4
:10290000320306D503EBC000B0FBF2F000F0070085
:1029100005E003EB0010B0FBF2F000F00F000843FD
:10292000208105B030BD0000003801408088C0F330
:1029300008007047174910B588420AD101218C035D
:102940002046FFF775FC2046BDE810400021FFF748
:102950006FBC1149884202D101214C0410E00F499B
:10296000884202D101218C040AE00D49884202D13B
:102970000121CC0404E00B4988420AD101210C0555
:102980002046FFF73DFC2046BDE810400021FFF740
:1029900037BC10BD003801400044004000480040F2
:1029A000004C004000500040C1F308018180704796
:1029B0004FF41651016000218180C18001810C22F9
:1029C00042818181704781070CD1642190FBF1F233
:1029D00001FB120141B94FF4C87190FBF1F201FB08
:1029E000120008B100207047012070470020704796
:1029F00010B5044605484068FDF738FC0449401E00
:102A000051F830102060A1F1140010BDF00000203A
:102A10004006002010B504462F21FDF7ECFD08B15B
:102A2000401C10BD204610BD03480168814201D002
:102A30000120704700207047000100202DE9F04F71
:102A40008BB091468A4605004FF0000605D14FF441
:102A50009B72264926A007F09FFEB9F1000F07D10F
:102A600040F23712214923A007F096FE00E0761CC1
:102A7000A85D202803D0092801D05645F7D37EB39E
:102A80001E48B0460027B61DDFF874B0046810E099
:102A900006221CA12068FDF7D8FD48B920684246EF
:102AA0002946801DFDF7D1FD10B92068805DC0B1B9
:102AB0000C34DBF800008442EAD38FB12821684649
:102AC000FDF7B3FE6A465146284607F0D1FA38B101
:102AD0006946B847C9F8000000200BB0BDE8F08F88
:102AE00001E0A768E9E74FF0FF30F6E7600501086D
:102AF000636D64007265747000000000D8030020EC
:102B0000DC0300205F5F636D645F000070B51446F6
:102B1000050004D13722084908A007F03DFE3CB16A
:102B2000286D62882188036828469847002070BD78
:102B30004FF0FF3070BD0000BD01010870696E20CC
:102B4000213D2052545F4E554C4C000070B51E463E
:102B50001446050004D11822084909A007F01CFEFC
:102B60000CB1042E01D0002070BD286D2188826830
:102B7000284690476080304670BD0000A8010108DB
:102B800070696E20213D2052545F4E554C4C000020
:102B900070B51E461446050004D12722084909A035
:102BA00007F0FAFD0CB1042E01D0002070BD286D95
:102BB0006288218844682846A047304670BD0000DE
:102BC000B201010870696E20213D2052545F4E55BC
:102BD0004C4C000010B5040004D15322114912A03E
:102BE00007F0DAFDA06A0178232906D1E169814264
:102BF00003D9E26A02448A420AD221460FA008F0B1
:102C00001DFE06F02DFCFDF759FB0028FDD110BD7F
:102C100020308142FBD82146BDE810400EA008F0CC
:102C20000DBE0000CAF0000874687265616420215E
:102C30003D2052545F4E554C4C0000007468726544
:102C400061643A257320737461636B206F766572DB
:102C5000666C6F770A0000007761726E696E673A82
:102C600020257320737461636B20697320636C6F1C
:102C7000736520746F20656E64206F6620737461C5
:102C8000636B20616464726573732E0A0000000038
:102C90002DE9FC41194617460446DDE90832DDE915
:102CA0000A651430406000602762E262C4E90913DB
:102CB0002321184608F074FFD4E90A014218D4E928
:102CC0000801154B121F08F0DDFCE061202E04D333
:102CD0009722124912A007F05FFD84F8366084F84D
:102CE000356000206564A063A564206384F8340027
:102CF000A067E067009023460190124A194604F14C
:102D00004C000BF09BF81048816809B120468847B9
:102D10000020BDE8FC810000F5D5000818F100088E
:102D20007072696F72697479203C2052545F544804
:102D3000524541445F5052494F524954595F4D41A9
:102D400058000000C5DA00080801002010B5029CF8
:102D500024F001044472C0E907120021C0E90931DE
:102D600000EBC1021432491C526012600129F7DBEA
:102D700010BD10B5002200EBC201521CF1E9053470
:102D8000012A5C60D1E90034236049600960F2DB0C
:102D900010BD00002DE9F04715460E46070005D18D
:102DA0004FF483721D491E4807F0F6FCFC6DAA46DD
:102DB0004FF0000964BB4FF485721849194807F0B9
:102DC000EBFC25E0FDF77AFA0146E088A288904204
:102DD00001D1A26882B1226812F80080401C80B242
:102DE000E080BA6DC2F38F22904201D3A4F806901E
:102DF000A068012804D005E00846FDF763FA09E061
:102E0000C4F808900846FDF75DFA06F8018B6D1EC0
:102E1000002DD7D1AAEB0500BDE8F0878E0201088E
:102E20002CCE000804CC00080020704770B51D4669
:102E30001646040004D1162209490AA007F0ACFC8A
:102E4000E06F20B9172206490AA007F0A5FC2B461F
:102E50003246E06FBDE8704000210AF055B900002D
:102E6000F203010862757320213D2052545F4E55D4
:102E70004C4C00006275732D3E6F776E6572202199
:102E80003D2052545F4E554C4C00000070B51E461C
:102E90001546040004D1242209490AA007F07CFC4D
:102EA000E06F20B9252206490AA007F075FC3346D9
:102EB0002946E06FBDE8704000220AF025B9000005
:102EC0000704010862757320213D2052545F4E555E
:102ED0004C4C00006275732D3E6F776E6572202139
:102EE0003D2052545F4E554C4C000000022801DC3E
:102EF0000020704700F006BDFEE700B591B0022843
:102F000003DA4FF0FF3011B000BD694605F0F4F967
:102F10000598F8E7022801D8012070470020704783
:102F200070B50D46064600241B49FDF7D1FC00286C
:102F300015D019493046891DFDF7CAFC70B11649F4
:102F400030460D31FDF7C4FC50B1A8074FEA45707B
:102F50000FD5002806DA40F2422413E0012070BDAC
:102F6000022070BD280702D540F242440AE0022444
:102F700008E0002802DA40F2412403E0280701D5E6
:102F800040F2414400222146304607F0E5F800288F
:102F9000E7DA4FF0FF3070BD6E05010870B51446DA
:102FA0000B4658B14FF0FF3501280CD002280AD04B
:102FB00007F0FBFA002806DB201A70BD1146184600
:102FC00005F012FCF8E7284670BD022802DA4FF03F
:102FD000FF307047002206F057BC70B514460B4610
:102FE00001280AD0022808D04FF0FF3550B10BF06D
:102FF000B5FD002806DB201A70BD1146184605F005
:1030000037FCF8E7284670BD08B58DF80000684623
:1030100008F014FC08BD00007FB5C46C0D4620B953
:103020003F222B492BA007F0B7FB25B940222849A6
:103030002DA007F0B1FB24B9422225492EA007F0AC
:10304000ABFB606800F048F96846FFF7B1FC6068C8
:10305000FFF770FC2868009000200C21ADF80C00F0
:10306000ADF80A10297901F00F01082901D00929CA
:1030700002D0ADF8040003E04FF48051ADF8041025
:103080002979C1F3011109B1012902D0ADF8060077
:1030900003E04FF40051ADF806102979C1F3811116
:1030A00019B101290ED002290FD0ADF808006946E8
:1030B0006068FFF7E5FB01216068FFF798FB04B04B
:1030C000002070BD4FF4C060EFE74FF48060ECE784
:1030D000E0FA000873657269616C20213D2052544A
:1030E0005F4E554C4C00000063666720213D205226
:1030F000545F4E554C4C000075736172745F696E7D
:103100007374616E636520213D2052545F4E554CAF
:103110004C000000F8B50D46040004D18022174988
:1031200017A007F039FBE46C24B98222134919A0D7
:1031300007F032FB207A8DF8000002208DF80100A4
:1031400001208DF8020040F22556102D0AD0112DD5
:1031500012D100208DF803006846FEF7FBFE002226
:10316000606806E08DF803006846FEF7F3FE6068CD
:1031700001223146FFF76BFB0020F8BDEFFA000893
:1031800073657269616C20213D2052545F4E554C2D
:103190004C000000757361727420213D2052545F11
:1031A0004E554C4C0000000070B5040004D1A9221B
:1031B0000B490CA007F0F0FAE46C24B9AB220849E3
:1031C0000DA007F0E9FA4FF0FF3520216068FFF706
:1031D00018FB18B16068FFF7A9FBC5B2284670BD9F
:1031E00006FB000873657269616C20213D20525412
:1031F0005F4E554C4C000000757361727420213D88
:103200002052545F4E554C4C000000002DE9F8430D
:1032100004466846FEF75DFC02208DF802002A484D
:103220000426102518274FF48058844223D1012109
:103230004046FEF7F1FF01210420FEF7EDFFDFF825
:103240008C908DF80350ADF8005069464846FEF763
:10325000DFF98DF80370A020ADF8000069464846FC
:10326000FEF7D6F98DF803604020ADF800006946FE
:103270004846FEF7CDF91648844223D104140121B3
:103280002046FEF7B1FF01210820FEF7C5FF8DF8AB
:103290000350104DADF8008069462846FEF7B8F996
:1032A0008DF803704FF42040ADF8000069462846C1
:1032B000FEF7AEF98DF80360ADF800406946284688
:1032C000FEF7A6F9BDE8F883003001400008014090
:1032D00000380040000C014038B504466846FEF74F
:1032E000F8FB02208DF80200104884421CD1012115
:1032F0008803FEF791FF01210420FEF78DFF1820BF
:103300008DF8030060150A4CADF8000069462046B0
:10331000FEF77EF904218DF803100902ADF80010C4
:1033200069462046FEF774F938BD000000380140B8
:10333000000801402DE9F0411F4616460D46C8B26F
:10334000DDF8188005F060F930B1806800F08EF982
:10335000040001D4102C02D30620BDE8F081FCF754
:10336000ADFF014604EB4400134C34F92030AB426E
:1033700012D104EB8002D2F804C0BC450CD1B2F8E3
:1033800002C0B44508D1D2F808C0C44504D10846EB
:10339000FCF798FF0020E0E75B1C04D00846FCF730
:1033A00091FF0720D9E724F8205004EB8000476004
:1033B0004680C0F80880EAE75401002070B54FF05D
:1033C000FF35C8B205F020F930B1806800F04EF941
:1033D000040001D4102C01D3062070BDFCF76EFF51
:1033E00001460A4B04EB440033F92020521C07D05D
:1033F00023F8205003EB800000224260428082606C
:103400000846FCF75FFF002070BD0000540100205B
:103410002DE9FF5F1546C8B205F0F6F8040041D06B
:10342000DFF848910026DFF848B1012D05D0002DC6
:1034300060D0B01F04B0BDE8F09FA06800F016F99E
:1034400005007ED4102D7CD2FCF738FFDFF820A1D8
:1034500005EB45070AF1040A80463AF92700401CAB
:103460001DD009EB47056846FEF733FB02A8FEF7BF
:1034700099F82888ADF80000029002218DF80C60C0
:103480004FF001090AEB87008DF802108DF80E90BD
:10349000408840B1012808D0022809D128E04046E0
:1034A000FCF710FF4DE0082000E00C208DF80D0027
:1034B00069466068FEF7ACF8217C207BFEF77AF85D
:1034C00002A8FEF737F828798DF804008DF80790E8
:1034D00005208DF805008DF8066001A8FEF73AFD7D
:1034E0002988DBF8002040461143CBF8001039E072
:1034F0001020DBE7806800F0B9F8002801DB102815
:1035000001D3344603E000EB400109EB4104C4B1B0
:10351000FCF7D4FE2288DBF8001005469143CBF877
:1035200000108DF8076005208DF805008DF8066005
:103530002088A0F12002B2F5F07F04D801F4787061
:1035400008E0062076E7A0F58060B0F5F84F02D8D5
:1035500001F47C4010B920798DF8040001A8FEF731
:10356000F9FC2846FCF7AEFE002063E74CFA0008A1
:103570005001002038B51446C8B205F045F80500E2
:1035800022D06846FEF7A5FA2889ADF80000102081
:103590008DF8030002218DF802107CB1012C06D0B9
:1035A000022C06D0032C06D0042C06D008E0042000
:1035B00004E0482002E0282000E014208DF80300F9
:1035C00069466868FEF724F838BD10B50024C8B213
:1035D00005F01AF830B101894068BDE8104089B2A1
:1035E000FEF76CBA204610BD10B51446C8B205F0FF
:1035F0000BF8002807D00189E2B24068BDE810400E
:1036000089B2FEF76EBA10BD70B50D46040004D144
:103610009B220B490BA007F0BFF8E46C24B99D2254
:1036200007490DA007F0B8F829466068FFF7BCF914
:1036300080216068FFF7E5F80028F9D0012070BD0F
:10364000FCFA000873657269616C20213D205254B8
:103650005F4E554C4C000000757361727420213D23
:103660002052545F4E554C4C000000000246002092
:10367000012303FA00F1914204D0401C2028F8DB1A
:103680004FF0FF307047000010B51BA008F0D6F8CF
:103690001C4C21781CA008F0D1F82078C00702D07B
:1036A0001FA008F0CBF82078800702D51FA008F0F3
:1036B000C5F82078400702D51FA008F0BFF8207891
:1036C000000702D520A008F0B9F82078C00602D57E
:1036D00020A008F0B3F82078000607D509480F307D
:1036E0000168BDE810401DA008F0A8B8BDE8104072
:1036F0001EA008F0A3B80000627573206661756CA7
:10370000743A0A0029ED00E05343425F43465352A6
:103710005F424653523A307825303258200000003C
:103720004942555345525220000000005052454333
:103730004953455252200000494D50524543495388
:103740004552522000000000554E53544B455252F2
:103750002000000053544B45525220005343422D49
:103760003E424641523A253038580A000A000000CD
:1037700010B50446014696B000220F4801F026FE1F
:10378000002805DA21460DA008F058F816B010BD43
:1037900054216846FDF749F850226946064801F071
:1037A00075FE20B1694609A008F048F8F0E7024824
:1037B00001F0D6FDEAE700001C0B00204F70656E9B
:1037C000202573206661696C65640A00257300001A
:1037D0002DE9F041040023D0FCF718FF6FF01A0721
:1037E0004FF480767D11B04221D82146002002F0AE
:1037F00099F904001BD002F00DF8204606F0D2FC27
:10380000C8B100F09BF8324621460E48FDF734F867
:10381000204607F017FC02F0A7FA0020BDE8F0816F
:1038200001F0F8FF074908A008F008F8F3E7384668
:1038300009F074FB04E0204607F004FC02F094FA5F
:103840002846EBE7C002002025730A0010B50446A5
:103850000020E070401E6063204606F0CDF908B1FC
:10386000042010BD04F2362004F0B2FFA0F52A4176
:10387000553901D0032010BD94F83800E92805D04F
:10388000EB2814D194F83A00902810D104F16E007E
:1038900004F093FF0749B1EB002F06D004F18A0032
:1038A00004F08BFF0449884201D1002010BD0220A2
:1038B00010BD0000004641544641543300E0401C16
:1038C00002780AB18A42FAD1D0B2704710B502A08C
:1038D00007F0B4FF002010BD1B5B324A1B5B4800A1
:1038E0000368826A480A5989B0FBF1F0121D02CAC6
:1038F00019B1884203D3401AF8E7002070471168D5
:103900000844704770B503F0CFFF04004FF0FF3557
:103910000CD001F025FD0646204604F08BF8002E61
:1039200007DA304609F0FAFA284670BD6FF00F004A
:10393000F8E7204604F07EF8002070BD2DE9F04144
:103940000646006803F0B0FF04004FF0FF3713D0C5
:1039500001F006FD0546204604F06CF8204604F010
:1039600069F8304607F06EFB002D08DA284609F0AA
:10397000D5FA3846BDE8F0816FF00F00F7E7002078
:10398000F8E7C269891E921E8A4201D8002070475A
:10399000026B408901FB00207047000070B50E46A5
:1039A0000546012801D001240BE008A007F046FFDE
:1039B0000CA007F043FF06E056F82400FFF7D8FEFE
:1039C000641CAC42F8DB002070BD000055736167D9
:1039D000653A20636174205B46494C455D2E2E2E6E
:1039E0000A000000436F6E636174656E6174652048
:1039F00046494C452873290A0000000010B50C46C2
:103A0000012802D0022803D00AE0064906A005E0FA
:103A10006068FFF7DDFE18B104A0616807F00EFFD3
:103A2000002010BDC002002025730A004E6F2073D5
:103A3000756368206469726563746F72793A2025D2
:103A4000730A000010B5032806D007A007F0F6FEA1
:103A50000BA007F0F3FE04E0D1E90102114600F0EB
:103A6000E3FA002010BD000055736167653A2063DA
:103A70007020534F5552434520444553540A00008B
:103A8000436F707920534F5552434520746F204443
:103A90004553542E0A00000010B50C46022801D0F0
:103AA0000AA00AE00AA16068FCF712FF48B10AA167
:103AB0006068FCF70DFF20B1606800F0A3FD0020F6
:103AC00010BD06A007F0BAFEF9E700002F000000C5
:103AD0002D2D68656C7000002D6800006466205B09
:103AE000706174685D0A000070B50C46022806D04B
:103AF000032807D010A007F0A1FE002070BD496880
:103B000016A015E0002240F24241A06806F024FB16
:103B100005000BD46068FCF779FD02462846616811
:103B20000BF01CF82846FFF7EDFEE6E70CA0A168B5
:103B300007F084FEE1E7000055736167653A206590
:103B400063686F2022737472696E6722205B6669F6
:103B50006C656E616D655D0A0000000025730A00EA
:103B60006F70656E2066696C653A257320666169C1
:103B70006C6564210A00000010B505F067F90020AB
:103B800010BD000010B5012804D0486805F0F0FD14
:103B9000002010BD0048F9E7C002002010B5012840
:103BA00005D04868002105F053FF002010BD03A098
:103BB00007F044FE0AA007F041FEF6E7557361677F
:103BC000653A206D6B646972205B4F5054494F4ECB
:103BD0005D204449524543544F52590A00000000A9
:103BE0004372656174652074686520444952454399
:103BF000544F52592C206966207468657920646F8F
:103C0000206E6F7420616C726561647920657869DB
:103C100073742E0A0000000010B50C460DA2022895
:103C200005D0042806D00CA007F008FE10E0496873
:103C3000104606E010A16068FCF74AFE40B9D4E9DE
:103C4000020101F001FE010002D00CA007F0F6FD18
:103C5000002010BD656C6D0055736167653A206D7D
:103C60006B6673205B2D7420747970655D206465CC
:103C7000766963650A0000002D7400006D6B667341
:103C8000206661696C65642C20726573756C743D87
:103C900025640A0038B50C46032806D028A007F092
:103CA000CDFD2DA007F0CAFD47E0D4E9011238A0F0
:103CB00007F0C4FD00224FF48031A06806F04CFAF2
:103CC000002822DBFFF71EFE4FF4807007F02EFE67
:103CD000050006D0606809F09CFA0146606801445E
:103CE00009E02EA007F0AAFD6FF0040038BD0A78A5
:103CF0002F2A02D0491E8842F9D100912BA2FF2120
:103D00002846A36809F072F90CE000221146A06869
:103D100006F022FA002804DBFFF7F4FDA0680AF0A1
:103D200014FEA5686068294606F0CEFC2DB1A06897
:103D3000A84202D0284607F085F9002038BD0000CF
:103D400055736167653A206D7620534F5552434550
:103D500020444553540A000052656E616D6520533E
:103D60004F5552434520746F20444553542C206FC7
:103D700072206D6F766520534F5552434528732945
:103D800020746F204449524543544F52592E0A0023
:103D90002573203D3E2025730A0000006F757420B6
:103DA0006F66206D656D6F72790A000025732F258F
:103DB0007300000010B505F053FB002010BD00009B
:103DC00010B5034903A007F039FD002010BD000025
:103DD000C002002025730A0070B50E460546012872
:103DE00001D001240BE008A007F028FD0BA007F08C
:103DF00025FD06E056F824000AF0A7FD641CAC423D
:103E0000F8DB002070BD000055736167653A2072D1
:103E10006D2046494C452E2E2E0A000052656D6FCE
:103E200076652028756E6C696E6B29207468652034
:103E300046494C452873292E0A0000002DE9F05F01
:103E40008146884601F11A0004F0C2FC88BB98F84C
:103E50000000012700F03F00401E00EB8001DFF86A
:103E60005CA001EBC00400254FF6FF7B1AF805109B
:103E700001EB080004F0ACFC06466FB1FF2C18D231
:103E800003F054FE074639F81400641C03F04EFE9C
:103E900087420ED1374601E05E450AD16D1C0D2DDB
:103EA000E4D398F80000400606D52FB139F8140085
:103EB00010B10020BDE8F09F0120FBE7D0FD000815
:103EC000F0B50E46016D8BB0CD6C20B95922484932
:103ED00048A006F061FC26B95A2245494AA006F0DE
:103EE0005BFC28680068FFF791F9707800270828C4
:103EF00002D8ADF8047005E010280ED84FF4006029
:103F0000ADF8040005A87468FEF79EF928684549D5
:103F10000068884204D1089803E008200BB0F0BD87
:103F20000798B4EB500F02D3ADF80C7020E0B4EB5F
:103F3000900F01D3082019E0B4EBD00F01D310206B
:103F400014E0B4EB101F01D318200FE0B4EB501FA6
:103F500001D320200AE0B4EB901F01D3282005E014
:103F6000B4EBD01F01D3302000E03820ADF80C00B6
:103F7000307810F0030008D00121012808D0022277
:103F800002280AD003280FD10AE0ADF8087001E03A
:103F9000ADF80810ADF8067006E0ADF8087001E065
:103FA000ADF80810ADF806203078400702D5ADF81E
:103FB0000E7002E08020ADF80E00ADF800704FF4F6
:103FC0008270ADF802004FF40070ADF80A00286866
:103FD00069460068FEF714FB286801210068FEF7B7
:103FE000FAFA286800210068FEF7EBFA002095E74E
:103FF00048FB000864657669636520213D205254C2
:104000005F4E554C4C000000636F6E6669677572B9
:104010006174696F6E20213D2052545F4E554C4CA7
:104020000000000000300140F0B591B00E4605469A
:10403000694601F083FA002805DA294631A007F025
:10404000FDFB11B0F0BDBDF806000427B7EB103F33
:1040500001D1012400E002246946304601F06EFAE5
:10406000002809DBBDF80600B7EB103F02D144F091
:10407000040401E044F00804E00703D0200701D560
:1040800026A02FE0A0074FEA447014D500280DDACF
:104090002846FEF7BFFC0146304601F043FD040010
:1040A0001FD00146284600F0E7F816E031462846C2
:1040B00000F0E2F8C5E7002817DA2846FEF7AAFC68
:1040C0000146304601F02EFD04000AD0002105F023
:1040D000BFFC2146284600F03FF8204606F0B2FF1C
:1040E000AFE719A007F0AAFBABE714F00C0F03D160
:1040F0000021304605F0ACFC3146284600F02CF893
:104100009FE70000636F7079206661696C65642CBD
:10411000206261642025730A00000000637020663D
:1041200061696C642C2063702064697220746F2054
:1041300066696C65206973206E6F74207065726D9E
:104140006974746564210A006F7574206F66206D50
:10415000656D6F72790A00002DE9F0438846DBB087
:10416000814601464FF4803251A801F02FF9002812
:1041700006DA494630A007F061FB5BB0BDE8F0838A
:104180004FF482776C4639466846FCF74EFB3A4658
:10419000694651A801F0FAF800282FDD2AA1201D58
:1041A000FCF796FB0028EED028A1201DFCF790FB21
:1041B0000028E8D0211D484601F0B4FC060013D0C9
:1041C000211D404601F0AEFC050011D0402141A860
:1041D000FCF72BFB41A9304601F0B0F990B1211D4D
:1041E0001BA007F02BFBCEE71FA007F027FB05E085
:1041F0001DA007F023FB304606F024FF51A801F074
:10420000AFF8BAE7BDF80A010421B1EB103F08D1BD
:104210000021284605F01CFC29463046FFF79CFF8C
:1042200003E02946304600F027F8304606F00AFF42
:10423000284606F007FFA6E76F70656E20257320FD
:104240006661696C65640A002E2E00002E00000075
:104250006F70656E2066696C653A20257320666113
:10426000696C65640A0000006F7574206F66206DCC
:10427000656D6F7279210A00F0B504464FF48056DF
:1042800089B00F46304607F051FB05000CD00022E4
:104290002146684601F09AF800280ADA284606F016
:1042A000D1FE21461AA013E01DA007F0C7FA09B0FD
:1042B000F0BD412239461E4801F088F800280ADA8C
:1042C000284606F0BFFE684601F04AF8394619A0B4
:1042D00007F0B4FAEBE732462946684601F0D6F813
:1042E000041E0ADD02462946114801F0FFF9014685
:1042F000A042F0D014A007F0A1FA684601F030F80F
:104300000B4801F02DF8284606F09CFECFE7000090
:1043100052656164202573206661696C65640A00DA
:104320006F7574206F66206D656D6F72790A00007D
:104330001C0B002057726974652025732066616923
:104340006C65640A00000000577269746520666934
:104350006C652064617461206661696C65642C2001
:104360006572726E6F3D25640A0000002DE9F04110
:1043700005680F00804606D004F02CF8022809D208
:104380000120BDE8F0816E6916B1E869B04207D836
:10439000012605E0411CF4D0E9698142F1D83E468E
:1043A0003446E869641CA04202D80224022E0AD3D3
:1043B0002146404604F00EF838B10128E1D0411CF6
:1043C000DFD0B442EDD10020DBE74FF0FF363246BC
:1043D0002146284606F074F830B957B122463946CE
:1043E000284606F06DF820B101280FD001242046A0
:1043F000C7E76C61D5E90601891E884201D2401EDB
:10440000A861287940F001002871F0E73446EEE712
:104410002DE9F35F0E680098002488460068254661
:10442000D0F80C90705D6D1C202818D32F2811D067
:104430005C280FD0FF2C36D2012103F02FFB0700A0
:1044400031D0802F12D2014664A0FFF737FA50BB5B
:104450000CE06D1C715D2F29FBD05C29F9D072191D
:10446000C8F80020202805D204260EE029F8147090
:10447000641CD7E7002608E009EB440030F8020C82
:10448000202801D02E2802D1641E002CF4D1002156
:1044900029F814103CB100980B222021203005F09F
:1044A000D1FA002703E00620BDE8FC9F7F1C39F805
:1044B00017002028FAD02E28F8D01FB146F00306A6
:1044C00000E0641E2CB109EB440030F8020C2E28E9
:1044D000F7D14FF00008C2464FF0080B39F81750DB
:1044E0007F1C05B3202D03D02E2D04D1A74202D06E
:1044F00046F00306F2E7DA4501D2A74219D1BBF133
:104500000B0F0ED0A74201D046F003060BD84FEA9E
:10451000886027464FF0080A4FF00B0B4FEA1068EF
:10452000DCE746F00306009890F82000E5282ED03E
:1045300031E0802D0CD30021284603F0AFFA0500AE
:1045400003D02948284410F8805C46F0020625B1C3
:10455000294626A0FFF7B2F918B15F2546F00306F9
:104560000EE0A5F14100192802D848F0020807E042
:10457000A5F16100192803D8203D48F00108ADB22B
:10458000009850440AF1010A80F82050A6E70098EC
:10459000052180F82010BBF1080F03D14FEA886095
:1045A0004FEA1068C8F38100032803D06FEA0801BE
:1045B000890701D146F00206B10709D408F00301CA
:1045C000012901D146F01006012801D146F0080664
:1045D000009880F82B60002066E70000222A3A3C11
:1045E0003E3F7C7F0000000050FD00082B2C3B3D2F
:1045F0005B5D000010B5024801F02AFB002010BDF1
:10460000DCFB00082DE9F043254989B005AD0EC952
:1046100085E80E0000273C4602A901F07DFB30B181
:1046200020A007F00BF9781E09B0BDE8F0830499CB
:1046300002984FF48065A0FB01012A460023FBF796
:10464000DAFEA9464FF48062821A71F1000219DB8A
:104650004F464A460023FBF7CEFE05460A20A2FB42
:1046600000C803FB00800E46002102FB01013A4610
:1046700000236046FBF7BFFE0746641C2846314610
:10468000022CDFDB029A0499CDE9001205A93A4613
:1046900051F82430014608A007F0D0F80020C3E705
:1046A000ACFB00086466735F7374617466732066A4
:1046B00061696C65642E0A006469736B20667265BB
:1046C000653A2025642E2564202573205B2025640F
:1046D00020626C6F636B2C20256420627974657393
:1046E0002070657220626C6F636B205D0A000000B1
:1046F00070B5040004D15C22124913A006F04CF8F6
:104700006088022802D0256A5DB10FE0246A24B9CE
:1047100063220C4910A006F03FF8204606F092FCF8
:104720000DE06C22074912A006F036F8284606F084
:104730009DF910B16FF00B0070BD002020620020C9
:1047400070BD00003FFC000866696C6520213D20BB
:1047500052545F4E554C4C00726F6F745F646972B7
:10476000656E7420213D2052545F4E554C4C000024
:104770006465765F696420213D2052545F4E554C3C
:104780004C0000002DE9F047056A14460F462DB98C
:1047900040F2091219491AA005F0FEFF4FF4827089
:1047A000B4FBF0F636B1002480464FF001094FF01B
:1047B000080A14E06FF01C00BDE8F08729680822A1
:1047C00051F8201004EB841007EB800000F8019BE7
:1047D00000F801AB20F8028B08F033FD641CB442F2
:1047E00004D2A888E98820448842E7D3A8882044D6
:1047F000A88004EB84108000DEE7000066FC00085F
:10480000726F6F745F646972656E7420213D20520F
:10481000545F4E554C4C000070B515460E460400D2
:1048200004D12522084909A005F0B6FF246A24B95D
:104830002922054909A005F0AFFF2A463146204646
:10484000BDE8704006F068B904FC000866696C6554
:1048500020213D2052545F4E554C4C006465765FDC
:10486000696420213D2052545F4E554C4C0000009D
:10487000002070472DE9F047054640684FF00009D9
:1048800001782F2936D1417899BB6969C90331D59F
:10489000002606F0ADFB092007F018FD070004D143
:1048A0008E22274927A005F077FF07F104087868D2
:1048B00001E00068761C4045FBD1082000EB860033
:1048C00007F034F8040011D004F108002060A4F8C7
:1048D0000490E6800021786806E02368A0F10C02CD
:1048E00043F821200068491C4045F6D106F08EFBB4
:1048F00023E0FFE7401C06F059F904000BD0E06B01
:1049000078B12C622861016891B12846884730B19E
:10491000801D04D00CE06FF01900BDE8F087002086
:10492000FBE70321204606F07FF930B1801D04D05B
:104930006FF00B00C5F82090EFE72C62EFE7000066
:1049400053FC0008696E666F726D6174696F6E204A
:10495000213D2052545F4E554C4C000000207047C2
:104960002DE9F04116460F46040004D138220B49C8
:104970000BA005F011FF256A25B93C2207490CA0C0
:1049800005F00AFF33463A462846E16906F00EFA7A
:10499000E1690144E161BDE8F081000018FC000814
:1049A00066696C6520213D2052545F4E554C4C0089
:1049B0006465765F696420213D2052545F4E554CFA
:1049C0004C0000002DE9F04108780025144648F21B
:1049D000B6164FF4DB772F2801D1487888B1481CF0
:1049E00006F0E4F8F0B12560E780007D80B1012891
:1049F00011D00F2812D0E680656125620020BDE845
:104A0000F08144F2FF102560E08065611562F5E7F2
:104A100042F2B61004E046F2B61001E041F2B610E0
:104A2000E080E9E76FF00800E9E700002DE9F041D8
:104A300016460F46040004D14A220B490BA005F08C
:104A4000ABFE256A25B94E2207490CA005F0A4FE4D
:104A500033463A462846E16906F072FAE1690144B4
:104A6000E161BDE8F08100002BFC000866696C651F
:104A700020213D2052545F4E554C4C006465765FBA
:104A8000696420213D2052545F4E554C4C0000007B
:104A900070B541880024022901D049B118E0056AA7
:104AA0009DB940F2C9120D490DA005F075FE0CE04C
:104AB000056A2DB94FF4E97208490DA005F06CFEA6
:104AC000284601F090FC040002D1284606F0BAFA0C
:104AD0002046BDE8704001F065BC0000EBFC00081A
:104AE00064697220213D2052545F4E554C4C0000A9
:104AF000666420213D2052545F4E554C4C0000000E
:104B000010B5046A2CB94FF40D72054905A005F0E3
:104B100043FE204602F0ADFCBDE8104001F042BC6F
:104B200022FD0008666420213D2052545F4E554C02
:104B30004C0000002DE9F74F8146006AC6B01446CC
:104B40005FEA000B05D140F26A222A492AA005F04B
:104B500023FE4FF4827AB4FBFAF000EB8010800061
:104B60005FEA00080CD00025479805EB851100EBA3
:104B700081046946584602F05BFB060028D104E038
:104B80006FF01C0049B0BDE8F08F9DF81600F8B139
:104B9000002020709DF808000DF11607C00601D511
:104BA000022000E001202070384608F032FB6070DF
:104BB000A4F802A0384608F02CFB421C3946201D00
:104BC00008F03FFB6D1C05EB8511B8EB810FCBD8CE
:104BD0005DB1D9F81C0005EB851100EB810105EBF7
:104BE00085108000C9F81C10CCE7304601F0DAFBD4
:104BF000C8E700003EFD000864697220213D205294
:104C0000545F4E554C4C000070B51646104AD142C8
:104C100002D1046A1CB108E06FF02C0070BD40F2B4
:104C2000E9120C490CA005F0B7FD3168E068656930
:104C3000884204D32046616102F06CFC02E0204609
:104C400001F04FFC6561BDE8704001F0ABBB0000B6
:104C50000000ACADF9FC0008666420213D205254F0
:104C60005F4E554C4C00000070B504460E466188FE
:104C7000002011B1022911D020E0256A2DB940F29F
:104C80004322124912A005F087FD3146284601F063
:104C900028FC98B96869E061686970BD256A2DB91A
:104CA00040F2532209490EA005F076FD4FF48270C0
:104CB000B6FBF0F1284602F08DFB18B1BDE870405C
:104CC00001F070BB3046E66170BD000030FD0008A9
:104CD000666420213D2052545F4E554C4C0000002C
:104CE00064697220213D2052545F4E554C4C0000A7
:104CF0002DE9FC5F81463BA04FF4007800680190ED
:104D00000027404606F012FE05006FF0120B34D06B
:104D1000B9F1000033D0002603F04CFB0446DFF865
:104D2000C8A0401C31D004F130008DF804002B469F
:104D300000220F2101A8CDF8008001F0A1FD8046DE
:104D4000284606F07FF96EB1384606F07BF9E2B2EC
:104D500001A9002002F03AF800214AF82410484640
:104D600005F084FEB8F1000F39D020A006F066FDF2
:104D7000404601F017FBBDE8FC9F5846FBE728467C
:104D800006F060F96FF01C00F5E7002003F012FB5D
:104D90000446401C16D04FF40E7006F0C7FD070005
:104DA00019D001264AF824900321484605F03CFF1B
:104DB00004F130008DF80400E2B201A9384602F097
:104DC00005F8B4E70DA006F039FD284606F03AF9DB
:104DD0006FF02200CFE7284606F034F9CDE7002037
:104DE000C9E70000303A0000C0030020666F726D12
:104DF0006174206572726F720A000000736F7272C4
:104E0000792C207468657265206973206E6F207339
:104E10007061636520746F20646F206D6B66732111
:104E2000200A00002DE9F04F074637A087B0006840
:104E30000090002003F0BEFA0446401C0FD004F19D
:104E40003000DFF8C8808DF80000396848F8241079
:104E500001AA1021386805F05FFE28B10EE06FF05E
:104E6000080007B0BDE8F08F0298B0F5007F05D9C3
:104E7000274806F0E3FC6FF01C00F2E74FF40E70D9
:104E800006F054FD06004FF000096FF0120B06D03B
:104E90000122694601F09AFF050003D013E048F8AB
:104EA000249028E023461BA2082104A808F09EF8BD
:104EB000302006F03BFD5FEA000A12D004A902F0A0
:104EC000B1F8050019D001226946002001F07EFFEB
:104ED00048F82490304606F0B5F8284601F062FA0A
:104EE000BFE701226946002001F070FF48F82490D6
:104EF000304606F0A7F85846B3E75046FE6006F085
:104F0000A1F80020ADE70000303A0000C003002007
:104F1000E807010825643A2F000000002DE9F84356
:104F20000546006A6FF0080620B1C06801F022FA59
:104F3000040002D53046BDE8F8834FF48076304651
:104F400006F0F4FC07006FF0120813D068680090B8
:104F5000234633A23146384608F048F86869C10351
:104F60001ED5400608D5384601F0C6FB040003D024
:104F7000384639E04046DEE7302006F0D7FC040032
:104F800039D0394602F04EF80646384606F05AF84F
:104F900026B1204606F056F8304628E02C623CE068
:104FA0000124C10700D00324810701D544F0020485
:104FB000410601D544F01004810501D544F00804F0
:104FC000000601D544F004044FF40B7006F0AEFC6B
:104FD000060010D02246394601F032FF044638461A
:104FE00006F030F85CB1304606F02CF82046BDE8FB
:104FF000F84301F0D7B9384606F024F8BAE77069EB
:10500000E861F0682E62A861A88A400505D530469F
:10501000F16801F066FA7069E86100208BE7000032
:1050200025643A2573000000F8B505464088164609
:105030000F46022802D02C6A1CB108E06FF01B005A
:10504000F8BD40F20B22094909A005F0A5FB6B460B
:1050500032463946204602F031F86169E96110B103
:1050600001F0A0F9F8BD0098F8BD000007FD0008A8
:10507000666420213D2052545F4E554C4C00000088
:105080002DE9F84316460F46C06801F073F9050094
:1050900003D56FF00800BDE8F8834FF480784046F0
:1050A00006F044FC040012D02B460AA241460097A9
:1050B00007F09CFF3146204602F0F5F805462046F1
:1050C00005F0C0FF2846BDE8F84301F06BB96FF06A
:1050D0001200E0E725643A25730000002DE9F04F47
:1050E000D3B014460F46C06801F044F9060004D559
:1050F0006FF0080053B0BDE8F08F4FF48078404661
:1051000006F014FC050011D0334628A24146009752
:1051100007F06CFF01A9284602F078F9834628467B
:1051200005F090FFBBF1000F03D03BE06FF01200E1
:10513000E0E70020206048F2B610E0809DF80C0007
:10514000C00602D544F2FF10E0809DF80C00C007B5
:1051500003D0E08820F09200E08001986061BDF803
:10516000080000F01F0A400900F00F060509BDF80D
:105170000A0005F2BC75C10640098F0E00F03F0819
:105180004FEA90192C2147A8FBF74FFBA5F26C754D
:10519000761ECDE94B6547A947A881E8800704F052
:1051A00085FC2062584601F0FDF8A3E725643A2506
:1051B000730000003EB50C46050005D140F22B12ED
:1051C000144915A005F0E8FA2CB94FF4967211496C
:1051D00015A005F0E1FAE868009017A243780421D1
:1051E00001A807F003FF6A4602A901A801F00EF921
:1051F00010B101F0D7F83EBD0098029AC16940890C
:10520000891E41435043C4E901104FF400702060EF
:1052100000203EBDDCFC0008667320213D20525476
:105220005F4E554C4C00000062756620213D2052B7
:10523000545F4E554C4C000025643A00F8B50E46BC
:10524000C06801F097F8050002D56FF00800F8BDBE
:105250004FF48077384606F069FB040011D02B46E6
:1052600009A23946009607F0C1FE204602F0ABF9CC
:105270000546204605F0E6FE2846BDE8F84001F068
:1052800091B86FF01200F8BD25643A257300000054
:10529000F8B5054614A000680090EE6826B9AF2264
:1052A000124913A005F078FA286803F083F8044641
:1052B000401C0CD004F130008DF80000012269463A
:1052C000002001F083FD28B101F06CF8F8BD6FF00B
:1052D0000800F8BD0A490020E86041F82400304683
:1052E00005F0B0FE0020F8BD303A0000CCFC00080C
:1052F00066617420213D2052545F4E554C4C000095
:10530000C0030020F8B50546408816460F4602281F
:1053100002D02C6A1CB108E06FF01B00F8BD40F20F
:1053200022220A490AA005F037FA6B46324639466E
:10533000204602F0AAF96169E961E168A96110B14A
:1053400001F030F8F8BD0098F8BD000014FD000829
:10535000666420213D2052545F4E554C4C000000A5
:1053600070B505004FF000040DD02869416819B1EF
:1053700028468847040005D4686805F063FE0020CD
:105380006860204670BD6FF00C0070BD10B143889E
:10539000022B02D06FF01C0070470369DB6903B178
:1053A00018476FF02C00704710B5040008D0206932
:1053B000826942B120469047002800DBE06110BDC1
:1053C0006FF01C0010BD6FF02C0010BD2DE9F041F6
:1053D0009046040025D0002000F0A4FB060023D056
:1053E00000F090F9050022D0E560A86800278068E9
:1053F00020616780C4E90587C4E90775A86800795A
:10540000C0071AD066602069016841B3204688470A
:1054100005002BD5606805F015FE28466760BDE8DD
:10542000F0816FF01C00FAE76FF01200F7E73046EA
:1054300005F008FE6FF00800F1E73146686800F0FB
:105440007AFC50B13146686800F075FC07F0CFFE79
:105450006060304605F0F6FDD5E70BA0F6E7606822
:1054600005F0F0FD6FF02C006760D8E760695FEA37
:10547000C83140F08070606104D50221618040F045
:10548000007060610020CAE72F00000010B5040022
:105490000BD02069C3685BB120469847002803DA27
:1054A000616941F08061616110BD6FF01C0010BD49
:1054B0006FF02C0010BD2DE9F0410F46002501468C
:1054C000284600F02FFB06006FF008042DD0394667
:1054D000002000F027FB050027D0304600F012F92D
:1054E0000446284600F00EF984421CD1A1684B6A9C
:1054F0002BB10979C90705D02A4631460FE06FF074
:105500002C0412E04068294600F015FC074631469D
:10551000606800F010FC0146A0683A46436A2046E5
:105520009847044601E06FF01804304605F08AFD04
:10553000284605F087FD2046BDE8F08170B50E468F
:105540000146002000F0EEFA050007D000F0DAF87E
:10555000040006D028782F2813D014E04FF0FF3035
:1055600070BD25A006F06AF9294627A006F066F965
:1055700031A006F063F9284605F064FD6FF00800DD
:1055800070BD687868B12946606800F0D4FB40B10E
:10559000A068036A8BB10079C0071DD03246294646
:1055A00022E0002044F2FF113060F180706130622F
:1055B000284605F047FD002070BD284605F042FD55
:1055C0000DA006F03BF91EA006F038F91AA006F06F
:1055D00035F96FF02C0070BD2946606800F0ABFB18
:1055E0000146A0683246036A20469847044628468A
:1055F00005F028FD204670BD1B5B33316D5B452FE8
:105600004446535D2000000063616E277420666984
:105610006E64206D6F756E7465642066696C657369
:10562000797374656D206F6E207468697320706182
:1056300074683A25730000001B5B306D0A0000009F
:105640007468652066696C6573797374656D206430
:1056500069646E277420696D706C656D656E742069
:10566000746869732066756E6374696F6E000000FC
:1056700070B50146002000F055FA05000FD000F08B
:1056800041F804000ED0284602F036F968B1A0684F
:10569000C2690AB30079C0070AD0294614E06FF046
:1056A0001C0070BD6FF0080418E06FF0160415E0E0
:1056B0002946606800F03FFB50B12946606800F061
:1056C0003AFB0146A068C26920469047044605E0BF
:1056D000A06805A1C269F7E76FF02C04284605F021
:1056E000B1FC204670BD00002F00000018B1036916
:1056F0001B691BB118476FF01C0070476FF02C003E
:10570000704700002DE9F0474FF000075FEA0008FE
:105710003E4604D15622174917A005F03DF800F087
:1057200079F8174C04F120091CE06068C8B1A16841
:10573000B9B1FAF76BFF0546B04212D32A4641468B
:105740006068FAF782FF60B9012D08D94046FAF780
:105750005DFFA84203D918F805002F2801D127467C
:105760002E4610344C45E0D300F0FEFA3846BDE832
:10577000F087000078FB000870617468000000008A
:10578000D80A002038B5164C206818B115A006F0CC
:1057900055F823E00025656020211748A560FBF738
:1057A00044F81548E560002214A12030256106F078
:1057B000D9FA0B484FF480711430FBF736F80849DA
:1057C0002F2014310870FEF715FF00230DA20FA142
:1057D0001846009500F0CEF801202060002038BD6A
:1057E000AC02002064667320616C7265616479208C
:1057F000696E69742E0A0000D80A002066736C6F07
:10580000636B000064657666730000002F64657644
:105810000000000010B54FF0FF342146074806F0A5
:1058200093FBC11DF9D0002806D0BDE810406B22C3
:10583000034904A004F0B0BF10BD0000F80A002026
:1058400059FB0008300000002DE9F04180460C00B3
:105850004FF0FF371FD0084605F0A8F906001AD010
:10586000FFF7D8FF1F4D002455F8240020B1006831
:105870004146FBF72DF810B1641C022CF4DB00F05C
:1058800073FA022C22DA55F82400416969B13046D6
:10589000BDE8F04108476FF0190007F03FFB12A088
:1058A00005F0CCFF214614A015E00FA005F0C6FFBF
:1058B000414618A005F0C2FF24A005F0BFFF6FF01D
:1058C0002C0007F02BFB3846BDE8F08106A005F060
:1058D000B5FF41461FA005F0B1FF1CA005F0AEFFCB
:1058E000F1E70000B00200201B5B33316D5B452FF8
:1058F0004446535D200000004465766963652028B6
:1059000025732920776173206E6F7420666F756E22
:10591000640000005468652066696C6520737973C3
:1059200074656D2028257329206D6B66732066755C
:105930006E6374696F6E20776173206E6F74206977
:105940006D706C656D656E74000000001B5B306DE2
:105950000A00000046696C652073797374656D20D8
:105960002825732920776173206E6F7420666F7508
:105970006E642E002DE9FF4F89B0934600256FF02D
:1059800019084FF0FF3A20B105F010F9070007D0D1
:1059900000E00027FFF73EFF4A4E06F1080409E049
:1059A000404632E0306820B100685946FAF790FF6F
:1059B00010B1361DA642F5D300F0D6F9A642EFD0BD
:1059C000306800B3C068F0B100200A9900F0AAF86E
:1059D0005FEA00096FF01A0413D03BA1FAF778FFD1
:1059E000C8B13AA14846FAF773FFA0B14FF480322C
:1059F00049466846FFF7EAFC002809DA484605F000
:105A000021FB204601E06FF02C0007F087FA52E0FE
:105A10006846FFF7A5FCFFF7FDFE2E4C04F12008B9
:105A20000AE0A06828B160680A99FAF751FF38B116
:105A300001E005B9254610344445F2D32DB115E0F7
:105A40006FF01C0007F06AFA30E044450ED16FF0A9
:105A5000220007F063FA20A005F0F0FE594622A0CC
:105A600005F0ECFE2DA005F0E9FE1FE0C5F804905E
:105A700030682F60A86000F077F9002427B1032177
:105A8000286805F0D1F858B93068169A0C99C3689F
:105A900028469847002812DA17B1286804F0E6FF74
:105AA000FFF7B8FE2C606C60AC60EC6000F05CF955
:105AB000484605F0C7FA50460DB0BDE8F08F00200B
:105AC000FAE70000B00200202F0000002F64657686
:105AD00000000000D80A00201B5B33316D5B452FAE
