:020000040800F2
:10000000F0140020850200088D020008A7030008F4
:100010009102000893020008950200080000000009
:10002000000000000000000000000000970200082F
:100030009902000800000000F3020008D52A000819
:100040009F0200089F0200089F0200089F0200080C
:100050009F0200089F020008851700081318000877
:100060002D18000841180008551800089F020008C4
:100070009F0200089F0200089F0200089F020008DC
:100080009F0200089F0200089F0200089F020008CC
:100090009F0200089F0200089F02000869180008DC
:1000A0009F0200089F0200089F0200089F020008AC
:1000B0009F0200089F0200089F0200089F0200089C
:1000C0009F0200089F0200089F0200089F0200088C
:1000D0009F020008952B00089F0200089F0200085D
:1000E000991700089F0200089F0200089F0200085D
:1000F0009F0200089F0200089F0200089F0200085C
:100100009F0200089F0200089F0200089F0200084B
:100110009F0200089F0200089F0200089F0200083B
:100120009F0200089F0200089F0200089F0200082B
:100130009F0200089F0200089F0200089F0200081B
:1001400000000000000000000000000000000000AF
:100150009F0200089F0200089F0200089F020008FB
:100160009F0200089F0200089F0200089F020008EB
:100170009F0200089F0200089F02000800F002F89A
:1001800000F068F80AA090E8000C82448344AAF1C9
:100190000107DA4501D100F05DF8AFF2090EBAE8C7
:1001A0000F0013F0010F18BFFB1A43F001031847AB
:1001B00058160100781601000A444FF0000C10F8A0
:1001C000013B13F0070408BF10F8014B1D1108BFD5
:1001D00010F8015B641E05D010F8016B641E01F875
:1001E000016BF9D113F0080F1EBF10F8014BAD1CC5
:1001F0000C1B09D16D1E58BF01F801CBFAD505E0E3
:1002000014F8016B01F8016B6D1EF9D59142D6D33C
:10021000704700000023002400250026103A28BF64
:1002200078C1FBD8520728BF30C148BF0B60704768
:10023000642900F08D81732900F0E184002070476B
:100240001FB50EF03FFF00F0F1FC1FBD10B500F030
:1002500056FD10BD00F06DFF1146FFF7F1FF01F0F4
:1002600025FA01F087F903B4FFF7F0FF03BC03F0B0
:100270002BF80000002804D090FAA0F0B0FA80F02B
:10028000401C70470948804709480047FEE7FEE7E1
:10029000FEE7FEE7FEE7FEE7FEE7FEE7FEE7FEE736
:1002A00004480549054A064B70470000292B000801
:1002B0007D010008F00E0020F0140020F010002056
:1002C000F0100020EFF3108072B6704780F31088B2
:1002D0007047434A1368012B04D04FF001031360A9
:1002E000404A1060404A116040484FF08051016020
:1002F0007047EFF3108272B63948016851B34FF07E
:10030000000101603748016891B1EFF309811EF0E7
:10031000100F08BF21ED108B21E9F00F4FF0000402
:100320001EF0100F08BF012441F8044D0068016061
:100330002D490968096808C9B1E8F00F002B18BFFA
:10034000B1EC108B81F309884EF0100E002B18BF12
:100350002EF0100E82F310884EF0040E70472249E2
:100360000860EFF3148222F0040282F314881D491E
:100370004FF0000008601A494FF0010008601C4867
:100380004FF47F01D0F8002041EA020101601748D4
:100390004FF08051016017480068006880F30888BA
:1003A00061B662B670471EF0040F0CBFEFF3088011
:1003B000EFF3098020E9F00F40F804ED40F804ED78
:1003C0001EF0040F0CBF80F3088880F3098800B585
:1003D0000BF03AF95DF804EB4EF0040E70470000A4
:1003E000AC020020A4020020A802002004ED00E0DE
:1003F00020ED00E008ED00E070477047704710B551
:100400004C1084EA530404D54042C1F1000138BFC6
:10041000491E1B4204D55242C3F1000338BF5B1E84
:1004200000F0E5FA14F0804F04D04042C1F1000121
:1004300038BF491E14F0004F04D05242C3F10003EC
:1004400038BF5B1E10BD00000FB4044910B503AAED
:10045000029800F0D9FB10BC5DF814FBE80D0020F9
:100460000FB41CB50C0007AA009001D02044401E18
:10047000074B7B4469460190069800F08EFB002CE8
:1004800003D06946002000F09BFB1CBC5DF814FB08
:10049000550700002DE9F0410E4604460020206279
:1004A0002046E168884730B3252805D0D4E90121EA
:1004B0009047206A401CF2E7E16820460027884701
:1004C000050018D0A5F14100192802D820354FF4B5
:1004D00000673246294620462760FFF7A9FE40B153
:1004E000012804D0F61D26F007060836D8E7361D89
:1004F000D6E72846DAE7206ABDE8F08170B50C46F9
:100500000546012A05D02878800600D5EA6900232F
:1005100002E0012305E05B1C934202D2E05C00286C
:10052000F9D1A869E618C01AA861286A1844286297
:100530002846AFF3008004E0D5E9012114F8010B4F
:100540009047B442F8D32846AFF3008070BD000056
:100550002DE9F0410646002410687529314616A59C
:1005600010D0AFF30080002802DA404213A507E064
:1005700031688A0701D512A502E0490704D511A503
:10058000012401E0AFF3008000210A2206F12407D4
:1005900009E0B0FBF2FCB0FBF2F302FB1C003030D0
:1005A00078541846491C0028F3D123462A46304681
:1005B000BDE8F04100F092BA000000002D000000FC
:1005C0002B0000002000000007F0D8BC30B5054625
:1005D0000B462A4613F8014B12F8010B08B1A04252
:1005E000F8D01CB1002802D06D1CF1E7284630BDC0
:1005F00040EA010310B59B070FD1042A0DD310C8A0
:1006000008C9121F9C42F8D020BA19BA884201D9F1
:10061000012010BD4FF0FF3010BD1AB1D30703D039
:10062000521C07E0002010BD10F8013B11F8014BEF
:100630001B1B07D110F8013B11F8014B1B1B01D10B
:10064000921EF1D1184610BD40EA0103024630B5B2
:100650009B0710D14FF0013400E008C208C91D1BF0
:100660009D4315EAC41FF8D013F0FF0102F8011BE7
:100670000DD01B0AF8E711F8013B002B02F8013BF3
:1006800005D011F8013B002B02F8013BF3D130BD3E
:100690000022CBB210F8011B994200D1421E002962
:1006A000F8D11046704710B5431C02E010F8011B4A
:1006B00071B18107FAD14FF0013202C88C1A8C4314
:1006C00014EAC211F9D0C01A0A0603D0C01E10BD28
:1006D000C01A10BD0A0401D0801E10BD0902FCD052
:1006E000401E10BD40EA010370B59B072ED14FF0AC
:1006F0000136042A2AD308C810C99D1B9D43121F26
:1007000015EAC61517D0D8B2E1B2401A50EA056111
:1007100010D198B2A1B2401A50EA05410AD123F093
:100720007F4024F07F41401A50EA052102D1180E83
:10073000A0EB146070BDA342DBD018BA21BA884286
:1007400001D9012070BD4FF0FF3070BD0AB9002003
:1007500070BD10F8013B11F8014B63B1A3420AD1FF
:10076000521E08D010F8013B11F8014B1BB1A342F7
:1007700001D1521EEDD1181B70BD421E12F8013F6F
:10078000002BFBD111F8013B002B02F8013BF9D102
:100790007047032A40F2308010F0030C00F01580FF
:1007A00011F8013BBCF1020F624498BF11F801CB74
:1007B00000F8013B38BF11F8013BA2F1040298BFD9
:1007C00000F801CB38BF00F8013B11F0030300F043
:1007D0002580083AC0F0088051F8043B083A51F8E7
:1007E00004CBA0E80810F5E7121D5CBF51F8043BEC
:1007F00040F8043BAFF30080D20724BF11F8013B5F
:1008000011F801CB48BF11F8012B24BF00F8013BC0
:1008100000F801CB48BF00F8012B704710B5203A13
:10082000C0F00B80B1E81850203AA0E81850B1E8A9
:100830001850A0E81850BFF4F5AF5FEA027C24BF5F
:10084000B1E81850A0E8185044BF18C918C0BDE856
:1008500010405FEA827C24BF51F8043B40F8043B1F
:1008600008BF7047D20728BF31F8023B48BF11F8D4
:10087000012B28BF20F8023B48BF00F8012B70472E
:100880004FF000020429C0F0128010F0030C00F0B9
:100890001B80CCF1040CBCF1020F18BF00F8012B37
:1008A000A8BF20F8022BA1EB0C0100F00DB85FEA05
:1008B000C17C24BF00F8012B00F8012B48BF00F8D1
:1008C000012B70474FF0000200B513469446964640
:1008D000203922BFA0E80C50A0E80C50B1F1200153
:1008E000BFF4F7AF090728BFA0E80C5048BF0CC001
:1008F0005DF804EB890028BF40F8042B08BF70475F
:1009000048BF20F8022B11F0804F18BF00F8012BD0
:10091000704710B5044610F0030F08BF11F0030F25
:1009200040F015804FF0013E121FC0F20E8051F8CA
:10093000043BA3EB0E0C2CEA030C1CEACE1C08BFF4
:1009400040F8043BF0D0A1F1040102F10402521E70
:1009500008DB11F8013B002B00F8013BF7D11146F1
:10096000FFF78EFF204610BD4FF0013C50F8042BDE
:1009700051F8043B9A4221D1A2EB0C03934313EAB2
:10098000CC1317D150F8042B51F8043B9A4215D1DF
:10099000A2EB0C03934313EACC130BD150F8042BB6
:1009A00051F8043B9A4209D1A2EB0C03934313EA9A
:1009B000CC13DBD04FF00000704700BFD01A01BA53
:1009C000B1FA81F101F0180122FA01F0CB40C1F136
:1009D0002001DBB2C0B2C01A2CFA01F3D11A914344
:1009E00011EAC311E6D1704770477047704753EA68
:1009F000020C00F069802DE9F04B4FF00006002B4F
:100A00001FBFB3FA83F503FA05F424FA05F65E4036
:100A100012BF1643B2FA82F502FA05F4C5F12005B9
:100A20001EBF22FA05FC44EA0C04203556EA044CA9
:100A30004FEA144418BF641C4FF000084FF000093F
:100A4000904271EB030C39D3002919BFB1FA81F739
:100A500001FA07F6B0FA80F700FA07F6C7F12007A7
:100A60001EBF20FA07FC46EA0C062037B6FBF4FC52
:100A7000A7EB0507103F07F01F0BCBF120060CFA80
:100A80000BFB2CFA06F644BFB3460026202FA4BF6A
:100A90005E464FF0000B5BEA060C08BF4FF0010BFF
:100AA00019EB0B09ABFB027C48EB0608C01B06FBED
:100AB00002CC0BFB03CC71EB0C01C1E70B460246E9
:100AC00041464846BDE8F08B13B54FF000004FF0AB
:100AD0000001AFF30080BDE81C4070472DE9F047EE
:100AE0000D4699469246044600F12408016888069E
:100AF00004D5E06921F01001216000E00120A84246
:100B000001DD471B00E00027A1697A1902EB09000B
:100B1000081AA0612078C00602D42046AFF30080F6
:100B2000002608E0D4E901211AF806009047206A5F
:100B3000401C761C20624E45F4DB2078C0060AD5A6
:100B40002046AFF3008006E0D4E901213020904731
:100B5000206A401C2062381EA7F10107F4DC07E080
:100B6000D4E9012118F805009047206A401C206252
:100B7000281EA5F10105F3DC2046AFF300802078A4
:100B8000000602D50220BDE8F0870120FBE7000047
:100B900001694A1C02610878704700B58FB0CDE941
:100BA00001310021059105497944CDE90310114631
:100BB0006846FFF76FFC0FB000BD0000E5FFFFFFC8
:100BC0000A6802F8010B0A607047D1E900239A42D3
:100BD00002D2531C0B601070704710B5436913B1FB
:100BE000AFF3008001E0FFF789FC012010BD12780F
:100BF00000F124010A7000224A700122EDE7116819
:100C00004FF0FF32E9E70000074B70B50D467B441B
:100C1000FFF7C3FF0446284600F0A4F810B14FF0D8
:100C2000FF3070BD204670BDB37A000010B5424859
:100C30005421FFF747FE41485421FFF743FE404847
:100C40005421FFF73FFE3F493B483C4A3F4B086079
:100C50003D490A603A491960531C0365481C1065F8
:100C6000012008653B48344A39A1784400F0BEF9B8
:100C700020B9384878440A3800F054FA37482F4AE7
:100C800035A1784400F0B2F920B9344878440A38E4
:100C900000F048FA32482A4A2FA1784400F0A6F919
:100CA00020B92F4878440A3800F03CFA4023224803
:100CB000DC000021224600F076F920B12548784476
:100CC000543800F02FFA1D4822464023002100F03E
:100CD0006AF920B121487844543800F023FA1848C2
:100CE00022461023002100F05EF9002806D01C489F
:100CF0007844BDE81040563800F014BA10BD1048D2
:100D000070B5006D20F001040B4800F0E5F90B48C8
:100D100000F0E2F90A4800F0DFF909E0206D20F068
:100D20000105204600F0D8F9204607F0D8FC2C46F3
:100D3000002CF3D170BD0000940D0020E80D0020C0
:100D40003C0E0020080400200C04002010040020A9
:100D500072000000E0FC000077000000CEFC000004
:100D6000BDFC0000007B00F08000704770B50D46B0
:100D700001461446D36850692A4602F0F7FA002863
:100D800007DA411C07D0E16820F0004041F48041BF
:100D9000E160281A70BD204600F058FB4FF0FF308C
:100DA00070BDC1680022026021F4805141F0400111
:100DB00011F4C06FC16001D0826070470269416860
:100DC000891AC269891A816070472DE9F047044683
:100DD000C06840F48000E060010312D520F40020D8
:100DE000E060810606D4E26A61688A4200D80A4659
:100DF000511A216040F40010E06094F82500BDE82D
:100E0000F08720F40010E060800602D5204600F054
:100E100074FBE06842F281014FF0FF390140012983
:100E200003D0204600F012FBB6E02168002600291E
:100E30000ADAC94340F480502160C4E90260606866
:100E4000411C61600078DAE744F2400108420CD0AE
:100E500020F4A04040F040002660E0602169606816
:100E6000401AE169401AA06096E0216991B9C00377
:100E700010D4E06908F06FFF2061B0B1E06840F481
:100E8000006010F4407FE06002D140F48070E060C8
:100E900020696060E068D4F814A0C1061AD5C003C8
:100EA0000ED5204600F006FB14E004F1240020617A
:100EB0000120E061E06820F4407040F48060E6E7E3
:100EC00021696068401AA1690144504602F065FA40
:100ED0000028A6DBE068C0032AD56168E06A884282
:100EE00000D808462169451AE069471B1BD02046F7
:100EF000D4F8188000F0DEFA08EB05015046C4F87B
:100F0000188002F04AFA00288BDBE06840F40030D9
:100F1000E060000202D5A0692844A061E16920696F
:100F2000C91B45180DE0204600F0C4FAE769F5E753
:100F300025696168D4E90607491BE56208446560D4
:100F4000A061E06820F0100010F4C06FE06002D0F3
:100F5000204600F0F3FAE06840F48050C4E90260F3
:100F6000000205D52069E06260606FF0010046E78D
:100F7000224639462846FFF7F9FE411C0CD02918B5
:100F8000E16258B1401E2060681C6060E06840F477
:100F90000030E060287832E7484630E76560204658
:100FA000FFF7FFFEF8E770B5C468A50713D0650228
:100FB00011D4B2F5807F09D0B2F5007F06D0B2F52A
:100FC000806F08D1012300F1240106E05D1E6FF05F
:100FD0007F46B54201D3012070BD0161C36141600C
:100FE00024F470611143C160002070BD2DE9F0410F
:100FF0000C4607461646104600F06EF82078611C35
:1010000061280AD0722802D077283CD102E001255D
:10101000002405E00225042402E0082448F2020529
:1010200011F8010B2B2806D0622809D011F8010C09
:1010300074280AD00BE045F0030544F00204EFE702
:1010400045F0040544F00104EAE744F01004384692
:10105000214602F04DF9411C15D00021316171602B
:101060004FF40071F560F1617061200704D53046DE
:101070000222002100F06EF9306D40F00100306571
:101080003046BDE8F0810020FBE72DE9F0410D4638
:101090000646104C206DC10704D0410804D020F052
:1010A0000104F7E722460EE0542008F054FE070042
:1010B0000ED0206D47F001010843542120653846C9
:1010C000FFF700FC3A4629463046BDE8F0418DE77F
:1010D0000020D6E7940D00202DE9F04704464FF09C
:1010E00000094FF0FF37C568D4E90486A80707D088
:1010F000204600F0DFF9304602F0E0F8002802DA7E
:101100003846BDE8F087280502D5404607F0E7FAE3
:101110004C212046FFF7D6FB206D20F00100206512
:101120004846EEE710B500F033FABDE8104000F095
:101130002ABA754600F046FAAE460500694653469F
:1011400020F00700854618B020B5FFF7A9F8BDE8E4
:1011500020404FF000064FF000074FF000084FF01E
:10116000000B21F00701AC46ACE8C009ACE8C009AF
:10117000ACE8C009ACE8C0098D4670472DE9F047DE
:1011800005460C46C86820F4201040F48000C86072
:10119000800602D5084600F0B0F9E06841F282010D
:1011A0004FF0FF390140022903D0204600F04EF9EC
:1011B000B5E000F42041B1F5004F0FD1C00306D5D2
:1011C0006168E06A884200D80846606006E02069ED
:1011D000E0626060606902F078F8A061A0680022B7
:1011E000EEB200280DDAE1688B050AD4C043A06096
:1011F00041F490302260E0606068411C61600670DC
:10120000A5E0E0689046226040F40050E06020696C
:1012100068BB606902F066F8012704F12405A0B1FB
:10122000A08910F4407F08D0E06908F094FD2061A7
:1012300018B1E06840F4006016E0E7612561E068FD
:1012400020F4407040F480600EE0E06908F083FD17
:1012500000282061F1D0E06840F4006010F4407F85
:10126000E06002D140F48070E06020696060E06876
:1012700025696FF0010AC1051FD56168E06A8842DF
:1012800000D80846411B04D02246284600F0E8F862
:10129000F0BBE068010203D5E562C4E9015854E0FF
:1012A000691CE1626160E16940F48030491EC4E973
:1012B000021030462E70BDE8F087010202D500F41E
:1012C00080320AE06068411C61600670E0680A2EA6
:1012D00040F48030E06006D00022E16A606881421C
:1012E00003D90B4602E00122F7E70346A7895B1BFF
:1012F0007F0503D4E7699F4200DDE2B1814200D857
:101300000146E5620F1AC4E90158002B09DD00E02F
:1013100005E022461946284600F0A2F808B14846E2
:10132000C9E747B1A069E5626560C01BA061E068DC
:1013300040F01000E060E068000208D56168A06934
:10134000E562491B08446560A0615046B3E730463A
:10135000B1E700002DE9F041044616460D46476905
:10136000007B80072ED0384601F0BCFF50BB3EB357
:10137000012E02D0022E25D104E0204600F058F9BB
:1013800005441DE0384601F0A0FFE168002841F067
:101390001001E16005DA204600F058F80120BDE8B0
:1013A000F081C9030BD56268E16A914200D8114609
:1013B000A26911442269891A814200DD0846054468
:1013C000002D01DA0220EAE7E16A6068E268814202
:1013D00006D29103E06203D522F4003141F01002FD
:1013E000A6690027AE4213DCE16A814201D90B46AF
:1013F00000E0034603EB060C2369ACEB030CAC45A1
:1014000006DD814201D98C4600E084469C4505D129
:10141000A760276042F02000A5620DE0AD1BE669E1
:10142000AE1B8142A66000D90846C01A281A206067
:101430005819606022F0200003490840E060002055
:1014400084F84870ABE70000BFCFD7FFC16821F434
:10145000001141F08001C16000218160016070478E
:101460002DE9F047814614460E464FF0FF383248CA
:10147000D5685769054209D03846A16901F08DFF4A
:10148000002811DB2C48C0430540E5602B4632465E
:101490004946384601F089FFA16920F00042B21A9E
:1014A00011440028A16103D02046FFF7CFFF40463A
:1014B000BDE8F08770B504460569C06A6168884276
:1014C00000D80846E16821F42011E160C90312D573
:1014D000A84208D02246411B2846FFF7C1FF10B1A1
:1014E0004FF0FF3070BD0020E562C4E90150E068B4
:1014F00020F48030E060002070BD10B50446C06864
:1015000020F02000E060A16AA06988420DD020464A
:10151000FFF7D0FFE06820F4405040F01000E0609A
:10152000A06AA0612069E062606044F24001E06866
:101530008843E06010BD00001000020070B5054651
:1015400040F202260A4C0FE094F85000C00708D081
:10155000AC4206D0E06836EA000002D1204600F036
:1015600035F8206D20F00104002CEDD170BD000095
:10157000940D002010B50446AFF300802046BDE86E
:101580001040FEF770BE002801D001F09DBE7047EC
:1015900010B5014602A000F06CF8012010BD00005B
:1015A00053494752545245443A2052656469726522
:1015B00063743A2063616E2774206F70656E3A2001
:1015C0000000000000487047900E002070B50446EF
:1015D000C068810713D0800601D5A56A04E0A1691F
:1015E000606808442169451A2046FFF763FF00221E
:1015F000064629462046FFF7ADFE304670BD002066
:1016000070BD70B510B1BDE87040DFE70025074C34
:101610006E1E07E02046FFF7D9FF00B13546206D6A
:1016200020F00104002CF5D1284670BD940D002057
:1016300010B50146C268900703D0900607D5886AA6
:101640000AE000F02FF801210160881E10BD8B69AF
:10165000486818440B69C01A91F848301BB191F8DA
:101660004910401A10BD1103FCD50028FADD401EB8
:1016700010BD70B505460C460A2000E06D1C01F057
:10168000ABFE35B128780028F8D102E0641C01F0E7
:10169000A3FE14B120780028F8D1BDE870400A20DC
:1016A00001F09ABE00487047900E002010B50DF072
:1016B0001CF9002010BD00000024EF231A4621462B
:1016C000204600F0B3FD294FD7F834010128FBD0A4
:1016D000D7F834010028FBD0641C0A2CF4D3FEF7A1
:1016E000F1FDDFF88C80234E234D0021084600F0E9
:1016F0006DFD35E0D5F818010028FBD0D8F80000C2
:101700004246C1B23180D5F818010128FBD0D5F886
:1017100018010028FBD01068C0B241EA0020A0F5F3
:101720007F413080FF3902D1641C844218D000F020
:10173000DDFF308000F09AFB1049308001220A6101
:101740000A154A610E4B18600220486108610A615F
:10175000D5F818010128FBD0D7F838010028C9D1E5
:10176000D7F834010128C0D1F6E7000000802142FB
:101770000814014030010020000022420010014006
:101780000C18014010B50AF0E3F9012000F0E6F86A
:10179000BDE810400AF0FAB910B50AF0D9F94FF4D3
:1017A0008064204600F076F810B1204600F0D6F8AC
:1017B0004FF40064204600F06DF810B1204600F0B0
:1017C000CDF84FF48054204600F064F810B1204664
:1017D00000F0C4F84FF40054204600F05BF810B15C
:1017E000204600F0BBF84FF48044204600F052F849
:1017F00010B1204600F0B2F84FF40044204600F04B
:1018000049F810B1204600F0A9F8BDE810400AF0F0
:10181000BDB910B50AF09CF9022000F035F802209D
:1018200000F09CF8BDE810400AF0B0B910B50AF01D
:101830008FF9042000F092F8BDE810400AF0A6B934
:1018400010B50AF085F9082000F088F8BDE81040CE
:101850000AF09CB910B50AF07BF9102000F07EF870
:10186000BDE810400AF092B90548816829B100210D
:10187000816004494020086070470121F8E70000BA
:101880003001002014040140014908607047000045
:1018900014040140064A014600201268044B0A4025
:1018A00014331B680B4202D0002A00D0012070477D
:1018B0000004014030B51A4A8379016853B31368B4
:1018C0008B431360111D0B680468A3430B600179FF
:1018D00011440B68046823430B60114B08331968EB
:1018E0000468A14319601C1D21680568A943216093
:1018F0004179102905D011440A68006802430A6042
:1019000030BD1968026811431960216800680143FD
:10191000216030BD0079104402688A43026030BD06
:10192000000401400021016001710C2242718171AB
:101930007047000010B58A0721F003040649120F12
:1019400021440F238C6893409C438C608B689040AB
:1019500003438B6010BD00000000014010B502F091
:101960006DF800EB4004084800EB44004088FFF7A6
:101970008BFF064800EB84004168002903D0806893
:10198000BDE81040084710BD2CFE0008580100209B
:10199000F0B5CC78002204F00F03E40601D58C7872
:1019A00023430C784FF00F0C14F0FF0F4FF0010E93
:1019B0001BD005680E880EFA02F42640A64210D10C
:1019C00096000CFA06F725EA070703FA06F5CE7823
:1019D0003D43282E02D0482E02D002E0446100E0B0
:1019E0000461521C082AE5D305600A88FF2A1CD925
:1019F0004468002202F108060EFA06F50E882E4011
:101A0000AE420ED196000CFA06F7BC4303FA06F775
:101A1000CE783C43282E00D14561CE78482E00D1A7
:101A20000561521C082AE5D34460F0BD70B5B0F1E1
:101A3000004F63D96FF07F4303EAD01400F07F03B7
:101A4000180903F00F03850003FA05F5062C14D2DC
:101A5000DFE804F00305080B0E11F44A0DE0F34A29
:101A6000121D0AE0F14A083207E0F04A0C3204E0A5
:101A7000EE4A103201E0ED4A143270B1012810D064
:101A800002281DD003281FD0042821D0052823D0E8
:101A9000062825D0072827D02AE0106820F00F005C
:101AA00025E0012C03D0106820F0F0001FE0106842
:101AB000042B02D920F0C00019E020F0300016E01D
:101AC000106820F4706012E0106820F470400EE09E
:101AD000106820F470200AE0106820F4700006E01E
:101AE000106820F0706002E0106820F07040106014
:101AF000012902D110682843106070BDCB4A4FF411
:101B00008025203AA8420FD040DCB0F5007F71D08C
:101B10001EDC10286FD008DC01286DD0022803D00D
:101B2000042801D00828E8D198E0302878D040284F
:101B300077D0C02876D0B0F5807FDED1506820F411
:101B4000407050600129D8D1506840F480704BE15A
:101B5000B0F5804F67D00CDCB0F5407F7AD0B0F59F
:101B6000006F78D0B0F5406F76D0B0F5805FC4D10B
:101B700074E0B0F5C04F70D0B0F5004F6ED0B0F546
:101B8000803F6BD0B0F5003FB7D167E0B0F1005FA8
:101B900077D032DCB0F5000F74D015DCB0F5002F33
:101BA0005CD0B0F5801F59D0B0F5001F6BD0B0F5F8
:101BB000800FA2D1506820F48000506001299CD190
:101BC000506840F480000FE1B0F1807F70D0B0F138
:101BD000007F6ED0B0F1806F6CD0B0F1805F8CD19F
:101BE000506820F080505060012986D1506840F044
:101BF0008050F9E073E047E039E08D4C031BA042D0
:101C00001DD011DCB0F1804F73D0A0F18043203B98
:101C100015D0B3F5787F12D0864CE3428DD10EE01B
:101C20003CE048E051E086E0AB4277D0B3F5402F8E
:101C300075D0B3F5A01F73D0B3F5E01F97D1D3696A
:101C4000C0F315008343D361012990D1D1690143C9
:101C5000D16170BD4EE057E063E076E053688343A6
:101C600053600129F5D1516801435160F1E7506893
:101C7000714B184050600129EBD1506840F00100D1
:101C8000B2E094E09DE0A6E0506820F030005060A3
:101C90000129DED1506840F01000A5E0506820F026
:101CA000300050600129D4D1506840F030009BE0F2
:101CB00055E05EE067E0506820F0C0005060012908
:101CC000C7D1506840F040008EE0506820F0C0005E
:101CD00050600129BDD1506840F0C00084E05068D8
:101CE00020F4407050600129B3D1506840F4007076
:101CF0007AE052E0506820F4407050600129A8D189
:101D0000506840F440706FE0506820F440605060CC
:101D100001299ED1506840F4006065E066E06FE004
:101D200078E0506820F440605060012991D15068FB
:101D300040F4406058E0506820F4C04050600129F1
:101D400087D1506840F480404EE0506820F4C04095
:101D5000506001298AD1506840F4C04044E0506886
:101D600020F0E0605060012986D1506840F080701A
:101D70003AE0506820F0E0605060012989D1506855
:101D800040F0007030E0506820F0E06050600129C1
:101D900089D1506840F0806026E0506820F0804093
:101DA000506001298CD1506840F080401CE05068A0
:101DB00020F00050506001298CD1506840F0005054
:101DC00012E0506820F40000506001298CD1506866
:101DD00040F4000008E0506820F400105060012931
:101DE0008DD1506840F40010506032E7D06920F483
:101DF000C010D0610129F8D1D06940F4002012E070
:101E0000D06920F4C010D0610129EED1D06940F42E
:101E1000801008E0D06920F4C010D0610129E4D11D
:101E2000D06940F4C010D06113E7000020000140E9
:101E3000000004402000FEFFFEFFFF7F024600205E
:101E400092680A4200D001207047416170470161E9
:101E500070474FF6FF710180022181700421C1702B
:101E600070470AB1016170474161704700F01F017E
:101E70003F23CA0203EA400042EA40100843704789
:101E800038B50121512000F097FB01214806FFF7EA
:101E9000CDFD40F22F44ADF8004010208DF8030036
:101EA00001200C4D8DF8020069462846FFF770FDB1
:101EB00021462846FFF7CBFF074D4FF6FF74ADF8DC
:101EC000004069462846FFF763FD21462846FFF794
:101ED000BEFF38BD001001400018014010B5FFF7EB
:101EE000CFFF00F063F9D32000F0DEF900F02EF907
:101EF00000F02CF900F02AF9924C4FF6FF7101EA3C
:101F00000020A08000F022F9A1880843A080CF2003
:101F100000F0CAF9002000F0B7F9C12000F0B4F9D0
:101F2000302000F0B1F9ED2000F0BEF9642000F09F
:101F3000ABF9032000F0A8F9122000F0A5F98120E8
:101F400000F0A2F9E82000F0AFF9852000F09CF93C
:101F5000102000F099F97A2000F096F9CB2000F0DB
:101F6000A3F9392000F090F92C2000F08DF9002021
:101F700000F08AF9342000F087F9022000F084F99B
:101F8000F72000F091F9202000F07EF9EA2000F01F
:101F90008BF9002000F078F9002000F075F9C020DE
:101FA00000F082F91B2000F06FF9C12000F07CF9ED
:101FB000012000F069F9C52000F076F9302000F02A
:101FC00063F9302000F060F9C72000F06DF9B72008
:101FD00000F05AF9362000F067F9482000F054F973
:101FE0003A2000F061F9552000F04EF9B12000F0E0
:101FF0005BF9002000F048F91A2000F045F9B620FE
:1020000000F052F90A2000F03FF9A22000F03CF95C
:10201000F22000F049F9002000F036F9262000F007
:1020200043F9012000F030F9E02000F03DF90F20E5
:1020300000F02AF92A2000F027F9282000F024F9DE
:10204000082000F021F90E2000F01EF9082000F011
:102050001BF9542000F018F9A92000F015F94320CD
:1020600000F012F90A2000F00FF90F2000F00CF92F
:10207000002000F009F9002000F006F9002000F02F
:1020800003F9002000F000F9E12000F00DF9002034
:1020900000F0FAF8152000F0F7F8172000F0F4F837
:1020A000072000F0F1F8112000F0EEF8062000F013
:1020B000EBF82B2000F0E8F8562000F0E5F83C2083
:1020C00000F0E2F8052000F0DFF8102000F0DCF866
:1020D0000F2000F0D9F83F2000F0D6F83F2000F0A4
:1020E000D3F80F2000F0D0F82B2000F0DDF800200E
:1020F00000F0CAF8002000F0C7F8012000F0C4F892
:102100003F2000F0C1F82A2000F0CEF8002000F0B7
:10211000BBF8002000F0B8F8002000F0B5F8EF2080
:1021200000F0B2F8112000F0BFF878200BF072FD3B
:10213000292000F0B9F800F065F803490120C1F842
:10214000940110BDC4090020000022422DE9F0478F
:10215000DFF850904FF08830C9F8000009F104050D
:102160002860104E00200C3630600F4C012020619A
:10217000870267614FF00408C4F81480022009F058
:102180009FFC281D0068C4F8108080B227614FF0C2
:102190003331C9F8001029604FF6FF713160BDE896
:1021A000F0870000001801400010014070B5064C97
:1021B0000825656164200BF02DFD2561BDE87040A8
:1021C00032200BF027BD00000010014070B50C4E0E
:1021D00005460C46B07A00F067F8280A00F054F87B
:1021E000E8B200F051F8307B00F05EF8200A00F011
:1021F0004BF8E0B200F048F8BDE8704000F064B879
:10220000C409002008482C21018100218171F0219E
:1022100001804FF4A07141802A2141812B218181CD
:10222000C921362000F056B8C40900202DE9F0413C
:10223000DFF8508007461C4615460E4698F80A00FF
:1022400000F032F8380A00F01FF8F8B200F01CF87D
:10225000280A00F019F8E8B200F016F898F80C0017
:1022600000F022F8300A00F00FF8F0B200F00CF89D
:10227000200A00F009F8E0B200F006F8BDE8F041ED
:1022800000F022B8C4090020054901220A610A159C
:102290004A61044B18600220486108610A61704776
:1022A000001001400C180140054901224A610A153D
:1022B0004A61044B18600220486108610A61704756
:1022C000001001400C1801400148007AFFF7ECBFF4
:1022D000C409002010B50C46FFF7E6FF2046BDE814
:1022E0001040FFF7D1BF000030B50F23C27801784E
:1022F0000125F2B1144A126801F1E02102F4E06212
:10230000C2F5E062120AC2F10404D3404278A2404E
:1023100084781C401443220181F80024007800F0E6
:102320001F018D404009800000F1E020C0F80051FD
:1023300030BD01F01F0085404809800000F1E02019
:10234000C0F8805130BD00000CED00E00907090E17
:10235000002806DA00F00F0000F1E02080F8141DDC
:10236000704700F1E02080F8001470472DE9F84331
:1023700000240121392000F01FF94020ADF80000B1
:1023800048258DF803500220554F8DF8020069460C
:102390003846FFF7FDFA40213846FFF758FD802008
:1023A000ADF8000010268DF8036069463846FFF747
:1023B000EFFA80213846FFF74AFDFF20ADF8000014
:1023C0008DF8035069464748FFF7E2FA7702DFF8D5
:1023D0001881ADF800708DF8035069464046FFF74C
:1023E000D7FA39464046FFF732FDF702ADF80070E4
:1023F0008DF8036069464046FFF7CAFA3946404601
:10240000FFF725FDB602ADF800608DF80350694670
:102410004046FFF7BDFA31464046FFF718FD334806
:102420000025C0F89C5114200BF0F4FB304EC6F888
:10243000BC51142006F5DE760BF0ECFB0120306079
:1024400000F06CF90121FF2000F084FA80211220B5
:1024500000F080FA64200BF0DDFB1C2000F0E2F9B4
:102460004FF6FF7505EA00261D2000F0DBF940EA73
:102470000601A1F5FE40A23805D01EA0FDF7E4FF3D
:102480000120BDE8F8830A2000F0CCF905EA002518
:102490000B2000F0C7F940EA0501A1F518504238B9
:1024A00004D017A0FDF7D0FF0220EAE7174D05EB97
:1024B0004400417815F8140000F04CFA641CA4B2F2
:1024C000B22CF4D34FF4FA700BF0A4FB00F04AF8EE
:1024D000F021084600F01CF808F09DF80020D0E735
:1024E0000010014000140140000C01400000224295
:1024F000008021424D49443A25640D0A0000000045
:102500004849443A25640D0A0000000023F60008FB
:1025100070B5820701D0012070BD8A0701D002206A
:1025200070BD84088D080021FF2000F013FA0421FB
:10253000E02000F00FFAE1B25A2000F00BFAE9B205
:102540005B2000F007FA0421C4F3012001EA951191
:1025500001435C2000F0FEF90021E02000F0FAF9D0
:10256000002070BD70B5074D002405EB4400417894
:1025700015F8140000F0EEF9641CA4B20E2CF4D38C
:1025800070BD0000A5F70008044A0029D16901D0F8
:10259000014300E08143D161704700000010024018
:1025A000044A0029116901D0014300E0814311610F
:1025B0007047000000100240044A0029916901D0D0
:1025C000014300E081439161704700000010024028
:1025D000044A0029D16801D0014300E08143D16061
:1025E000704700000010024030B5334B5968334A41
:1025F00011F00C0103D0042901D0082901D0026098
:1026000027E059682E4A11405A6811F0C04F02F471
:10261000803405D1C1F383420F2A01D0022200E0A9
:102620000122302505EA5165C1F383410D4351195B
:1026300014B15A68920301D5224A00E01F4A51435F
:1026400001605968002904DB1F4902688A4200D9E9
:10265000016059685A68C1F302111C4C120601D579
:10266000615C00E000210268CA40426059685D6810
:10267000C1F301216D0501D5615C00E0002122FA62
:1026800001F1816059685D68C1F3C121AD0401D5D4
:10269000615C00E00021CA40C26059685B68C1F318
:1026A0008131DB0001D541F00401084B0833595C4E
:1026B000B2FBF1F1016130BD0010024000127A005E
:1026C00000003C6000093D0000A24A04F80300201D
:1026D00005490128486D03D020F030004865704757
:1026E00040F03000FAE7000000100240C20AC0F3D8
:1026F000451100F01F004D2312FB03F2C1EB011145
:1027000001EB810102EB410100EB4002C2EB401002
:1027100008448030C0F30F207047000038B5012115
:102720000820FFF749FF4FF48054ADF800404820DF
:102730008DF803000220114D8DF8020069462846ED
:10274000FFF726F921462846FFF781FBE410ADF894
:10275000004010228DF8032069462846FFF718F93B
:1027600021462846FFF773FB281D016821F47021DC
:102770000160016841F44031016038BD000C014046
:1027800070B5322009F09CF90A4C0120C4F8B00160
:10279000C4F8A401322004F5D27409F091F900259F
:1027A0002560322009F08CF9E560BDE870403220E8
:1027B00009F086B9008021422DE9F047174F002427
:1027C000386820F470203860386840F400203860A1
:1027D000134E08254FF00108A146322009F070F988
:1027E000C6F8A4816006040ED6F8300108B1641C56
:1027F000E4B2322009F064F9C6F8A4916D1E15F018
:10280000FF05EAD1386820F470203860386840F459
:10281000403038602046BDE8F0870000040C0140DD
:102820000080214210B5044600F022F8602000F03C
:102830004DF8642009F044F9204600F047F8642080
:1028400009F03EF900F02AF8642009F039F900F0A7
:102850000FF8612000F03AF8642009F031F9FFF731
:10286000ABFF0446FFF78CFF00F018F8204610BDC0
:1028700070B5094C0120C4F8B001C4F8A40132209D
:1028800004F5D27409F01CF90025E560322009F046
:1028900017F9256070BD00000080214270B50A4C18
:1028A0000020C4F8B001322004F5D27409F008F910
:1028B00001252560322009F003F9E560BDE870408C
:1028C000322009F0FDB80000008021422DE9F041DE
:1028D00000241E4E0546A0460127280602D5C6F84C
:1028E000B07101E0C6F8B0816806050E322009F02B
:1028F000E7F8C6F8A471322009F0E2F8C6F8A4811E
:10290000641CE4B2082CE8D3114C206820F4702039
:102910002060206840F400202060322009F0D0F8C8
:10292000C6F8A471322009F0CBF8D6F8300100B116
:102930000120C6F8A481216821F47021216021685A
:1029400041F440312160BDE8F08100000080214267
:10295000040C014070B50D4606460024FFF788FFC1
:102960006020FFF7B3FF00B10124642009F0A8F84C
:102970003046FFF7ABFF00B10124642009F0A0F856
:102980002846FFF7A3FF00B10124FFF787FF204689
:1029900070BD0029018802D041F4005101E021F40A
:1029A0000051018070470029018802D041F04001A8
:1029B00001E021F0400101807047024600201289A9
:1029C0000A4200D00120704780897047818170479A
:1029D00030B502888B8902F441521B04838802D5EA
:1029E00043F4807301E023F4807383800B884C8868
:1029F000CD8823438C882C4323430C8923434C8963
:102A000023438C89C4F30E042343CC89234313430B
:102A10000380828B22F400628283098A018230BDA6
:102A20001CB50021284C00910191206840F48030B1
:102A300020604FF44052206800F40030019000986C
:102A4000401C0090019810B900989042F3D1206882
:102A5000800337D50120019060686060606820F4D1
:102A600060506060606840F420506060606820F4EE
:102A7000E0606060606840F4806060606068134996
:102A8000084060606068124908436060206840F058
:102A90008070206020688001FCD50120FFF718FEBF
:102AA000606820F003006060606840F002006060D1
:102AB0006068C0F381000228FAD1BDE81C40002004
:102AC000FFF706BE01911CBD00100240FFFFC01FB2
:102AD000000035A010B509F03BF80BF08DFABDE809
:102AE000104009F053B8000070B50E484FF47A71E9
:102AF0004FF0FF350068B0FBF1F1491EB1F1807F66
:102B00000AD24FF0E02461610F212846FFF71EFC36
:102B10000020A061072020612846BDE87040002108
:102B2000FFF714BC40010020144810B5016841F4BF
:102B3000700101601248016841F0010101604168C3
:102B4000104A1140416001680F4A1140016001685C
:102B500021F48021016041680C4A11404160016B01
:102B60000B4A114001634FF41F018160FFF758FFCA
:102B700002494FF000608039086010BD88ED00E028
:102B8000001002400C00FFE8FFFFF6FEFFFF0017F9
:102B900000FFFEFE10B508F0DBFF03480CF056F90D
:102BA000BDE8104008F0F2BF24020020C9430180B4
:102BB00070470A0A01219140C943018070470029EA
:102BC000818902D041F4005101E021F4005181815A
:102BD00070470246002012880A4200D00120704748
:102BE00070B501F01F0501260024C1F3421306FA57
:102BF00005F2012B0FD0022B0FD0838A4FEA11214F
:102C00000088134206FA01F600EA060001D000B17E
:102C10000124204670BD8389F0E7038AEEE710B5F2
:102C2000C1F3421301F01F040121A140012B07D081
:102C3000022B07D01430002A026805D00A4304E0B2
:102C40000C30F8E71030F6E78A43026010BD000050
:102C500030B50446008A85B00D464CF6FF71084039
:102C6000E98801432182A0894EF6F3110840A98822
:102C70002A8911436A8902431143A181A08A4FF630
:102C8000FF410840A9890143A1826846FFF7ACFCD7
:102C90001948844201D1039800E00298A1890904EF
:102CA00000EBC00101EB0010296801D5490000E0EC
:102CB0008900B0FBF1F06422B0FBF2F109010B09CD
:102CC0006FF018056B4300EB8300A3891D044FF0E0
:102CD000320306D503EBC000B0FBF2F000F00700B2
:102CE00005E003EB0010B0FBF2F000F00F0008432A
:102CF000208105B030BD0000003801408088C0F35D
:102D000008007047174910B588420AD101218C0389
:102D10002046FFF75DFC2046BDE810400021FFF78C
:102D200057BC1149884202D101214C0410E00F49DF
:102D3000884202D101218C040AE00D49884202D167
:102D40000121CC0404E00B4988420AD101210C0581
:102D50002046FFF725FC2046BDE810400021FFF784
:102D60001FBC10BD00380140004400400048004036
:102D7000004C004000500040C1F3080181807047C2
:102D80004FF41651016000218180C18001810C2225
:102D900042818181704781070CD1642190FBF1F25F
:102DA00001FB120141B94FF4C87190FBF1F201FB34
:102DB000120008B1002070470120704700207047C2
:102DC00010B5044605484068FDF754FA0449401E12
:102DD00051F830102060A1F1140010BDF000002067
:102DE0004406002010B504462F21FDF751FC08B120
:102DF000401C10BD204610BD03480168814201D02F
:102E00000120704700207047000100202DE9F04F9D
:102E10008BB091468A4605004FF0000605D14FF46D
:102E20009B72264926A007F0B7FEB9F1000F07D123
:102E300040F23712214923A007F0AEFE00E0761CD5
:102E4000A85D202803D0092801D05645F7D37EB3CA
:102E50001E48B0460027B61DDFF874B0046810E0C5
:102E600006221CA12068FDF73DFC48B920684246B7
:102E70002946801DFDF736FC10B92068805DC0B181
:102E80000C34DBF800008442EAD38FB12821684675
:102E9000FDF718FD6A465146284607F0E9FA38B1B1
:102EA0006946B847C9F8000000200BB0BDE8F08FB4
:102EB00001E0A768E9E74FF0FF30F6E740090108B5
:102EC000636D64007265747000000000DC03002014
:102ED000E00300205F5F636D645F000070B514461F
:102EE000050004D13722084908A007F055FE3CB17F
:102EF000286D62882188036828469847002070BDA5
:102F00004FF0FF3070BD00009D05010870696E2014
:102F1000213D2052545F4E554C4C000070B51E466A
:102F20001446050004D11822084909A007F034FE10
:102F30000CB1042E01D0002070BD286D218882685C
:102F4000284690476080304670BD00008805010823
:102F500070696E20213D2052545F4E554C4C00004C
:102F600070B51E461446050004D12722084909A061
:102F700007F012FE0CB1042E01D0002070BD286DA8
:102F80006288218844682846A047304670BD00000A
:102F90009205010870696E20213D2052545F4E5504
:102FA0004C4C000010B5040004D15322114912A06A
:102FB00007F0F2FDA06A0178232906D1E169814278
:102FC00003D9E26A02448A420AD221460FA008F0DD
:102FD00035FE06F039FCFDF775F90028FDD110BD6E
:102FE00020308142FBD82146BDE810400EA008F0F9
:102FF00025BE0000AAF4000874687265616420218F
:103000003D2052545F4E554C4C0000007468726570
:1030100061643A257320737461636B206F76657207
:10302000666C6F770A0000007761726E696E673AAE
:1030300020257320737461636B20697320636C6F48
:10304000736520746F20656E64206F6620737461F1
:10305000636B20616464726573732E0A0000000064
:103060002DE9FC41194617460446DDE90832DDE941
:103070000A651430406000602762E262C4E9091307
:103080002321184608F08CFFD4E90A014218D4E93C
:103090000801154B121F08F0F5FCE061202E04D347
:1030A0009722124912A007F077FD84F8366084F861
:1030B000356000206564A063A564206384F8340053
:1030C000A067E067009023460190124A194604F178
:1030D0004C000BF0B3F81048816809B120468847CE
:1030E0000020BDE8FC810000F5D90008F8F40008D4
:1030F0007072696F72697479203C2052545F544831
:10310000524541445F5052494F524954595F4D41D5
:1031100058000000C5DE00080801002010B5029C20
:1031200024F001044472C0E907120021C0E909310A
:1031300000EBC1021432491C526012600129F7DB16
:1031400010BD10B5002200EBC201521CF1E905349C
:10315000012A5C60D1E90034236049600960F2DB38
:1031600010BD00002DE9F04715460E46070005D1B9
:103170004FF483721D491E4807F00EFDFC6DAA46F0
:103180004FF0000964BB4FF485721849194807F0E5
:1031900003FD25E0FDF796F80146E088A2889042FD
:1031A00001D1A26882B1226812F80080401C80B26E
:1031B000E080BA6DC2F38F22904201D3A4F806904A
:1031C000A068012804D005E00846FDF77FF809E073
:1031D000C4F808900846FDF779F806F8018B6D1ED3
:1031E000002DD7D1AAEB0500BDE8F0876E060108D7
:1031F0002CD2000804D000080020704770B51D468E
:103200001646040004D1162209490AA007F0C4FC9E
:10321000E06F20B9172206490AA007F0BDFC2B4633
:103220003246E06FBDE8704000210AF06DB9000041
:10323000D207010862757320213D2052545F4E551C
:103240004C4C00006275732D3E6F776E65722021C5
:103250003D2052545F4E554C4C00000070B51E4648
:103260001546040004D1242209490AA007F094FC61
:10327000E06F20B9252206490AA007F08DFC3346ED
:103280002946E06FBDE8704000220AF03DB9000019
:10329000E707010862757320213D2052545F4E55A7
:1032A0004C4C00006275732D3E6F776E6572202165
:1032B0003D2052545F4E554C4C000000022801DC6A
:1032C0000020704700F006BDFEE700B591B002286F
:1032D00003DA4FF0FF3011B000BD694605F001FA86
:1032E0000598F8E7022801D80120704700207047B0
:1032F00070B50D46064600241B49FDF735FB002836
:1033000015D019493046891DFDF72EFB70B11649BD
:1033100030460D31FDF728FB50B1A8074FEA457044
:103320000FD5002806DA40F2422413E0012070BDD8
:10333000022070BD280702D540F242440AE0022470
:1033400008E0002802DA40F2412403E0280701D512
:1033500040F2414400222146304607F0FDF80028A3
:10336000E7DA4FF0FF3070BD4E09010870B5144622
:103370000B4658B14FF0FF3501280CD002280AD077
:1033800007F013FB002806DB201A70BD1146184613
:1033900005F01EFCF8E7284670BD022802DA4FF05F
:1033A000FF307047002206F063BC70B514460B4630
:1033B00001280AD0022808D04FF0FF3550B10BF099
:1033C000CDFD002806DB201A70BD1146184605F019
:1033D00043FCF8E7284670BD08B58DF80000684644
:1033E00008F02CFC08BD00007FB5C46C0D4620B968
:1033F0003F222B492BA007F0CFFB25B940222849BB
:103400002DA007F0C9FB24B9422225492EA007F0C0
:10341000C3FB606800F048F96846FFF7B1FC6068DC
:10342000FFF770FC2868009000200C21ADF80C001C
:10343000ADF80A10297901F00F01082901D00929F6
:1034400002D0ADF8040003E04FF48051ADF8041051
:103450002979C1F3011109B1012902D0ADF80600A3
:1034600003E04FF40051ADF806102979C1F3811142
:1034700019B101290ED002290FD0ADF80800694614
:103480006068FFF7E5FB01216068FFF798FB04B077
:10349000002070BD4FF4C060EFE74FF48060ECE7B0
:1034A000C0FE000873657269616C20213D20525492
:1034B0005F4E554C4C00000063666720213D205252
:1034C000545F4E554C4C000075736172745F696EA9
:1034D0007374616E636520213D2052545F4E554CDC
:1034E0004C000000F8B50D46040004D180221749B5
:1034F00017A007F051FBE46C24B98222134919A0EC
:1035000007F04AFB207A8DF8000002208DF80100B8
:1035100001208DF8020040F22556102D0AD0112D01
:1035200012D100208DF803006846FEF7DDFE002270
:10353000606806E08DF803006846FEF7D5FE606817
:1035400001223146FFF76BFB0020F8BDCFFE0008DB
:1035500073657269616C20213D2052545F4E554C59
:103560004C000000757361727420213D2052545F3D
:103570004E554C4C0000000070B5040004D1A92247
:103580000B490CA007F008FBE46C24B9AB220849F6
:103590000DA007F001FB4FF0FF3520216068FFF719
:1035A00018FB18B16068FFF7A9FBC5B2284670BDCB
:1035B000E6FE000873657269616C20213D2052545B
:1035C0005F4E554C4C000000757361727420213DB4
:1035D0002052545F4E554C4C000000002DE9F8433A
:1035E00004466846FEF735FC02208DF802002A48A2
:1035F0000426102518274FF48058844223D1012136
:103600004046FEF7D9FF01210420FEF7D5FFDFF881
:103610008C908DF80350ADF8005069464846FEF78F
:10362000B7F98DF80370A020ADF800006946484650
:10363000FEF7AEF98DF803604020ADF80000694652
:103640004846FEF7A5F91648844223D10414012107
:103650002046FEF799FF01210820FEF7ADFF8DF807
:103660000350104DADF8008069462846FEF790F9EA
:103670008DF803704FF42040ADF8000069462846ED
:10368000FEF786F98DF80360ADF8004069462846DC
:10369000FEF77EF9BDE8F8830030014000080140E4
:1036A00000380040000C014038B504466846FEF77B
:1036B000D0FB02208DF80200104884421CD1012169
:1036C0008803FEF779FF01210420FEF775FF18201B
:1036D0008DF8030060150A4CADF8000069462046DD
:1036E000FEF756F904218DF803100902ADF8001019
:1036F00069462046FEF74CF938BD0000003801400D
:10370000000801402DE9F0411F4616460D46C8B29B
:10371000DDF8188005F06CF930B1806800F08EF9A2
:10372000040001D4102C02D30620BDE8F081FCF780
:10373000C9FD014604EB4400134C34F92030AB4280
:1037400012D104EB8002D2F804C0BC450CD1B2F80F
:1037500002C0B44508D1D2F808C0C44504D1084617
:10376000FCF7B4FD0020E0E75B1C04D00846FCF742
:10377000ADFD0720D9E724F8205004EB8000476016
:103780004680C0F80880EAE75801002070B54FF085
:10379000FF35C8B205F02CF930B1806800F04EF961
:1037A000040001D4102C01D3062070BDFCF78AFD63
:1037B00001460A4B04EB440033F92020521C07D089
:1037C00023F8205003EB8000002242604280826098
:1037D0000846FCF77BFD002070BD0000580100206A
:1037E0002DE9FF5F1546C8B205F002F9040041D08B
:1037F000DFF848910026DFF848B1012D05D0002DF3
:1038000060D0B01F04B0BDE8F09FA06800F016F9CA
:1038100005007ED4102D7CD2FCF754FDDFF820A1EA
:1038200005EB45070AF1040A80463AF92700401CD7
:103830001DD009EB47056846FEF70BFB02A8FEF713
:1038400071F82888ADF80000029002218DF80C6014
:103850004FF001090AEB87008DF802108DF80E90E9
:10386000408840B1012808D0022809D128E040460C
:10387000FCF72CFD4DE0082000E00C208DF80D0039
:1038800069466068FEF784F8217C207BFEF752F8D9
:1038900002A8FEF70FF828798DF804008DF807903C
:1038A00005208DF805008DF8066001A8FEF71CFDC7
:1038B0002988DBF8002040461143CBF8001039E09E
:1038C0001020DBE7806800F0B9F8002801DB102841
:1038D00001D3344603E000EB400109EB4104C4B1DD
:1038E000FCF7F0FC2288DBF8001005469143CBF88A
:1038F00000108DF8076005208DF805008DF8066032
:103900002088A0F12002B2F5F07F04D801F478708D
:1039100008E0062076E7A0F58060B0F5F84F02D801
:1039200001F47C4010B920798DF8040001A8FEF75D
:10393000DBFC2846FCF7CAFC002063E72CFE0008ED
:103940005401002038B51446C8B205F051F80500FE
:1039500022D06846FEF77DFA2889ADF800001020D5
:103960008DF8030002218DF802107CB1012C06D0E5
:10397000022C06D0032C06D0042C06D008E004202C
:1039800004E0482002E0282000E014208DF8030025
:1039900069466868FDF7FCFF38BD10B50024C8B261
:1039A00005F026F830B101894068BDE8104089B2C1
:1039B000FEF744BA204610BD10B51446C8B205F053
:1039C00017F8002807D00189E2B24068BDE810402E
:1039D00089B2FEF746BA10BD70B50D46040004D199
:1039E0009B220B490BA007F0D7F8E46C24B99D2269
:1039F00007490DA007F0D0F829466068FFF7BCF929
:103A000080216068FFF7E5F80028F9D0012070BD3B
:103A1000DCFE000873657269616C20213D20525400
:103A20005F4E554C4C000000757361727420213D4F
:103A30002052545F4E554C4C0000000002460020BE
:103A4000012303FA00F1914204D0401C2028F8DB46
:103A50004FF0FF307047000010B51BA008F0EEF8E3
:103A60001C4C21781CA008F0E9F82078C00702D08F
:103A70001FA008F0E3F82078800702D51FA008F007
:103A8000DDF82078400702D51FA008F0D7F820788D
:103A9000000702D520A008F0D1F82078C00602D592
:103AA00020A008F0CBF82078000607D509480F3091
:103AB0000168BDE810401DA008F0C0B8BDE8104086
:103AC0001EA008F0BBB80000627573206661756CBB
:103AD000743A0A0029ED00E05343425F43465352D3
:103AE0005F424653523A3078253032582000000069
:103AF0004942555345525220000000005052454360
:103B00004953455252200000494D505245434953B4
:103B10004552522000000000554E53544B4552521E
:103B20002000000053544B45525220005343422D75
:103B30003E424641523A253038580A000A000000F9
:103B400010B50446014696B000220F4801F026FE4B
:103B5000002805DA21460DA008F070F816B010BD57
:103B600054216846FCF7AEFE50226946064801F033
:103B700075FE20B1694609A008F060F8F0E7024838
:103B800001F0D6FDEAE70000200B00204F70656EC3
:103B9000202573206661696C65640A002573000046
:103BA0002DE9F041040023D0FCF77DFD6FF01A07EA
:103BB0004FF480767D11B04221D82146002002F0DA
:103BC00099F904001BD002F00DF8204606F0EAFC3B
:103BD000C8B100F09BF8324621460E48FCF799FE2A
:103BE000204607F02FFC02F0A7FA0020BDE8F08184
:103BF00001F0F8FF074908A008F020F8F3E738467D
:103C000009F08CFB04E0204607F01CFC02F094FA5B
:103C10002846EBE7C402002025730A0010B50446CD
:103C20000020E070401E6063204606F0E5F908B110
:103C3000042010BD04F2362004F0BEFFA0F52A4196
:103C4000553901D0032010BD94F83800E92805D07B
:103C5000EB2814D194F83A00902810D104F16E00AA
:103C600004F09FFF0749B1EB002F06D004F18A0052
:103C700004F097FF0449884201D1002010BD0220C2
:103C800010BD0000004641544641543300E0401C42
:103C900002780AB18A42FAD1D0B2704710B502A0B8
:103CA00007F0CCFF002010BD1B5B324A1B5B4800B5
:103CB0000368826A480A5989B0FBF1F0121D02CAF2
:103CC00019B1884203D3401AF8E700207047116801
:103CD0000844704770B503F0CFFF04004FF0FF3584
:103CE0000CD001F025FD0646204604F08BF8002E8E
:103CF00007DA304609F012FB284670BD6FF00F005E
:103D0000F8E7204604F07EF8002070BD2DE9F04170
:103D10000646006803F0B0FF04004FF0FF3713D0F1
:103D200001F006FD0546204604F06CF8204604F03C
:103D300069F8304607F086FB002D08DA284609F0BE
:103D4000EDFA3846BDE8F0816FF00F00F7E700208C
:103D5000F8E7C269891E921E8A4201D80020704786
:103D6000026B408901FB00207047000070B50E46D1
:103D70000546012801D001240BE008A007F05EFFF2
:103D80000CA007F05BFF06E056F82400FFF7D8FE12
:103D9000641CAC42F8DB002070BD00005573616705
:103DA000653A20636174205B46494C455D2E2E2E9A
:103DB0000A000000436F6E636174656E6174652074
:103DC00046494C452873290A0000000010B50C46EE
:103DD000012802D0022803D00AE0064906A005E027
:103DE0006068FFF7DDFE18B104A0616807F026FFE8
:103DF000002010BDC402002025730A004E6F2073FE
:103E0000756368206469726563746F72793A2025FE
:103E1000730A000010B5032806D007A007F00EFFB4
:103E20000BA007F00BFF04E0D1E90102114600F0FE
:103E3000E3FA002010BD000055736167653A206306
:103E40007020534F5552434520444553540A0000B7
:103E5000436F707920534F5552434520746F20446F
:103E60004553542E0A00000010B50C46022801D01C
:103E70000AA00AE00AA16068FCF776FD48B10AA131
:103E80006068FCF771FD20B1606800F0A3FD0020C0
:103E900010BD06A007F0D2FEF9E700002F000000D9
:103EA0002D2D68656C7000002D6800006466205B35
:103EB000706174685D0A000070B50C46022806D077
:103EC000032807D010A007F0B9FE002070BD496894
:103ED00016A015E0002240F24241A06806F03CFB2B
:103EE00005000BD46068FCF7DEFB024628466168DB
:103EF0000BF034F82846FFF7EDFEE6E70CA0A168CA
:103F000007F09CFEE1E7000055736167653A2065A4
:103F100063686F2022737472696E6722205B666922
:103F20006C656E616D655D0A0000000025730A0016
:103F30006F70656E2066696C653A257320666169ED
:103F40006C6564210A00000010B505F073F90020CB
:103F500010BD000010B5012804D0486805F0FCFD34
:103F6000002010BD0048F9E7C402002010B5012868
:103F700005D04868002105F06BFF002010BD03A0AC
:103F800007F05CFE0AA007F059FEF6E7557361677B
:103F9000653A206D6B646972205B4F5054494F4EF7
:103FA0005D204449524543544F52590A00000000D5
:103FB00043726561746520746865204449524543C5
:103FC000544F52592C206966207468657920646FBB
:103FD000206E6F7420616C72656164792065786908
:103FE00073742E0A0000000010B50C460DA20228C2
:103FF00005D0042806D00CA007F020FE10E0496888
:10400000104606E010A16068FCF7AEFC40B9D4E9A8
:10401000020101F001FE010002D00CA007F00EFE2B
:10402000002010BD656C6D0055736167653A206DA9
:104030006B6673205B2D7420747970655D206465F8
:10404000766963650A0000002D7400006D6B66736D
:10405000206661696C65642C20726573756C743DB3
:1040600025640A0038B50C46032806D028A007F0BE
:10407000E5FD2DA007F0E2FD47E0D4E9011238A0EC
:1040800007F0DCFD00224FF48031A06806F064FAEE
:10409000002822DBFFF71EFE4FF4807007F046FE7B
:1040A000050006D0606809F0B4FA01466068014472
:1040B00009E02EA007F0C2FD6FF0040038BD0A78B9
:1040C0002F2A02D0491E8842F9D100912BA2FF214C
:1040D0002846A36809F08AF90CE000221146A0687E
:1040E00006F03AFA002804DBFFF7F4FDA0680AF0B6
:1040F0002CFEA5686068294606F0E6FC2DB1A06894
:10410000A84202D0284607F09DF9002038BD0000E3
:1041100055736167653A206D7620534F555243457C
:1041200020444553540A000052656E616D6520536A
:104130004F5552434520746F20444553542C206FF3
:1041400072206D6F766520534F5552434528732971
:1041500020746F204449524543544F52592E0A004F
:104160002573203D3E2025730A0000006F757420E2
:104170006F66206D656D6F72790A000025732F25BB
:104180007300000010B505F05FFB002010BD0000BB
:1041900010B5034903A007F051FD002010BD000039
:1041A000C402002025730A0070B50E46054601289A
:1041B00001D001240BE008A007F040FD0BA007F0A0
:1041C0003DFD06E056F824000AF0BFFD641CAC4239
:1041D000F8DB002070BD000055736167653A2072FE
:1041E0006D2046494C452E2E2E0A000052656D6FFB
:1041F00076652028756E6C696E6B29207468652061
:1042000046494C452873292E0A0000002DE9F05F2D
:104210008146884601F11A0004F0CEFC88BB98F86C
:104220000000012700F03F00401E00EB8001DFF896
:104230005CA001EBC00400254FF6FF7B1AF80510C7
:1042400001EB080004F0B8FC06466FB1FF2C18D251
:1042500003F054FE074639F81400641C03F04EFEC8
:1042600087420ED1374601E05E450AD16D1C0D2D07
:10427000E4D398F80000400606D52FB139F81400B1
:1042800010B10020BDE8F09F0120FBE7B00101085C
:10429000F0B50E46016D8BB0CD6C20B9592248495E
:1042A00048A006F079FC26B95A2245494AA006F0F2
:1042B00073FC28680068FFF791F9707800270828D8
:1042C00002D8ADF8047005E010280ED84FF4006055
:1042D000ADF8040005A87468FEF786F9286845491A
:1042E0000068884204D1089803E008200BB0F0BDB4
:1042F0000798B4EB500F02D3ADF80C7020E0B4EB8C
:10430000900F01D3082019E0B4EBD00F01D3102097
:1043100014E0B4EB101F01D318200FE0B4EB501FD2
:1043200001D320200AE0B4EB901F01D3282005E040
:10433000B4EBD01F01D3302000E03820ADF80C00E2
:10434000307810F0030008D00121012808D00222A3
:1043500002280AD003280FD10AE0ADF8087001E066
:10436000ADF80810ADF8067006E0ADF8087001E091
:10437000ADF80810ADF806203078400702D5ADF84A
:104380000E7002E08020ADF80E00ADF800704FF422
:104390008270ADF802004FF40070ADF80A00286892
:1043A00069460068FEF714FB286801210068FEF7E3
:1043B000FAFA286800210068FEF7EBFA002095E77A
:1043C00028FF000864657669636520213D2052540A
:1043D0005F4E554C4C000000636F6E6669677572E6
:1043E0006174696F6E20213D2052545F4E554C4CD4
:1043F0000000000000300140F0B591B00E460546C7
:10440000694601F083FA002805DA294631A007F051
:1044100015FC11B0F0BDBDF806000427B7EB103F46
:1044200001D1012400E002246946304601F06EFA11
:10443000002809DBBDF80600B7EB103F02D144F0BD
:10444000040401E044F00804E00703D0200701D58C
:1044500026A02FE0A0074FEA447014D500280DDAFB
:104460002846FEF7BFFC0146304601F043FD04003C
:104470001FD00146284600F0E7F816E031462846EE
:1044800000F0E2F8C5E7002817DA2846FEF7AAFC94
:104490000146304601F02EFD04000AD0002105F04F
:1044A000D7FC2146284600F03FF8204606F0CAFF18
:1044B000AFE719A007F0C2FBABE714F00C0F03D174
:1044C0000021304605F0C4FC3146284600F02CF8A7
:1044D0009FE70000636F7079206661696C65642CEA
:1044E000206261642025730A00000000637020666A
:1044F00061696C642C2063702064697220746F2081
:1045000066696C65206973206E6F74207065726DCA
:104510006974746564210A006F7574206F66206D7C
:10452000656D6F72790A00002DE9F0438846DBB0B3
:10453000814601464FF4803251A801F02FF900283E
:1045400006DA494630A007F079FB5BB0BDE8F0839E
:104550004FF482776C4639466846FCF7B3F93A4621
:10456000694651A801F0FAF800282FDD2AA1201D84
:10457000FCF7FAF90028EED028A1201DFCF7F4F989
:104580000028E8D0211D484601F0B4FC060013D0F5
:10459000211D404601F0AEFC050011D0402141A88C
:1045A000FCF790F941A9304601F0B0F990B1211D16
:1045B0001BA007F043FBCEE71FA007F03FFB05E081
:1045C0001DA007F03BFB304606F03CFF51A801F070
:1045D000AFF8BAE7BDF80A010421B1EB103F08D1EA
:1045E0000021284605F034FC29463046FFF79CFFA1
:1045F00003E02946304600F027F8304606F022FF57
:10460000284606F01FFFA6E76F70656E2025732011
:104610006661696C65640A002E2E00002E000000A1
:104620006F70656E2066696C653A2025732066613F
:10463000696C65640A0000006F7574206F66206DF8
:10464000656D6F7279210A00F0B504464FF480560B
:1046500089B00F46304607F069FB05000CD00022F8
:104660002146684601F09AF800280ADA284606F042
:10467000E9FE21461AA013E01DA007F0DFFA09B0F9
:10468000F0BD412239461E4801F088F800280ADAB8
:10469000284606F0D7FE684601F04AF8394619A0C8
:1046A00007F0CCFAEBE732462946684601F0D6F827
:1046B000041E0ADD02462946114801F0FFF90146B1
:1046C000A042F0D014A007F0B9FA684601F030F823
:1046D0000B4801F02DF8284606F0B4FECFE70000A5
:1046E00052656164202573206661696C65640A0007
:1046F0006F7574206F66206D656D6F72790A0000AA
:10470000200B00205772697465202573206661694B
:104710006C65640A00000000577269746520666960
:104720006C652064617461206661696C65642C202D
:104730006572726E6F3D25640A0000002DE9F0413C
:1047400005680F00804606D004F038F8022809D228
:104750000120BDE8F0816E6916B1E869B04207D862
:10476000012605E0411CF4D0E9698142F1D83E46BA
:104770003446E869641CA04202D80224022E0AD3FF
:104780002146404604F01AF838B10128E1D0411C16
:10479000DFD0B442EDD10020DBE74FF0FF363246E8
:1047A0002146284606F08CF830B957B122463946E2
:1047B000284606F085F820B101280FD001242046B4
:1047C000C7E76C61D5E90601891E884201D2401E07
:1047D000A861287940F001002871F0E73446EEE73F
:1047E0002DE9F35F0E68009800248846006825468E
:1047F000D0F80C90705D6D1C202818D32F2811D094
:104800005C280FD0FF2C36D2012103F02FFB0700CC
:1048100031D0802F12D2014664A0FFF737FA50BB87
:104820000CE06D1C715D2F29FBD05C29F9D0721949
:10483000C8F80020202805D204260EE029F81470BC
:10484000641CD7E7002608E009EB440030F8020CAE
:10485000202801D02E2802D1641E002CF4D1002182
:1048600029F814103CB100980B222021203005F0CB
:10487000E9FA002703E00620BDE8FC9F7F1C39F819
:1048800017002028FAD02E28F8D01FB146F00306D2
:1048900000E0641E2CB109EB440030F8020C2E2815
:1048A000F7D14FF00008C2464FF0080B39F8175007
:1048B0007F1C05B3202D03D02E2D04D1A74202D09A
:1048C00046F00306F2E7DA4501D2A74219D1BBF15F
:1048D0000B0F0ED0A74201D046F003060BD84FEACB
:1048E000886027464FF0080A4FF00B0B4FEA10681C
:1048F000DCE746F00306009890F82000E5282ED06B
:1049000031E0802D0CD30021284603F0AFFA0500DA
:1049100003D02948284410F8805C46F0020625B1EF
:10492000294626A0FFF7B2F918B15F2546F0030625
:104930000EE0A5F14100192802D848F0020807E06E
:10494000A5F16100192803D8203D48F00108ADB257
:10495000009850440AF1010A80F82050A6E7009818
:10496000052180F82010BBF1080F03D14FEA8860C1
:104970004FEA1068C8F38100032803D06FEA0801EA
:10498000890701D146F00206B10709D408F00301F6
:10499000012901D146F01006012801D146F0080690
:1049A000009880F82B60002066E70000222A3A3C3D
:1049B0003E3F7C7F00000000300101082B2C3B3D76
:1049C0005B5D000010B5024801F02AFB002010BD1D
:1049D000BCFF00082DE9F043254989B005AD0EC99B
:1049E00085E80E0000273C4602A901F07DFB30B1AE
:1049F00020A007F023F9781E09B0BDE8F0830499E0
:104A000002984FF48065A0FB01012A460023FBF7C2
:104A1000F6FCA9464FF48062821A71F1000219DB9C
:104A20004F464A460023FBF7EAFC05460A20A2FB54
:104A300000C803FB00800E46002102FB01013A463C
:104A400000236046FBF7DBFC0746641C2846314622
:104A5000022CDFDB029A0499CDE9001205A93A463F
:104A600051F82430014608A007F0E8F80020C3E719
:104A70008CFF00086466735F7374617466732066EC
:104A800061696C65642E0A006469736B20667265E7
:104A9000653A2025642E2564202573205B2025643B
:104AA00020626C6F636B2C202564206279746573BF
:104AB0002070657220626C6F636B205D0A000000DD
:104AC00070B5040004D15C22124913A006F064F80A
:104AD0006088022802D0256A5DB10FE0246A24B9FB
:104AE00063220C4910A006F057F8204606F0AAFCF5
:104AF0000DE06C22074912A006F04EF8284606F099
:104B0000B5F910B16FF00B0070BD002020620020DD
:104B100070BD00001F00010866696C6520213D2002
:104B200052545F4E554C4C00726F6F745F646972E3
:104B3000656E7420213D2052545F4E554C4C000050
:104B40006465765F696420213D2052545F4E554C68
:104B50004C0000002DE9F047056A14460F462DB9B8
:104B600040F2091219491AA006F016F84FF48270A3
:104B7000B4FBF0F636B1002480464FF001094FF047
:104B8000080A14E06FF01C00BDE8F08729680822CD
:104B900051F8201004EB841007EB800000F8019B13
:104BA00000F801AB20F8028B08F04BFD641CB44206
:104BB00004D2A888E98820448842E7D3A888204402
:104BC000A88004EB84108000DEE7000046000108A6
:104BD000726F6F745F646972656E7420213D20523C
:104BE000545F4E554C4C000070B515460E460400FF
:104BF00004D12522084909A005F0CEFF246A24B972
:104C00002922054909A005F0C7FF2A46314620465A
:104C1000BDE8704006F080B9E4FF000866696C6585
:104C200020213D2052545F4E554C4C006465765F08
:104C3000696420213D2052545F4E554C4C000000C9
:104C4000002070472DE9F047054640684FF0000905
:104C500001782F2936D1417899BB6969C90331D5CB
:104C6000002606F0C5FB092007F030FD070004D13F
:104C70008E22274927A005F08FFF07F104087868E6
:104C800001E00068761C4045FBD1082000EB86005F
:104C900007F04CF8040011D004F108002060A4F8DB
:104CA0000490E6800021786806E02368A0F10C02F9
:104CB00043F821200068491C4045F6D106F0A6FBC8
:104CC00023E0FFE7401C06F071F904000BD0E06B15
:104CD00078B12C622861016891B12846884730B1CB
:104CE000801D04D00CE06FF01900BDE8F0870020B3
:104CF000FBE70321204606F097F930B1801D04D070
:104D00006FF00B00C5F82090EFE72C62EFE7000092
:104D100033000108696E666F726D6174696F6E2091
:104D2000213D2052545F4E554C4C000000207047EE
:104D30002DE9F04116460F46040004D138220B49F4
:104D40000BA005F029FF256A25B93C2207490CA0D4
:104D500005F022FF33463A462846E16906F026FA76
:104D6000E1690144E161BDE8F0810000F8FF00085D
:104D700066696C6520213D2052545F4E554C4C00B5
:104D80006465765F696420213D2052545F4E554C26
:104D90004C0000002DE9F04108780025144648F247
:104DA000B6164FF4DB772F2801D1487888B1481C1C
:104DB00006F0FCF8F0B12560E780007D80B10128A5
:104DC00011D00F2812D0E680656125620020BDE871
:104DD000F08144F2FF102560E08065611562F5E71F
:104DE00042F2B61004E046F2B61001E041F2B6100D
:104DF000E080E9E76FF00800E9E700002DE9F04105
:104E000016460F46040004D14A220B490BA005F0B8
:104E1000C3FE256A25B94E2207490CA005F0BCFE49
:104E200033463A462846E16906F08AFAE1690144C8
:104E3000E161BDE8F08100000B00010866696C6566
:104E400020213D2052545F4E554C4C006465765FE6
:104E5000696420213D2052545F4E554C4C000000A7
:104E600070B541880024022901D049B118E0056AD3
:104E70009DB940F2C9120D490DA005F08DFE0CE060
:104E8000056A2DB94FF4E97208490DA005F084FEBA
:104E9000284601F090FC040002D1284606F0D2FA20
:104EA0002046BDE8704001F065BC0000CB00010861
:104EB00064697220213D2052545F4E554C4C0000D5
:104EC000666420213D2052545F4E554C4C0000003A
:104ED00010B5046A2CB94FF40D72054905A005F010
:104EE0005BFE204602F0ADFCBDE8104001F042BC84
:104EF00002010108666420213D2052545F4E554C4A
:104F00004C0000002DE9F74F8146006AC6B01446F8
:104F10005FEA000B05D140F26A222A492AA005F077
:104F20003BFE4FF4827AB4FBFAF000EB8010800075
:104F30005FEA00080CD00025479805EB851100EBCF
:104F400081046946584602F05BFB060028D104E064
:104F50006FF01C0049B0BDE8F08F9DF81600F8B165
:104F6000002020709DF808000DF11607C00601D53D
:104F7000022000E001202070384608F04AFB6070F3
:104F8000A4F802A0384608F044FB421C3946201D14
:104F900008F057FB6D1C05EB8511B8EB810FCBD8E2
:104FA0005DB1D9F81C0005EB851100EB810105EB23
:104FB00085108000C9F81C10CCE7304601F0DAFB00
:104FC000C8E700001E01010864697220213D2052DB
:104FD000545F4E554C4C000070B51646104AD142F5
:104FE00002D1046A1CB108E06FF02C0070BD40F2E1
:104FF000E9120C490CA005F0CFFD3168E068656945
:10500000884204D32046616102F06CFC02E0204635
:1050100001F04FFC6561BDE8704001F0ABBB0000E2
:105020000000ACADD9000108666420213D20525437
:105030005F4E554C4C00000070B504460E4661882A
:10504000002011B1022911D020E0256A2DB940F2CB
:105050004322124912A005F09FFD3146284601F077
:1050600028FC98B96869E061686970BD256A2DB946
:1050700040F2532209490EA005F08EFD4FF48270D4
:10508000B6FBF0F1284602F08DFB18B1BDE8704088
:1050900001F070BB3046E66170BD000010010108F0
:1050A000666420213D2052545F4E554C4C00000058
:1050B00064697220213D2052545F4E554C4C0000D3
:1050C0002DE9FC5F81463BA04FF400780068019019
:1050D0000027404606F02AFE05006FF0120B34D080
:1050E000B9F1000033D0002603F058FB0446DFF886
:1050F000C8A0401C31D004F130008DF804002B46CC
:1051000000220F2101A8CDF8008001F0A1FD80460A
:10511000284606F097F96EB1384606F093F9E2B2E8
:1051200001A9002002F03AF800214AF8241048466C
:1051300005F09CFEB8F1000F39D020A006F07EFDEE
:10514000404601F017FBBDE8FC9F5846FBE72846A8
:1051500006F078F96FF01C00F5E7002003F01EFB65
:105160000446401C16D04FF40E7006F0DFFD070019
:1051700019D001264AF824900321484605F054FF2F
:1051800004F130008DF80400E2B201A9384602F0C3
:1051900005F8B4E70DA006F051FD284606F052F9D7
:1051A0006FF02200CFE7284606F04CF9CDE700204B
:1051B000C9E70000303A0000C4030020666F726D3A
:1051C0006174206572726F720A000000736F7272F0
:1051D000792C207468657265206973206E6F207366
:1051E0007061636520746F20646F206D6B6673213E
:1051F000200A00002DE9F04F074637A087B000686D
:105200000090002003F0CAFA0446401C0FD004F1BD
:105210003000DFF8C8808DF80000396848F82410A5
:1052200001AA1021386805F077FE28B10EE06FF072
:10523000080007B0BDE8F08F0298B0F5007F05D9EF
:10524000274806F0FBFC6FF01C00F2E74FF40E70ED
:1052500006F06CFD06004FF000096FF0120B06D04F
:105260000122694601F09AFF050003D013E048F8D7
:10527000249028E023461BA2082104A808F0B6F8D1
:10528000302006F053FD5FEA000A12D004A902F0B4
:10529000B1F8050019D001226946002001F07EFF17
:1052A00048F82490304606F0CDF8284601F062FA1E
:1052B000BFE701226946002001F070FF48F8249002
:1052C000304606F0BFF85846B3E75046FE6006F099
:1052D000B9F80020ADE70000303A0000C403002018
:1052E000C80B010825643A2F000000002DE9F8439F
:1052F0000546006A6FF0080620B1C06801F022FA86
:10530000040002D53046BDE8F8834FF4807630467D
:1053100006F00CFD07006FF0120813D068680090CB
:10532000234633A23146384608F060F86869C10365
:105330001ED5400608D5384601F0C6FB040003D050
:10534000384639E04046DEE7302006F0EFFC040046
:1053500039D0394602F04EF80646384606F072F863
:1053600026B1204606F06EF8304628E02C623CE07C
:105370000124C10700D00324810701D544F00204B1
:10538000410601D544F01004810501D544F008041C
:10539000000601D544F004044FF40B7006F0C6FC7F
:1053A000060010D02246394601F032FF0446384646
:1053B00006F048F85CB1304606F044F82046BDE8F7
:1053C000F84301F0D7B9384606F03CF8BAE77069FF
:1053D000E861F0682E62A861A88A400505D53046CC
:1053E000F16801F066FA7069E86100208BE700005F
:1053F00025643A2573000000F8B505464088164636
:105400000F46022802D02C6A1CB108E06FF01B0086
:10541000F8BD40F20B22094909A005F0BDFB6B461F
:1054200032463946204602F031F86169E96110B12F
:1054300001F0A0F9F8BD0098F8BD0000E7000108F0
:10544000666420213D2052545F4E554C4C000000B4
:105450002DE9F84316460F46C06801F073F90500C0
:1054600003D56FF00800BDE8F8834FF4807840461C
:1054700006F05CFC040012D02B460AA241460097BD
:1054800007F0B4FF3146204602F0F5F80546204605
:1054900005F0D8FF2846BDE8F84301F06BB96FF07E
:1054A0001200E0E725643A25730000002DE9F04F73
:1054B000D3B014460F46C06801F044F9060004D585
:1054C0006FF0080053B0BDE8F08F4FF4807840468D
:1054D00006F02CFC050011D0334628A24146009767
:1054E00007F084FF01A9284602F078F98346284690
:1054F00005F0A8FFBBF1000F03D03BE06FF01200F6
:10550000E0E70020206048F2B610E0809DF80C0033
:10551000C00602D544F2FF10E0809DF80C00C007E1
:1055200003D0E08820F09200E08001986061BDF82F
:10553000080000F01F0A400900F00F060509BDF839
:105540000A0005F2BC75C10640098F0E00F03F0845
:105550004FEA90192C2147A8FBF7B4F9A5F26C7516
:10556000761ECDE94B6547A947A881E8800704F07E
:105570009DFC2062584601F0FDF8A3E725643A251A
:10558000730000003EB50C46050005D140F22B1219
:10559000144915A005F000FB2CB94FF4967211497F
:1055A00015A005F0F9FAE868009017A243780421E5
:1055B00001A807F01BFF6A4602A901A801F00EF935
:1055C00010B101F0D7F83EBD0098029AC169408938
:1055D000891E41435043C4E901104FF4007020601C
:1055E00000203EBDBC000108667320213D205254BE
:1055F0005F4E554C4C00000062756620213D2052E4
:10560000545F4E554C4C000025643A00F8B50E46E8
:10561000C06801F097F8050002D56FF00800F8BDEA
:105620004FF48077384606F081FB040011D02B46FA
:1056300009A23946009607F0D9FE204602F0ABF9E0
:105640000546204605F0FEFE2846BDE8F84001F07C
:1056500091B86FF01200F8BD25643A257300000080
:10566000F8B5054614A000680090EE6826B9AF2290
:10567000124913A005F090FA286803F08FF8044649
:10568000401C0CD004F130008DF800000122694666
:10569000002001F083FD28B101F06CF8F8BD6FF037
:1056A0000800F8BD0A490020E86041F824003046AF
:1056B00005F0C8FE0020F8BD303A0000AC0001083B
:1056C00066617420213D2052545F4E554C4C0000C1
:1056D000C4030020F8B50546408816460F46022848
:1056E00002D02C6A1CB108E06FF01B00F8BD40F23C
:1056F00022220A490AA005F04FFA6B463246394683
:10570000204602F0AAF96169E961E168A96110B176
:1057100001F030F8F8BD0098F8BD0000F400010871
:10572000666420213D2052545F4E554C4C000000D1
:1057300070B505004FF000040DD02869416819B11B
:1057400028468847040005D4686805F07BFE0020E1
:105750006860204670BD6FF00C0070BD10B14388CA
:10576000022B02D06FF01C0070470369DB6903B1A4
:1057700018476FF02C00704710B5040008D020695E
:10578000826942B120469047002800DBE06110BDED
:105790006FF01C0010BD6FF02C0010BD2DE9F04122
:1057A0009046040025D0002000F0A4FB060023D082
:1057B00000F090F9050022D0E560A8680027806815
:1057C00020616780C4E90587C4E90775A868007986
:1057D000C0071AD066602069016841B32046884737
:1057E00005002BD5606805F02DFE28466760BDE8F2
:1057F000F0816FF01C00FAE76FF01200F7E7304617
:1058000005F020FE6FF00800F1E73146686800F00F
:105810007AFC50B13146686800F075FC07F0E7FE8D
:105820006060304605F00EFED5E70BA0F6E7606835
:1058300005F008FE6FF02C006760D8E760695FEA4A
:10584000C83140F08070606104D50221618040F071
:10585000007060610020CAE72F00000010B504004E
:105860000BD02069C3685BB120469847002803DA53
:10587000616941F08061616110BD6FF01C0010BD75
:105880006FF02C0010BD2DE9F0410F4600250146B8
:10589000284600F02FFB06006FF008042DD0394693
:1058A000002000F027FB050027D0304600F012F959
:1058B0000446284600F00EF984421CD1A1684B6AC8
:1058C0002BB10979C90705D02A4631460FE06FF0A0
:1058D0002C0412E04068294600F015FC07463146CA
:1058E000606800F010FC0146A0683A46436A204612
:1058F0009847044601E06FF01804304605F0A2FD19
:10590000284605F09FFD2046BDE8F08170B50E46A3
:105910000146002000F0EEFA050007D000F0DAF8AA
:10592000040006D028782F2813D014E04FF0FF3061
:1059300070BD25A006F082F9294627A006F07EF961
:1059400031A006F07BF9284605F07CFD6FF00800D9
:1059500070BD687868B12946606800F0D4FB40B13A
:10596000A068036A8BB10079C0071DD03246294672
:1059700022E0002044F2FF113060F180706130625B
:10598000284605F05FFD002070BD284605F05AFD51
:105990000DA006F053F91EA006F050F91AA006F06B
:1059A0004DF96FF02C0070BD2946606800F0ABFB2C
:1059B0000146A0683246036A2046984704462846B6
:1059C00005F040FD204670BD1B5B33316D5B452FFC
:1059D0004446535D2000000063616E2774206669B1
:1059E0006E64206D6F756E7465642066696C657396
:1059F000797374656D206F6E2074686973207061AF
:105A000074683A25730000001B5B306D0A000000CB
:105A10007468652066696C6573797374656D20645C
:105A200069646E277420696D706C656D656E742095
:105A3000746869732066756E6374696F6E00000028
:105A400070B50146002000F055FA05000FD000F0B7
:105A500041F804000ED0284602F036F968B1A0687B
:105A6000C2690AB30079C0070AD0294614E06FF072
:105A70001C0070BD6FF0080418E06FF0160415E00C
:105A80002946606800F03FFB50B12946606800F08D
:105A90003AFB0146A068C26920469047044605E0EB
:105AA000A06805A1C269F7E76FF02C04284605F04D
:105AB000C9FC204670BD00002F00000018B103692A
:105AC0001B691BB118476FF01C0070476FF02C006A
:105AD000704700002DE9F0474FF000075FEA00082B
